{"abi":[{"type":"constructor","inputs":[{"name":"_sns","type":"address","internalType":"contract ISNSRegistry"},{"name":"_resolver","type":"address","internalType":"address"}],"stateMutability":"nonpayable"},{"type":"function","name":"ADDR_REVERSE_NODE","inputs":[],"outputs":[{"name":"","type":"bytes32","internalType":"bytes32"}],"stateMutability":"view"},{"type":"function","name":"claim","inputs":[{"name":"addr","type":"address","internalType":"address"},{"name":"owner","type":"address","internalType":"address"},{"name":"resolverAddr","type":"address","internalType":"address"}],"outputs":[{"name":"","type":"bytes32","internalType":"bytes32"}],"stateMutability":"nonpayable"},{"type":"function","name":"node","inputs":[{"name":"addr","type":"address","internalType":"address"}],"outputs":[{"name":"","type":"bytes32","internalType":"bytes32"}],"stateMutability":"pure"},{"type":"function","name":"resolver","inputs":[],"outputs":[{"name":"","type":"address","internalType":"address"}],"stateMutability":"view"},{"type":"function","name":"setName","inputs":[{"name":"name","type":"string","internalType":"string"}],"outputs":[{"name":"","type":"bytes32","internalType":"bytes32"}],"stateMutability":"nonpayable"},{"type":"function","name":"setNameForAddr","inputs":[{"name":"addr","type":"address","internalType":"address"},{"name":"owner","type":"address","internalType":"address"},{"name":"resolverAddr","type":"address","internalType":"address"},{"name":"name","type":"string","internalType":"string"}],"outputs":[{"name":"","type":"bytes32","internalType":"bytes32"}],"stateMutability":"nonpayable"},{"type":"function","name":"sns","inputs":[],"outputs":[{"name":"","type":"address","internalType":"contract ISNSRegistry"}],"stateMutability":"view"},{"type":"event","name":"ReverseClaimed","inputs":[{"name":"addr","type":"address","indexed":true,"internalType":"address"},{"name":"node","type":"bytes32","indexed":true,"internalType":"bytes32"}],"anonymous":false}],"bytecode":{"object":"0x60c0346100a057601f6109d938819003918201601f19168301916001600160401b038311848410176100a55780849260409485528339810103126100a05780516001600160a01b039182821682036100a0576020015191821682036100a05760805260a05260405161091d90816100bc8239608051818181610265015281816102fa015281816105c10152610683015260a05181818160a9015261033d0152f35b600080fd5b634e487b7160e01b600052604160045260246000fdfe60806040818152600436101561001457600080fd5b600091823560e01c90816304f3bcec146103295750806340288a98146102e65780635e1c75e1146101db5780637a806d6b1461017f5780637cf8a2eb14610145578063bffbe61c146100dd5763c47f00271461006f57600080fd5b346100d95760203660031901126100d9576004359167ffffffffffffffff83116100d657506100cf6100a7602093369060040161041b565b7f000000000000000000000000000000000000000000000000000000000000000033336104d5565b9051908152f35b80fd5b5080fd5b50346100d95760203660031901126100d9576020906101026100fd61036c565b610787565b8151838101917f91d1777781884d03a6757a803996e38de2a42967fb37eeaca72729271025a9e283528382015282815261013b816103dd565b5190209051908152f35b50346100d957816003193601126100d957602090517f91d1777781884d03a6757a803996e38de2a42967fb37eeaca72729271025a9e28152f35b50346100d95760803660031901126100d95761019961036c565b916101a2610387565b6101aa61039d565b916064359067ffffffffffffffff82116100d6575091602094916101d56100cf94369060040161041b565b926104d5565b50346100d95760603660031901126100d9576101f561036c565b6101fd610387565b61020561039d565b6001600160a01b03808416331495919391908615610235575b6020866100cf8787876102308d61048a565b610623565b855163e985e9c560e01b81526001600160a01b0384166004820152336024820152919650602090829060449082907f0000000000000000000000000000000000000000000000000000000000000000165afa9081156102dc576100cf9493929161023091602098916102af575b509650819293945061021e565b6102cf9150883d81116102d5575b6102c781836103f9565b810190610472565b386102a2565b503d6102bd565b85513d88823e3d90fd5b50346100d957816003193601126100d957517f00000000000000000000000000000000000000000000000000000000000000006001600160a01b03168152602090f35b8390346100d957816003193601126100d9577f00000000000000000000000000000000000000000000000000000000000000006001600160a01b03168152602090f35b600435906001600160a01b038216820361038257565b600080fd5b602435906001600160a01b038216820361038257565b604435906001600160a01b038216820361038257565b67ffffffffffffffff81116103c757604052565b634e487b7160e01b600052604160045260246000fd5b6060810190811067ffffffffffffffff8211176103c757604052565b90601f8019910116810190811067ffffffffffffffff8211176103c757604052565b81601f820112156103825780359067ffffffffffffffff82116103c75760405192610450601f8401601f1916602001856103f9565b8284526020838301011161038257816000926020809301838601378301015290565b90816020910312610382575180151581036103825790565b1561049157565b606460405162461bcd60e51b815260206004820152602060248201527f526576657273655265676973747261723a204e6f7420617574686f72697365646044820152fd5b9192916001600160a01b03918282163314918591908315610593575b6102306104fd9461048a565b9216803b15610382576040518092637737221360e01b82528460048301526040602483015280519081604484015260005b82811061057b57505091816000606482868383819984010152601f801991011681010301925af1801561056f57610563575090565b61056c906103b3565b90565b6040513d6000823e3d90fd5b6020828201810151606488840101528694500161052e565b60405163e985e9c560e01b81526001600160a01b0382166004820152336024820152935091506020836044817f000000000000000000000000000000000000000000000000000000000000000088165afa91821561056f5761023087936104fd95600091610605575b509450506104f1565b61061d915060203d81116102d5576102c781836103f9565b386105fc565b9291909261063081610787565b6040519260208401916000927f91d1777781884d03a6757a803996e38de2a42967fb37eeaca72729271025a9e29586825282604082015260408152610674816103dd565b519020946001600160a01b03927f0000000000000000000000000000000000000000000000000000000000000000841690813b1561075c57918560a49286829695816040519e8f9889976305ef2c7f60e41b8952600489015260248801521660448601521660648401528160848401525af195861561075157849596610720575b507f6ada868dd3058cf77a48a74489fd7963688e5464b2b0fa957ace976243270e929192169180a390565b9161074b7f6ada868dd3058cf77a48a74489fd7963688e5464b2b0fa957ace976243270e92936103b3565b916106f5565b6040513d84823e3d90fd5b8580fd5b908151811015610771570160200190565b634e487b7160e01b600052603260045260246000fd5b604051610793816103dd565b602881526020810191604036843760005b601481106107b457505051902090565b601381810390811161087957600381901b906001600160fd1b038116036108795760ff908181116108795760019081811b1561088f576001600160a01b038516901c60f0811683821603928311610879576108179060f41b600f60f81b166108a5565b83821b926001600160ff1b03851685036108795761084f9160001a61083c8589610760565b5360f81b6001600160f81b0319166108a5565b908201809211610879576108679060001a9185610760565b536000198114610879576001016107a4565b634e487b7160e01b600052601160045260246000fd5b634e487b7160e01b600052601260045260246000fd5b60f81c600a8110156108cc5760300160ff81116108795760f81b6001600160f81b03191690565b60570160ff81116108795760f81b6001600160f81b0319169056fea2646970667358221220def4e568cda2a410d2bf2daea5c1df506018aca9225aa9fa14aac68f104ec28164736f6c63430008140033","linkReferences":{}},"methodIdentifiers":{"ADDR_REVERSE_NODE()":"7cf8a2eb","claim(address,address,address)":"5e1c75e1","node(address)":"bffbe61c","resolver()":"04f3bcec","setName(string)":"c47f0027","setNameForAddr(address,address,address,string)":"7a806d6b","sns()":"40288a98"},"id":31}