{"abi":[{"type":"constructor","inputs":[{"name":"_sns","type":"address","internalType":"contract ISNSRegistry"},{"name":"_resolver","type":"address","internalType":"address"}],"stateMutability":"nonpayable"},{"type":"function","name":"ADDR_REVERSE_NODE","inputs":[],"outputs":[{"name":"","type":"bytes32","internalType":"bytes32"}],"stateMutability":"view"},{"type":"function","name":"claim","inputs":[{"name":"addr","type":"address","internalType":"address"},{"name":"owner","type":"address","internalType":"address"},{"name":"resolverAddr","type":"address","internalType":"address"}],"outputs":[{"name":"","type":"bytes32","internalType":"bytes32"}],"stateMutability":"nonpayable"},{"type":"function","name":"multicall","inputs":[{"name":"data","type":"bytes[]","internalType":"bytes[]"}],"outputs":[{"name":"results","type":"bytes[]","internalType":"bytes[]"}],"stateMutability":"nonpayable"},{"type":"function","name":"node","inputs":[{"name":"addr","type":"address","internalType":"address"}],"outputs":[{"name":"","type":"bytes32","internalType":"bytes32"}],"stateMutability":"pure"},{"type":"function","name":"resolver","inputs":[],"outputs":[{"name":"","type":"address","internalType":"address"}],"stateMutability":"view"},{"type":"function","name":"setName","inputs":[{"name":"name","type":"string","internalType":"string"}],"outputs":[{"name":"","type":"bytes32","internalType":"bytes32"}],"stateMutability":"nonpayable"},{"type":"function","name":"setNameForAddr","inputs":[{"name":"addr","type":"address","internalType":"address"},{"name":"owner","type":"address","internalType":"address"},{"name":"resolverAddr","type":"address","internalType":"address"},{"name":"name","type":"string","internalType":"string"}],"outputs":[{"name":"","type":"bytes32","internalType":"bytes32"}],"stateMutability":"nonpayable"},{"type":"function","name":"sns","inputs":[],"outputs":[{"name":"","type":"address","internalType":"contract ISNSRegistry"}],"stateMutability":"view"},{"type":"event","name":"ReverseClaimed","inputs":[{"name":"addr","type":"address","indexed":true,"internalType":"address"},{"name":"node","type":"bytes32","indexed":true,"internalType":"bytes32"}],"anonymous":false},{"type":"error","name":"SNS_CannotClaimReverse","inputs":[{"name":"addr","type":"address","internalType":"address"},{"name":"caller","type":"address","internalType":"address"}]},{"type":"error","name":"SNS_MulticallFailed","inputs":[{"name":"index","type":"uint256","internalType":"uint256"},{"name":"data","type":"bytes","internalType":"bytes"}]}],"bytecode":{"object":"0x60c0346100a057601f610c2538819003918201601f19168301916001600160401b038311848410176100a55780849260409485528339810103126100a05780516001600160a01b039182821682036100a0576020015191821682036100a05760805260a052604051610b6990816100bc8239608051818181610466015281816104ec015281816107aa0152610861015260a05181818160b4015261052f0152f35b600080fd5b634e487b7160e01b600052604160045260246000fdfe608060408181526004918236101561001657600080fd5b600090813560e01c90816304f3bcec1461051b5750806340288a98146104d75780635e1c75e1146103aa5780637a806d6b1461034e5780637cf8a2eb14610313578063ac9650d814610151578063bffbe61c146100e45763c47f00271461007c57600080fd5b346100e15760203660031901126100e15782359067ffffffffffffffff82116100e157506100b26020936100da92369101610629565b7f000000000000000000000000000000000000000000000000000000000000000033336106c8565b9051908152f35b80fd5b50903461014d57602036600319011261014d5760209061010a61010561055e565b610965565b8151838101917f91d1777781884d03a6757a803996e38de2a42967fb37eeaca72729271025a9e2835283820152828152610143816105cf565b5190209051908152f35b5080fd5b50823461014d57602091826003193601126100e157813567ffffffffffffffff9283821161030f573660238301121561030f578181013593841161030f57602490818301928236918760051b01011161030b576101ad85610ac5565b946101ba885196876105eb565b808652601f1990816101cb82610ac5565b0188875b8281106102fb57505050855b8181106102415750505050505083519280840190808552835180925280868601968360051b870101940192955b8287106102155785850386f35b909192938280610231600193603f198a82030186528851610670565b9601920196019592919092610208565b86808b61024f84868b610add565b809251928392833781018381520390305af43d156102f3573d906102728261060d565b9161027f8d5193846105eb565b82523d898c84013e5b156102ad579060019161029b828b610b1f565b526102a6818a610b1f565b50016101db565b5094866102be87601f948d94610add565b9290968151988997632900c64b60e01b8952880152860152816044860152816064968787013785828601015201168101030190fd5b606090610288565b606082828c0101520189906101cf565b8380fd5b8280fd5b50903461014d578160031936011261014d57602090517f91d1777781884d03a6757a803996e38de2a42967fb37eeaca72729271025a9e28152f35b50346100e15760803660031901126100e15761036861055e565b92610371610579565b9061037a61058f565b926064359067ffffffffffffffff82116100e15750916103a46100da949260209794369101610629565b926106c8565b50913461030f57606036600319011261030f576103c561055e565b6103cd610579565b916103d661058f565b946001600160a01b0383811633141591908261042d575b50506104015750926100da91602094610801565b835163ef05d7cb60e01b81526001600160a01b0390921690820190815233602082015281906040010390fd5b865163e985e9c560e01b81526001600160a01b0386168582019081523360208281019190915293945090929183918290819060400103917f0000000000000000000000000000000000000000000000000000000000000000165afa9182156104cc579161049e575b501538806103ed565b6104bf915060203d81116104c5575b6104b781836105eb565b8101906106b0565b38610495565b503d6104ad565b8651903d90823e3d90fd5b50903461014d578160031936011261014d57517f00000000000000000000000000000000000000000000000000000000000000006001600160a01b03168152602090f35b90503461014d578160031936011261014d577f00000000000000000000000000000000000000000000000000000000000000006001600160a01b03168152602090f35b600435906001600160a01b038216820361057457565b600080fd5b602435906001600160a01b038216820361057457565b604435906001600160a01b038216820361057457565b67ffffffffffffffff81116105b957604052565b634e487b7160e01b600052604160045260246000fd5b6060810190811067ffffffffffffffff8211176105b957604052565b90601f8019910116810190811067ffffffffffffffff8211176105b957604052565b67ffffffffffffffff81116105b957601f01601f191660200190565b81601f82011215610574578035906106408261060d565b9261064e60405194856105eb565b8284526020838301011161057457816000926020809301838601378301015290565b919082519283825260005b84811061069c575050826000602080949584010152601f8019910116010190565b60208183018101518483018201520161067b565b90816020910312610574575180151581036105745790565b9192916001600160a01b0391908281163314158061077f575b610756576106f0918591610801565b9216803b156105745761072c600092918392604051948580948193637737221360e01b8352896004840152604060248401526044830190610670565b03925af1801561074a5761073e575090565b610747906105a5565b90565b6040513d6000823e3d90fd5b60405163ef05d7cb60e01b81526001600160a01b03919091166004820152336024820152604490fd5b5060405163e985e9c560e01b81526001600160a01b03821660048201523360248201526020816044817f000000000000000000000000000000000000000000000000000000000000000088165afa90811561074a576000916107e3575b50156106e1565b6107fb915060203d81116104c5576104b781836105eb565b386107dc565b9291909261080e81610965565b6040519260208401916000927f91d1777781884d03a6757a803996e38de2a42967fb37eeaca72729271025a9e29586825282604082015260408152610852816105cf565b519020946001600160a01b03927f0000000000000000000000000000000000000000000000000000000000000000841690813b1561093a57918560a49286829695816040519e8f9889976305ef2c7f60e41b8952600489015260248801521660448601521660648401528160848401525af195861561092f578495966108fe575b507f6ada868dd3058cf77a48a74489fd7963688e5464b2b0fa957ace976243270e929192169180a390565b916109297f6ada868dd3058cf77a48a74489fd7963688e5464b2b0fa957ace976243270e92936105a5565b916108d3565b6040513d84823e3d90fd5b8580fd5b90815181101561094f570160200190565b634e487b7160e01b600052603260045260246000fd5b604051610971816105cf565b602881526020810191604036843760005b6014811061099257505051902090565b6013818103908111610a5757600381901b906001600160fd1b03811603610a575760ff90818111610a575760019081811b15610a6d576001600160a01b038516901c60f0811683821603928311610a57576109f59060f41b600f60f81b16610a83565b83821b926001600160ff1b0385168503610a5757610a2d9160001a610a1a858961093e565b5360f81b6001600160f81b031916610a83565b908201809211610a5757610a459060001a918561093e565b536000198114610a5757600101610982565b634e487b7160e01b600052601160045260246000fd5b634e487b7160e01b600052601260045260246000fd5b60f81c600a811015610aaa5760300160ff8111610a575760f81b6001600160f81b03191690565b60570160ff8111610a575760f81b6001600160f81b03191690565b67ffffffffffffffff81116105b95760051b60200190565b919081101561094f5760051b81013590601e198136030182121561057457019081359167ffffffffffffffff8311610574576020018236038113610574579190565b805182101561094f5760209160051b01019056fea2646970667358221220ecf574e487c3673cd3897914f445240d6d6f3156eb403028950a1f279962900664736f6c63430008140033","linkReferences":{}},"methodIdentifiers":{"ADDR_REVERSE_NODE()":"7cf8a2eb","claim(address,address,address)":"5e1c75e1","multicall(bytes[])":"ac9650d8","node(address)":"bffbe61c","resolver()":"04f3bcec","setName(string)":"c47f0027","setNameForAddr(address,address,address,string)":"7a806d6b","sns()":"40288a98"},"id":31}