{"abi":[{"type":"constructor","inputs":[],"stateMutability":"nonpayable"},{"type":"function","name":"isApprovedForAll","inputs":[{"name":"_owner","type":"address","internalType":"address"},{"name":"operator","type":"address","internalType":"address"}],"outputs":[{"name":"","type":"bool","internalType":"bool"}],"stateMutability":"view"},{"type":"function","name":"owner","inputs":[{"name":"node","type":"bytes32","internalType":"bytes32"}],"outputs":[{"name":"","type":"address","internalType":"address"}],"stateMutability":"view"},{"type":"function","name":"recordExists","inputs":[{"name":"node","type":"bytes32","internalType":"bytes32"}],"outputs":[{"name":"","type":"bool","internalType":"bool"}],"stateMutability":"view"},{"type":"function","name":"resolver","inputs":[{"name":"node","type":"bytes32","internalType":"bytes32"}],"outputs":[{"name":"","type":"address","internalType":"address"}],"stateMutability":"view"},{"type":"function","name":"setApprovalForAll","inputs":[{"name":"operator","type":"address","internalType":"address"},{"name":"approved","type":"bool","internalType":"bool"}],"outputs":[],"stateMutability":"nonpayable"},{"type":"function","name":"setOwner","inputs":[{"name":"node","type":"bytes32","internalType":"bytes32"},{"name":"_owner","type":"address","internalType":"address"}],"outputs":[],"stateMutability":"nonpayable"},{"type":"function","name":"setRecord","inputs":[{"name":"node","type":"bytes32","internalType":"bytes32"},{"name":"_owner","type":"address","internalType":"address"},{"name":"_resolver","type":"address","internalType":"address"},{"name":"_ttl","type":"uint64","internalType":"uint64"}],"outputs":[],"stateMutability":"nonpayable"},{"type":"function","name":"setResolver","inputs":[{"name":"node","type":"bytes32","internalType":"bytes32"},{"name":"_resolver","type":"address","internalType":"address"}],"outputs":[],"stateMutability":"nonpayable"},{"type":"function","name":"setSubnodeOwner","inputs":[{"name":"node","type":"bytes32","internalType":"bytes32"},{"name":"label","type":"bytes32","internalType":"bytes32"},{"name":"_owner","type":"address","internalType":"address"}],"outputs":[{"name":"","type":"bytes32","internalType":"bytes32"}],"stateMutability":"nonpayable"},{"type":"function","name":"setSubnodeRecord","inputs":[{"name":"node","type":"bytes32","internalType":"bytes32"},{"name":"label","type":"bytes32","internalType":"bytes32"},{"name":"_owner","type":"address","internalType":"address"},{"name":"_resolver","type":"address","internalType":"address"},{"name":"_ttl","type":"uint64","internalType":"uint64"}],"outputs":[],"stateMutability":"nonpayable"},{"type":"function","name":"setTTL","inputs":[{"name":"node","type":"bytes32","internalType":"bytes32"},{"name":"_ttl","type":"uint64","internalType":"uint64"}],"outputs":[],"stateMutability":"nonpayable"},{"type":"function","name":"ttl","inputs":[{"name":"node","type":"bytes32","internalType":"bytes32"}],"outputs":[{"name":"","type":"uint64","internalType":"uint64"}],"stateMutability":"view"},{"type":"event","name":"ApprovalForAll","inputs":[{"name":"owner","type":"address","indexed":true,"internalType":"address"},{"name":"operator","type":"address","indexed":true,"internalType":"address"},{"name":"approved","type":"bool","indexed":false,"internalType":"bool"}],"anonymous":false},{"type":"event","name":"NewOwner","inputs":[{"name":"node","type":"bytes32","indexed":true,"internalType":"bytes32"},{"name":"label","type":"bytes32","indexed":true,"internalType":"bytes32"},{"name":"owner","type":"address","indexed":false,"internalType":"address"}],"anonymous":false},{"type":"event","name":"NewResolver","inputs":[{"name":"node","type":"bytes32","indexed":true,"internalType":"bytes32"},{"name":"resolver","type":"address","indexed":false,"internalType":"address"}],"anonymous":false},{"type":"event","name":"NewTTL","inputs":[{"name":"node","type":"bytes32","indexed":true,"internalType":"bytes32"},{"name":"ttl","type":"uint64","indexed":false,"internalType":"uint64"}],"anonymous":false},{"type":"event","name":"Transfer","inputs":[{"name":"node","type":"bytes32","indexed":true,"internalType":"bytes32"},{"name":"owner","type":"address","indexed":false,"internalType":"address"}],"anonymous":false},{"type":"error","name":"SNS_NotAuthorized","inputs":[{"name":"node","type":"bytes32","internalType":"bytes32"},{"name":"caller","type":"address","internalType":"address"}]}],"bytecode":{"object":"0x6080806040523461007f57600080805260208181527fad3228b676f7d3cd4284a5443f17f1962b36e491b30a40b2405849e597ba5fb580546001600160a01b03191633908117909155835290917fd4735d920b0f87494915f556dd9b54c8f309026070caea5c737245152564d2669190a260405161091d90816100858239f35b600080fdfe6080604081815260048036101561001557600080fd5b600092833560e01c9081630178b8bf146106505750806302571be31461061c57806306ab59231461057e57806314ab9038146104a757806316a25cbd146104715780631896f70a1461039d5780635b0fc9c3146103105780635ef2c7f014610270578063a22cb465146101eb578063cf4088231461012e578063e985e9c5146100dc5763f79fe538146100a757600080fd5b346100d85760203660031901126100d8573582526020828152918190205490516001600160a01b0390911615158152f35b8280fd5b50503461012a578060031936011261012a5760ff816020936100fc6106b1565b61010461069b565b6001600160a01b0391821683526001875283832091168252855220549151911615158152f35b5080fd5b5091903461012a57608036600319011261012a5782359261014d61069b565b93610156610680565b916064359367ffffffffffffffff851685036101e7578286528560205260018060a01b0381872054163381141590816101c7575b506101a757505061019f6101a49495826106ef565b610745565b80f35b51634d3dd7df60e11b815290810182815233602082015281906040010390fd5b90508652600160205280862033875260205260ff8187205416153861018a565b8580fd5b50503461012a578060031936011261012a576102056106b1565b906024359081151580920361026c5733845260016020528084209260018060a01b03169283855260205280842060ff1981541660ff8416179055519081527f17307eab39ab6107e8899845ad3d59bd9653f200f220920489ca2b5937696c3160203392a380f35b8380fd5b5091903461012a5760a036600319011261012a5782359261028f610680565b936001600160a01b0392606435929084841684036101e7576084359467ffffffffffffffff8616860361030c578387528660205281872054163381141590816102ec575b506101a75750506101a4939461019f9160243590610843565b90508652600160205280862033875260205260ff818720541615386102d3565b8680fd5b5091903461012a578060031936011261012a57823561032d61069b565b918184528360205260018060a01b03818520541633811415908161037d575b5061035c5750906101a4916106ef565b51634d3dd7df60e11b81528085019182523360208301529081906040010390fd5b90508452600160205280842033855260205260ff8185205416153861034c565b5090346100d857806003193601126100d85781356103b961069b565b928185528460205260018060a01b0390818487205416338114159081610451575b50610430575090807f335721b01866dc23fbee8b6b2c7b1e14d6f05c28cd35a2c934239f94095602a06020859460019651971696878152a2845283602052832001906001600160601b0360a01b82541617905580f35b8351634d3dd7df60e11b815290810183815233602082015281906040010390fd5b90508652600160205283862033875260205260ff848720541615386103da565b50346100d85760203660031901126100d85760018260209467ffffffffffffffff9335815280865220015460a01c169051908152f35b5090346100d857806003193601126100d85781356024359267ffffffffffffffff8416908185036101e7578286528560205260018060a01b03848720541633811415908161055e575b50610430575091816001927f1d4f9bbfc9cab89d66e1a1562f2233ccbf1308cb4f63de2ead5787adddb8fa6860206101a497968551908152a285526020859052842001805467ffffffffffffffff60a01b191660a09290921b67ffffffffffffffff60a01b16919091179055565b90508652600160205283862033875260205260ff848720541615386104f0565b50346100d85760603660031901126100d85780359061059b610680565b93828152806020528360018060a01b038183205416913383141592836105fc575b5050506105db57506020926105d49160243590610843565b9051908152f35b9151634d3dd7df60e11b815291820190815233602082015281906040010390fd5b60ff935081526001602052818120338252602052205416158338806105bc565b50913461064d57602036600319011261064d575061063c602092356106c7565b90516001600160a01b039091168152f35b80fd5b929190503461026c57602036600319011261026c5735835260208381529220600101546001600160a01b03168152f35b604435906001600160a01b038216820361069657565b600080fd5b602435906001600160a01b038216820361069657565b600435906001600160a01b038216820361069657565b6000908152602081905260409020546001600160a01b03163081146106e95790565b50600090565b807fd4735d920b0f87494915f556dd9b54c8f309026070caea5c737245152564d26660206040519460018060a01b031694858152a260005260006020526040600020906001600160601b0360a01b825416179055565b919060406001918460009181835282602052848484200190815490868060a01b0380911690821681036107ff575b50505081528060205220019067ffffffffffffffff80835460a01c169082169081036107a0575b50505050565b825467ffffffffffffffff60a01b191660a09290921b67ffffffffffffffff60a01b16919091179091557f1d4f9bbfc9cab89d66e1a1562f2233ccbf1308cb4f63de2ead5787adddb8fa6890602090604051908152a23880808061079a565b7f335721b01866dc23fbee8b6b2c7b1e14d6f05c28cd35a2c934239f94095602a092816020936001600160601b0360a01b161790558551908152a284388080610773565b90604051916020830181815282604085015260408452606084019380851067ffffffffffffffff8611176108d15760408590525190206001600160a01b03909416808452927fce0457fe73731f824cc272376169235128c118b49d344817417c6d108d155e8290602090a38160005260006020526040600020906001600160601b0360a01b82541617905590565b634e487b7160e01b600052604160045260246000fdfea2646970667358221220428a368bd4fdb72e84e024215719ace31298b63db56380709d74db6874c5c22c64736f6c63430008140033","linkReferences":{}},"methodIdentifiers":{"isApprovedForAll(address,address)":"e985e9c5","owner(bytes32)":"02571be3","recordExists(bytes32)":"f79fe538","resolver(bytes32)":"0178b8bf","setApprovalForAll(address,bool)":"a22cb465","setOwner(bytes32,address)":"5b0fc9c3","setRecord(bytes32,address,address,uint64)":"cf408823","setResolver(bytes32,address)":"1896f70a","setSubnodeOwner(bytes32,bytes32,address)":"06ab5923","setSubnodeRecord(bytes32,bytes32,address,address,uint64)":"5ef2c7f0","setTTL(bytes32,uint64)":"14ab9038","ttl(bytes32)":"16a25cbd"},"id":42}