{"abi":[{"type":"constructor","inputs":[],"stateMutability":"nonpayable"},{"type":"function","name":"isApprovedForAll","inputs":[{"name":"_owner","type":"address","internalType":"address"},{"name":"operator","type":"address","internalType":"address"}],"outputs":[{"name":"","type":"bool","internalType":"bool"}],"stateMutability":"view"},{"type":"function","name":"owner","inputs":[{"name":"node","type":"bytes32","internalType":"bytes32"}],"outputs":[{"name":"","type":"address","internalType":"address"}],"stateMutability":"view"},{"type":"function","name":"recordExists","inputs":[{"name":"node","type":"bytes32","internalType":"bytes32"}],"outputs":[{"name":"","type":"bool","internalType":"bool"}],"stateMutability":"view"},{"type":"function","name":"resolver","inputs":[{"name":"node","type":"bytes32","internalType":"bytes32"}],"outputs":[{"name":"","type":"address","internalType":"address"}],"stateMutability":"view"},{"type":"function","name":"setApprovalForAll","inputs":[{"name":"operator","type":"address","internalType":"address"},{"name":"approved","type":"bool","internalType":"bool"}],"outputs":[],"stateMutability":"nonpayable"},{"type":"function","name":"setOwner","inputs":[{"name":"node","type":"bytes32","internalType":"bytes32"},{"name":"_owner","type":"address","internalType":"address"}],"outputs":[],"stateMutability":"nonpayable"},{"type":"function","name":"setRecord","inputs":[{"name":"node","type":"bytes32","internalType":"bytes32"},{"name":"_owner","type":"address","internalType":"address"},{"name":"_resolver","type":"address","internalType":"address"},{"name":"_ttl","type":"uint64","internalType":"uint64"}],"outputs":[],"stateMutability":"nonpayable"},{"type":"function","name":"setResolver","inputs":[{"name":"node","type":"bytes32","internalType":"bytes32"},{"name":"_resolver","type":"address","internalType":"address"}],"outputs":[],"stateMutability":"nonpayable"},{"type":"function","name":"setSubnodeOwner","inputs":[{"name":"node","type":"bytes32","internalType":"bytes32"},{"name":"label","type":"bytes32","internalType":"bytes32"},{"name":"_owner","type":"address","internalType":"address"}],"outputs":[{"name":"","type":"bytes32","internalType":"bytes32"}],"stateMutability":"nonpayable"},{"type":"function","name":"setSubnodeRecord","inputs":[{"name":"node","type":"bytes32","internalType":"bytes32"},{"name":"label","type":"bytes32","internalType":"bytes32"},{"name":"_owner","type":"address","internalType":"address"},{"name":"_resolver","type":"address","internalType":"address"},{"name":"_ttl","type":"uint64","internalType":"uint64"}],"outputs":[],"stateMutability":"nonpayable"},{"type":"function","name":"setTTL","inputs":[{"name":"node","type":"bytes32","internalType":"bytes32"},{"name":"_ttl","type":"uint64","internalType":"uint64"}],"outputs":[],"stateMutability":"nonpayable"},{"type":"function","name":"ttl","inputs":[{"name":"node","type":"bytes32","internalType":"bytes32"}],"outputs":[{"name":"","type":"uint64","internalType":"uint64"}],"stateMutability":"view"},{"type":"event","name":"ApprovalForAll","inputs":[{"name":"owner","type":"address","indexed":true,"internalType":"address"},{"name":"operator","type":"address","indexed":true,"internalType":"address"},{"name":"approved","type":"bool","indexed":false,"internalType":"bool"}],"anonymous":false},{"type":"event","name":"NewOwner","inputs":[{"name":"node","type":"bytes32","indexed":true,"internalType":"bytes32"},{"name":"label","type":"bytes32","indexed":true,"internalType":"bytes32"},{"name":"owner","type":"address","indexed":false,"internalType":"address"}],"anonymous":false},{"type":"event","name":"NewResolver","inputs":[{"name":"node","type":"bytes32","indexed":true,"internalType":"bytes32"},{"name":"resolver","type":"address","indexed":false,"internalType":"address"}],"anonymous":false},{"type":"event","name":"NewTTL","inputs":[{"name":"node","type":"bytes32","indexed":true,"internalType":"bytes32"},{"name":"ttl","type":"uint64","indexed":false,"internalType":"uint64"}],"anonymous":false},{"type":"event","name":"Transfer","inputs":[{"name":"node","type":"bytes32","indexed":true,"internalType":"bytes32"},{"name":"owner","type":"address","indexed":false,"internalType":"address"}],"anonymous":false}],"bytecode":{"object":"0x6080806040523461004f5760008080526020527fad3228b676f7d3cd4284a5443f17f1962b36e491b30a40b2405849e597ba5fb580546001600160a01b031916331790556108a690816100558239f35b600080fdfe6080604081815260048036101561001557600080fd5b600092833560e01c9081630178b8bf146105975750806302571be31461056357806306ab5923146104f257806314ab90381461041c57806316a25cbd146103e65780631896f70a146103385780635b0fc9c3146102cc5780635ef2c7f014610250578063a22cb465146101cb578063cf4088231461012e578063e985e9c5146100dc5763f79fe538146100a757600080fd5b346100d85760203660031901126100d8573582526020828152918190205490516001600160a01b0390911615158152f35b8280fd5b50503461012a578060031936011261012a5760ff816020936100fc6105f8565b6101046105e2565b6001600160a01b0391821683526001875283832091168252855220549151911615158152f35b5080fd5b50346100d85760803660031901126100d857359061014a6105e2565b916101536105c7565b906064359267ffffffffffffffff841684036101c7576101a59461019a6101a0928489528860205260018060a01b03818a205416903382149182156101a8575b505061060e565b82610678565b6106ce565b80f35b60ff92508a526001602052808a20338b52602052892054163880610193565b8580fd5b50503461012a578060031936011261012a576101e56105f8565b906024359081151580920361024c5733845260016020528084209260018060a01b03169283855260205280842060ff1981541660ff8416179055519081527f17307eab39ab6107e8899845ad3d59bd9653f200f220920489ca2b5937696c3160203392a380f35b8380fd5b50346100d85760a03660031901126100d8573561026b6105c7565b6001600160a01b03926064359184831683036101c7576084359367ffffffffffffffff851685036102c8576102bf6101a0936101a597838a5289602052818a205416903382149182156101a857505061060e565b602435906107cc565b8680fd5b5090346100d857806003193601126100d8576101a591356103146102ee6105e2565b928286528560205260018060a01b0381872054169033821491821561031957505061060e565b610678565b60ff925087526001602052808720338852602052862054163880610193565b50346100d857816003193601126100d85760019035916103566105e2565b9280855284602052807f335721b01866dc23fbee8b6b2c7b1e14d6f05c28cd35a2c934239f94095602a06020858060a01b0380868a20541633811480156103c9575b6103a2915061060e565b8551971696878152a2845283602052832001906001600160601b0360a01b82541617905580f35b508952868252858920338a5282526103a260ff878b205416610398565b50346100d85760203660031901126100d85760018260209467ffffffffffffffff9335815280865220015460a01c169051908152f35b50346100d857816003193601126100d85735906024359067ffffffffffffffff8216908183036104ee5783807f1d4f9bbfc9cab89d66e1a1562f2233ccbf1308cb4f63de2ead5787adddb8fa6860206001956101a5988a52898252868060a01b03868b20541633811480156104d1575b610496915061060e565b8551908152a285526020859052842001805467ffffffffffffffff60a01b191660a09290921b67ffffffffffffffff60a01b16919091179055565b508a52868252858a20338b52825261049660ff878c20541661048c565b8480fd5b50346100d85760603660031901126100d85760209261053f91356102bf6105176105c7565b928281528087528560018060a01b03818320541691338314928315610546575b50505061060e565b9051908152f35b60ff93508152600189528181203382528952205416853880610537565b509134610594576020366003190112610594575061058360209235610650565b90516001600160a01b039091168152f35b80fd5b929190503461024c57602036600319011261024c5735835260208381529220600101546001600160a01b03168152f35b604435906001600160a01b03821682036105dd57565b600080fd5b602435906001600160a01b03821682036105dd57565b600435906001600160a01b03821682036105dd57565b1561061557565b60405162461bcd60e51b815260206004820152601360248201527214d394ce88139bdd08185d5d1a1bdc9a5cd959606a1b6044820152606490fd5b6000908152602081905260409020546001600160a01b03163081146106725790565b50600090565b807fd4735d920b0f87494915f556dd9b54c8f309026070caea5c737245152564d26660206040519460018060a01b031694858152a260005260006020526040600020906001600160601b0360a01b825416179055565b919060406001918460009181835282602052848484200190815490868060a01b038091169082168103610788575b50505081528060205220019067ffffffffffffffff80835460a01c16908216908103610729575b50505050565b825467ffffffffffffffff60a01b191660a09290921b67ffffffffffffffff60a01b16919091179091557f1d4f9bbfc9cab89d66e1a1562f2233ccbf1308cb4f63de2ead5787adddb8fa6890602090604051908152a238808080610723565b7f335721b01866dc23fbee8b6b2c7b1e14d6f05c28cd35a2c934239f94095602a092816020936001600160601b0360a01b161790558551908152a2843880806106fc565b90604051916020830181815282604085015260408452606084019380851067ffffffffffffffff86111761085a5760408590525190206001600160a01b03909416808452927fce0457fe73731f824cc272376169235128c118b49d344817417c6d108d155e8290602090a38160005260006020526040600020906001600160601b0360a01b82541617905590565b634e487b7160e01b600052604160045260246000fdfea2646970667358221220350e7aae5bc93e6f2dfe4d396b6074f8800f154b60f1f9a9993f31e46a1daada64736f6c63430008140033","linkReferences":{}},"methodIdentifiers":{"isApprovedForAll(address,address)":"e985e9c5","owner(bytes32)":"02571be3","recordExists(bytes32)":"f79fe538","resolver(bytes32)":"0178b8bf","setApprovalForAll(address,bool)":"a22cb465","setOwner(bytes32,address)":"5b0fc9c3","setRecord(bytes32,address,address,uint64)":"cf408823","setResolver(bytes32,address)":"1896f70a","setSubnodeOwner(bytes32,bytes32,address)":"06ab5923","setSubnodeRecord(bytes32,bytes32,address,address,uint64)":"5ef2c7f0","setTTL(bytes32,uint64)":"14ab9038","ttl(bytes32)":"16a25cbd"},"id":33}