{"abi":[{"type":"constructor","inputs":[],"stateMutability":"nonpayable"},{"type":"function","name":"value","inputs":[],"outputs":[{"name":"","type":"uint256","internalType":"uint256"}],"stateMutability":"view"}],"bytecode":{"object":"0x60808060405234601957602a6000556078908161001f8239f35b600080fdfe6080806040526004361015601257600080fd5b600090813560e01c633fa4f24514602857600080fd5b34603e5781600319360112603e57602091548152f35b5080fdfea26469706673582212203c17e01182ab6e90c8eecbe6a2a3638914baddc0436d4107c9e69388eb54512664736f6c63430008140033","linkReferences":{}},"methodIdentifiers":{"value()":"3fa4f245"},"id":0}