{"abi":[{"type":"constructor","inputs":[{"name":"_sns","type":"address","internalType":"contract ISNSRegistry"}],"stateMutability":"nonpayable"},{"type":"function","name":"COIN_TYPE_ADA","inputs":[],"outputs":[{"name":"","type":"uint256","internalType":"uint256"}],"stateMutability":"view"},{"type":"function","name":"COIN_TYPE_ALGO","inputs":[],"outputs":[{"name":"","type":"uint256","internalType":"uint256"}],"stateMutability":"view"},{"type":"function","name":"COIN_TYPE_APT","inputs":[],"outputs":[{"name":"","type":"uint256","internalType":"uint256"}],"stateMutability":"view"},{"type":"function","name":"COIN_TYPE_AR","inputs":[],"outputs":[{"name":"","type":"uint256","internalType":"uint256"}],"stateMutability":"view"},{"type":"function","name":"COIN_TYPE_ARB","inputs":[],"outputs":[{"name":"","type":"uint256","internalType":"uint256"}],"stateMutability":"view"},{"type":"function","name":"COIN_TYPE_ASTR","inputs":[],"outputs":[{"name":"","type":"uint256","internalType":"uint256"}],"stateMutability":"view"},{"type":"function","name":"COIN_TYPE_ATOM","inputs":[],"outputs":[{"name":"","type":"uint256","internalType":"uint256"}],"stateMutability":"view"},{"type":"function","name":"COIN_TYPE_AVAX","inputs":[],"outputs":[{"name":"","type":"uint256","internalType":"uint256"}],"stateMutability":"view"},{"type":"function","name":"COIN_TYPE_BCH","inputs":[],"outputs":[{"name":"","type":"uint256","internalType":"uint256"}],"stateMutability":"view"},{"type":"function","name":"COIN_TYPE_BNB","inputs":[],"outputs":[{"name":"","type":"uint256","internalType":"uint256"}],"stateMutability":"view"},{"type":"function","name":"COIN_TYPE_BTC","inputs":[],"outputs":[{"name":"","type":"uint256","internalType":"uint256"}],"stateMutability":"view"},{"type":"function","name":"COIN_TYPE_CELO","inputs":[],"outputs":[{"name":"","type":"uint256","internalType":"uint256"}],"stateMutability":"view"},{"type":"function","name":"COIN_TYPE_CFX","inputs":[],"outputs":[{"name":"","type":"uint256","internalType":"uint256"}],"stateMutability":"view"},{"type":"function","name":"COIN_TYPE_CKB","inputs":[],"outputs":[{"name":"","type":"uint256","internalType":"uint256"}],"stateMutability":"view"},{"type":"function","name":"COIN_TYPE_CRO","inputs":[],"outputs":[{"name":"","type":"uint256","internalType":"uint256"}],"stateMutability":"view"},{"type":"function","name":"COIN_TYPE_DASH","inputs":[],"outputs":[{"name":"","type":"uint256","internalType":"uint256"}],"stateMutability":"view"},{"type":"function","name":"COIN_TYPE_DOGE","inputs":[],"outputs":[{"name":"","type":"uint256","internalType":"uint256"}],"stateMutability":"view"},{"type":"function","name":"COIN_TYPE_DOT","inputs":[],"outputs":[{"name":"","type":"uint256","internalType":"uint256"}],"stateMutability":"view"},{"type":"function","name":"COIN_TYPE_EGLD","inputs":[],"outputs":[{"name":"","type":"uint256","internalType":"uint256"}],"stateMutability":"view"},{"type":"function","name":"COIN_TYPE_EOS","inputs":[],"outputs":[{"name":"","type":"uint256","internalType":"uint256"}],"stateMutability":"view"},{"type":"function","name":"COIN_TYPE_ETC","inputs":[],"outputs":[{"name":"","type":"uint256","internalType":"uint256"}],"stateMutability":"view"},{"type":"function","name":"COIN_TYPE_ETH","inputs":[],"outputs":[{"name":"","type":"uint256","internalType":"uint256"}],"stateMutability":"view"},{"type":"function","name":"COIN_TYPE_FIL","inputs":[],"outputs":[{"name":"","type":"uint256","internalType":"uint256"}],"stateMutability":"view"},{"type":"function","name":"COIN_TYPE_FLOW","inputs":[],"outputs":[{"name":"","type":"uint256","internalType":"uint256"}],"stateMutability":"view"},{"type":"function","name":"COIN_TYPE_FTM","inputs":[],"outputs":[{"name":"","type":"uint256","internalType":"uint256"}],"stateMutability":"view"},{"type":"function","name":"COIN_TYPE_GLMR","inputs":[],"outputs":[{"name":"","type":"uint256","internalType":"uint256"}],"stateMutability":"view"},{"type":"function","name":"COIN_TYPE_HBAR","inputs":[],"outputs":[{"name":"","type":"uint256","internalType":"uint256"}],"stateMutability":"view"},{"type":"function","name":"COIN_TYPE_HNS","inputs":[],"outputs":[{"name":"","type":"uint256","internalType":"uint256"}],"stateMutability":"view"},{"type":"function","name":"COIN_TYPE_ICP","inputs":[],"outputs":[{"name":"","type":"uint256","internalType":"uint256"}],"stateMutability":"view"},{"type":"function","name":"COIN_TYPE_INJ","inputs":[],"outputs":[{"name":"","type":"uint256","internalType":"uint256"}],"stateMutability":"view"},{"type":"function","name":"COIN_TYPE_KAVA","inputs":[],"outputs":[{"name":"","type":"uint256","internalType":"uint256"}],"stateMutability":"view"},{"type":"function","name":"COIN_TYPE_KDA","inputs":[],"outputs":[{"name":"","type":"uint256","internalType":"uint256"}],"stateMutability":"view"},{"type":"function","name":"COIN_TYPE_KLAY","inputs":[],"outputs":[{"name":"","type":"uint256","internalType":"uint256"}],"stateMutability":"view"},{"type":"function","name":"COIN_TYPE_KSM","inputs":[],"outputs":[{"name":"","type":"uint256","internalType":"uint256"}],"stateMutability":"view"},{"type":"function","name":"COIN_TYPE_LTC","inputs":[],"outputs":[{"name":"","type":"uint256","internalType":"uint256"}],"stateMutability":"view"},{"type":"function","name":"COIN_TYPE_LUNA","inputs":[],"outputs":[{"name":"","type":"uint256","internalType":"uint256"}],"stateMutability":"view"},{"type":"function","name":"COIN_TYPE_MATIC","inputs":[],"outputs":[{"name":"","type":"uint256","internalType":"uint256"}],"stateMutability":"view"},{"type":"function","name":"COIN_TYPE_MINA","inputs":[],"outputs":[{"name":"","type":"uint256","internalType":"uint256"}],"stateMutability":"view"},{"type":"function","name":"COIN_TYPE_MIOTA","inputs":[],"outputs":[{"name":"","type":"uint256","internalType":"uint256"}],"stateMutability":"view"},{"type":"function","name":"COIN_TYPE_MOVR","inputs":[],"outputs":[{"name":"","type":"uint256","internalType":"uint256"}],"stateMutability":"view"},{"type":"function","name":"COIN_TYPE_NEAR","inputs":[],"outputs":[{"name":"","type":"uint256","internalType":"uint256"}],"stateMutability":"view"},{"type":"function","name":"COIN_TYPE_NEO","inputs":[],"outputs":[{"name":"","type":"uint256","internalType":"uint256"}],"stateMutability":"view"},{"type":"function","name":"COIN_TYPE_ONE","inputs":[],"outputs":[{"name":"","type":"uint256","internalType":"uint256"}],"stateMutability":"view"},{"type":"function","name":"COIN_TYPE_OP","inputs":[],"outputs":[{"name":"","type":"uint256","internalType":"uint256"}],"stateMutability":"view"},{"type":"function","name":"COIN_TYPE_OSMO","inputs":[],"outputs":[{"name":"","type":"uint256","internalType":"uint256"}],"stateMutability":"view"},{"type":"function","name":"COIN_TYPE_QTUM","inputs":[],"outputs":[{"name":"","type":"uint256","internalType":"uint256"}],"stateMutability":"view"},{"type":"function","name":"COIN_TYPE_ROSE","inputs":[],"outputs":[{"name":"","type":"uint256","internalType":"uint256"}],"stateMutability":"view"},{"type":"function","name":"COIN_TYPE_SEI","inputs":[],"outputs":[{"name":"","type":"uint256","internalType":"uint256"}],"stateMutability":"view"},{"type":"function","name":"COIN_TYPE_SEL","inputs":[],"outputs":[{"name":"","type":"uint256","internalType":"uint256"}],"stateMutability":"view"},{"type":"function","name":"COIN_TYPE_SOL","inputs":[],"outputs":[{"name":"","type":"uint256","internalType":"uint256"}],"stateMutability":"view"},{"type":"function","name":"COIN_TYPE_STX","inputs":[],"outputs":[{"name":"","type":"uint256","internalType":"uint256"}],"stateMutability":"view"},{"type":"function","name":"COIN_TYPE_SUI","inputs":[],"outputs":[{"name":"","type":"uint256","internalType":"uint256"}],"stateMutability":"view"},{"type":"function","name":"COIN_TYPE_THETA","inputs":[],"outputs":[{"name":"","type":"uint256","internalType":"uint256"}],"stateMutability":"view"},{"type":"function","name":"COIN_TYPE_TON","inputs":[],"outputs":[{"name":"","type":"uint256","internalType":"uint256"}],"stateMutability":"view"},{"type":"function","name":"COIN_TYPE_TRX","inputs":[],"outputs":[{"name":"","type":"uint256","internalType":"uint256"}],"stateMutability":"view"},{"type":"function","name":"COIN_TYPE_VET","inputs":[],"outputs":[{"name":"","type":"uint256","internalType":"uint256"}],"stateMutability":"view"},{"type":"function","name":"COIN_TYPE_WAVES","inputs":[],"outputs":[{"name":"","type":"uint256","internalType":"uint256"}],"stateMutability":"view"},{"type":"function","name":"COIN_TYPE_XLM","inputs":[],"outputs":[{"name":"","type":"uint256","internalType":"uint256"}],"stateMutability":"view"},{"type":"function","name":"COIN_TYPE_XMR","inputs":[],"outputs":[{"name":"","type":"uint256","internalType":"uint256"}],"stateMutability":"view"},{"type":"function","name":"COIN_TYPE_XRP","inputs":[],"outputs":[{"name":"","type":"uint256","internalType":"uint256"}],"stateMutability":"view"},{"type":"function","name":"COIN_TYPE_XTZ","inputs":[],"outputs":[{"name":"","type":"uint256","internalType":"uint256"}],"stateMutability":"view"},{"type":"function","name":"COIN_TYPE_ZEC","inputs":[],"outputs":[{"name":"","type":"uint256","internalType":"uint256"}],"stateMutability":"view"},{"type":"function","name":"COIN_TYPE_ZIL","inputs":[],"outputs":[{"name":"","type":"uint256","internalType":"uint256"}],"stateMutability":"view"},{"type":"function","name":"addr","inputs":[{"name":"node","type":"bytes32","internalType":"bytes32"}],"outputs":[{"name":"","type":"address","internalType":"address"}],"stateMutability":"view"},{"type":"function","name":"addr","inputs":[{"name":"node","type":"bytes32","internalType":"bytes32"},{"name":"coinType","type":"uint256","internalType":"uint256"}],"outputs":[{"name":"","type":"bytes","internalType":"bytes"}],"stateMutability":"view"},{"type":"function","name":"contenthash","inputs":[{"name":"node","type":"bytes32","internalType":"bytes32"}],"outputs":[{"name":"","type":"bytes","internalType":"bytes"}],"stateMutability":"view"},{"type":"function","name":"getAddresses","inputs":[{"name":"node","type":"bytes32","internalType":"bytes32"},{"name":"coinTypes","type":"uint256[]","internalType":"uint256[]"}],"outputs":[{"name":"addresses","type":"bytes[]","internalType":"bytes[]"}],"stateMutability":"view"},{"type":"function","name":"getTexts","inputs":[{"name":"node","type":"bytes32","internalType":"bytes32"},{"name":"keys","type":"string[]","internalType":"string[]"}],"outputs":[{"name":"values","type":"string[]","internalType":"string[]"}],"stateMutability":"view"},{"type":"function","name":"multicall","inputs":[{"name":"data","type":"bytes[]","internalType":"bytes[]"}],"outputs":[{"name":"results","type":"bytes[]","internalType":"bytes[]"}],"stateMutability":"nonpayable"},{"type":"function","name":"name","inputs":[{"name":"node","type":"bytes32","internalType":"bytes32"}],"outputs":[{"name":"","type":"string","internalType":"string"}],"stateMutability":"view"},{"type":"function","name":"setAddr","inputs":[{"name":"node","type":"bytes32","internalType":"bytes32"},{"name":"coinType","type":"uint256","internalType":"uint256"},{"name":"a","type":"bytes","internalType":"bytes"}],"outputs":[],"stateMutability":"nonpayable"},{"type":"function","name":"setAddr","inputs":[{"name":"node","type":"bytes32","internalType":"bytes32"},{"name":"a","type":"address","internalType":"address"}],"outputs":[],"stateMutability":"nonpayable"},{"type":"function","name":"setContenthash","inputs":[{"name":"node","type":"bytes32","internalType":"bytes32"},{"name":"hash","type":"bytes","internalType":"bytes"}],"outputs":[],"stateMutability":"nonpayable"},{"type":"function","name":"setName","inputs":[{"name":"node","type":"bytes32","internalType":"bytes32"},{"name":"newName","type":"string","internalType":"string"}],"outputs":[],"stateMutability":"nonpayable"},{"type":"function","name":"setText","inputs":[{"name":"node","type":"bytes32","internalType":"bytes32"},{"name":"key","type":"string","internalType":"string"},{"name":"value","type":"string","internalType":"string"}],"outputs":[],"stateMutability":"nonpayable"},{"type":"function","name":"sns","inputs":[],"outputs":[{"name":"","type":"address","internalType":"contract ISNSRegistry"}],"stateMutability":"view"},{"type":"function","name":"supportsInterface","inputs":[{"name":"interfaceId","type":"bytes4","internalType":"bytes4"}],"outputs":[{"name":"","type":"bool","internalType":"bool"}],"stateMutability":"pure"},{"type":"function","name":"text","inputs":[{"name":"node","type":"bytes32","internalType":"bytes32"},{"name":"key","type":"string","internalType":"string"}],"outputs":[{"name":"","type":"string","internalType":"string"}],"stateMutability":"view"},{"type":"event","name":"AddrChanged","inputs":[{"name":"node","type":"bytes32","indexed":true,"internalType":"bytes32"},{"name":"addr","type":"address","indexed":false,"internalType":"address"}],"anonymous":false},{"type":"event","name":"AddressChanged","inputs":[{"name":"node","type":"bytes32","indexed":true,"internalType":"bytes32"},{"name":"coinType","type":"uint256","indexed":false,"internalType":"uint256"},{"name":"newAddress","type":"bytes","indexed":false,"internalType":"bytes"}],"anonymous":false},{"type":"event","name":"ContenthashChanged","inputs":[{"name":"node","type":"bytes32","indexed":true,"internalType":"bytes32"},{"name":"hash","type":"bytes","indexed":false,"internalType":"bytes"}],"anonymous":false},{"type":"event","name":"NameChanged","inputs":[{"name":"node","type":"bytes32","indexed":true,"internalType":"bytes32"},{"name":"name","type":"string","indexed":false,"internalType":"string"}],"anonymous":false},{"type":"event","name":"TextChanged","inputs":[{"name":"node","type":"bytes32","indexed":true,"internalType":"bytes32"},{"name":"indexedKey","type":"string","indexed":true,"internalType":"string"},{"name":"key","type":"string","indexed":false,"internalType":"string"},{"name":"value","type":"string","indexed":false,"internalType":"string"}],"anonymous":false}],"bytecode":{"object":"0x60a03461007157601f61208038819003918201601f19168301916001600160401b038311848410176100765780849260209460405283398101031261007157516001600160a01b038116810361007157608052604051611ff3908161008d8239608051818181610cdc0152611a320152f35b600080fd5b634e487b7160e01b600052604160045260246000fdfe6080604052600436101561001257600080fd5b60003560e01c806301ffc9a7146104f257806303b1f68a146104ed5780630565c7db146104e857806309dcd367146104e35780630af75e2a146104de5780630c6b411c146104d95780630d5f4ff8146104d457806310f13a8c146104cf5780631bce58da146104ca57806321d35e86146104c557806325767afd146104c0578063263910af146104bb5780632fdbcc1d146104b657806330242e72146104b1578063304e6ade146104ac578063368c0076146104a75780633a6b11d3146104a25780633ac2f5c71461049d5780633b3b57de146104985780633b9f53b51461049357806340288a981461048e57806348a905141461048957806349e04387146104845780634d681b791461047f5780634ef913ea1461047a578063534645bc146104755780635417a0e31461047057806354653ba51461046b57806358e3819b1461046657806359d1d43c146104615780635a00e8911461045c5780635d1d0455146104575780636018421214610452578063603ec14114610452578063646b9f661461044d57806366b3e3061461044857806367768ed81461044357806368209e721461043e578063691f3431146104395780636ade83dd146104345780636df41bb21461042f578063717e79a91461042a57806372f67c3f14610425578063773722131461042057806377626d051461041b57806379a2cb77146104165780637e28405214610411578063834f4ad71461040c5780638b935408146104075780638b95dd7114610402578063939e3fe6146103fd5780639eb12c3b146103f8578063a0c97593146103f3578063ac9650d8146103ee578063ad204a21146103e9578063b12c2f02146103e4578063b70c3547146103df578063ba1eae1e146103da578063bbb70382146103d5578063bc1c58d1146103d0578063c24bee3b146103cb578063c8a52a86146103c6578063c98af705146103c1578063cec7b3a3146103bc578063d165966b146103b7578063d2bfb52e146103b2578063d546d167146103ad578063d5fa2b00146103a8578063dea76099146103a3578063e3c334e01461039e578063e51c565c14610399578063e5f9443514610394578063e96a65041461038f578063ecaa91b51461038a578063ee4fa94f14610385578063f1cb7e0614610380578063f5d87aff1461037b5763f928bec41461037657600080fd5b6118a6565b611889565b611845565b611828565b61180c565b6117f0565b6117d4565b6117b7565b61179a565b61177d565b61158b565b61155d565b611540565b611523565b611507565b6114ea565b6114cd565b6114b0565b61147a565b61145d565b611440565b611421565b611404565b6113e7565b61132b565b61130e565b6112f1565b6112d4565b61125a565b6111d1565b6111b4565b611197565b61117b565b61115e565b611047565b61102a565b61100d565b610ff0565b610fd1565b610f9b565b610f7e565b610f61565b610f45565b610f29565b610f0c565b610eef565b610ed2565b610e83565b610e65565b610e49565b610e2c565b610d7d565b610d61565b610d44565b610d27565b610d0b565b610cc6565b610ca9565b610c79565b610c5c565b610c40565b610c23565b610ad8565b610a8c565b610a6f565b610a53565b610a37565b610a1a565b6109fd565b610852565b610808565b6107eb565b6107cf565b610741565b61061f565b610601565b346105fc5760203660031901126105fc5760043563ffffffff60e01b81168091036105fc57610571906301ffc9a760e01b81149081156105eb575b81156105da575b81156105c9575b81156105b8575b81156105a7575b8115610596575b8115610586575b8115610575575b5060405190151581529081906020820190565b0390f35b638b95dd7160e01b1490503861055e565b62d5fa2b60e81b81149150610557565b631592ca1b60e31b81149150610550565b63691f343160e01b81149150610549565b63bc1c58d160e01b81149150610542565b631674750f60e21b8114915061053b565b6378e5bf0360e11b81149150610534565b631d9dabef60e11b8114915061052d565b600080fd5b346105fc5760003660031901126105fc57602060405162579bfc8152f35b346105fc5760003660031901126105fc57602060405161107a8152f35b9181601f840112156105fc578235916001600160401b0383116105fc576020808501948460051b0101116105fc57565b9060406003198301126105fc5760043591602435906001600160401b0382116105fc5761069b9160040161063c565b9091565b919082519283825260005b8481106106cb575050826000602080949584010152601f8019910116010190565b6020818301810151848301820152016106aa565b602080820190808352835180925260408301928160408460051b8301019501936000915b8483106107135750505050505090565b9091929394958480610731600193603f198682030187528a5161069f565b9801930193019194939290610703565b346105fc5761074f3661066c565b9061075982611e4b565b9260005b838110610772576040518061057187826106df565b6107ca90826000526107a86107af60206000815260409081600020908560051b8901356000525280600020905192838092611cbb565b038261121e565b6107b98288611f5b565b526107c48187611f5b565b50611e82565b61075d565b346105fc5760003660031901126105fc576020604051603d8152f35b346105fc5760003660031901126105fc5760206040516103ff8152f35b346105fc5760003660031901126105fc5760206040516107178152f35b9181601f840112156105fc578235916001600160401b0383116105fc57602083818601950101116105fc57565b346105fc5760603660031901126105fc576004356001600160401b036024358181116105fc57610886903690600401610825565b926044358381116105fc5761089f903690600401610825565b9490926108b36108ae84611a13565b6118c3565b600094838652600160208181526108ce604089208686611d90565b9289116109f8576108e9896108e3855461191a565b85611954565b8790601f8a116001146109645750918880899a93610953957f448bc014f1536726cf8d54ff3d6481ed3cbc683c2591ca204274009afa09b1a1999a9b93610959575b501b906000198460031b1c19161790555b6109468484611da9565b9660405194859485611ddf565b0390a380f35b8b013592503861092b565b90601f198a1661097985600052602060002090565b928a905b8282106109e1575050918a93917f448bc014f1536726cf8d54ff3d6481ed3cbc683c2591ca204274009afa09b1a198999a9b6109539694106109c7575b505082811b01905561093c565b8a0135600019600386901b60f8161c1916905538806109ba565b808685968294968e0135815501950193019061097d565b6111ed565b346105fc5760003660031901126105fc5760206040516102ca8152f35b346105fc5760003660031901126105fc5760206040516103108152f35b346105fc5760003660031901126105fc57602060405160768152f35b346105fc5760003660031901126105fc57602060405160028152f35b346105fc5760003660031901126105fc5760206040516105058152f35b346105fc5760003660031901126105fc5760206040516114e98152f35b9060406003198301126105fc5760043591602435906001600160401b0382116105fc5761069b91600401610825565b346105fc57610ae636610aa9565b9091610af46108ae82611a13565b60009181835260209360028552604084206001600160401b0383116109f857610b2783610b21835461191a565b83611954565b8495601f8411600114610b9557508285967fe379c1624ed7e714cc0937528a32359d69d5281337765313dba4e081b72d7578959691610b8a575b508360011b906000198560031b1c19161790555b610b8460405192839283611e06565b0390a280f35b905082013538610b61565b601f19841696610baa83600052602060002090565b9187905b898210610c0b575050847fe379c1624ed7e714cc0937528a32359d69d5281337765313dba4e081b72d757896979810610bf1575b5050600183811b019055610b75565b830135600019600386901b60f8161c191690553880610be2565b80600184958294958901358155019401920190610bae565b346105fc5760003660031901126105fc5760206040516105048152f35b346105fc5760003660031901126105fc57602060405160918152f35b346105fc5760003660031901126105fc5760206040516101d88152f35b346105fc5760203660031901126105fc576020610c97600435611d51565b6040516001600160a01b039091168152f35b346105fc5760003660031901126105fc5760206040516101398152f35b346105fc5760003660031901126105fc576040517f00000000000000000000000000000000000000000000000000000000000000006001600160a01b03168152602090f35b346105fc5760003660031901126105fc57602060405160058152f35b346105fc5760003660031901126105fc5760206040516102728152f35b346105fc5760003660031901126105fc57602060405161018d8152f35b346105fc5760003660031901126105fc57602060405160808152f35b346105fc57610d8b3661066c565b610d9781939293611e17565b91604091610da78351948561121e565b808452601f19610db682611e17565b01610dc5602091828701611e2e565b600090815b838110610dde5785518061057189826106df565b610e2790858452600183526107a8610e12610e078b610e01858a8d8b2093611ebd565b90611d90565b895192838092611cbb565b610e1c828a611f5b565b526107c48189611f5b565b610dca565b346105fc5760003660031901126105fc5760206040516101f78152f35b346105fc5760003660031901126105fc57602060405160c38152f35b346105fc5760003660031901126105fc576020604051629896f68152f35b346105fc576105716107a8610ebe610eb2610e9d36610aa9565b90916000526001602052604060002091611d90565b60405192838092611cbb565b60405191829160208352602083019061069f565b346105fc5760003660031901126105fc57602060405161018a8152f35b346105fc5760003660031901126105fc5760206040516101b28152f35b346105fc5760003660031901126105fc5760206040516101628152f35b346105fc5760003660031901126105fc57602060405160c28152f35b346105fc5760003660031901126105fc57602060405160858152f35b346105fc5760003660031901126105fc5760206040516101f58152f35b346105fc5760003660031901126105fc5760206040516103ef8152f35b346105fc5760203660031901126105fc5760043560005260036020526105716107a8610ebe604060002060405192838092611cbb565b346105fc5760003660031901126105fc57602060405163014fb1f78152f35b346105fc5760003660031901126105fc5760206040516108fd8152f35b346105fc5760003660031901126105fc5760206040516103c68152f35b346105fc5760003660031901126105fc57602060405161ce108152f35b346105fc5761105536610aa9565b90916110636108ae82611a13565b60009181835260209360038552604084206001600160401b0383116109f85761109083610b21835461191a565b8495601f84116001146110eb57508285967fb7d29e911041e8d9b843369e890bcb72c9388692ba48b65ac54e7214c4c348f7959691610b8a57508360011b906000198560031b1c1916179055610b8460405192839283611e06565b601f1984169661110083600052602060002090565b9187905b898210611146575050847fb7d29e911041e8d9b843369e890bcb72c9388692ba48b65ac54e7214c4c348f796979810610bf1575050600183811b019055610b75565b80600184958294958901358155019401920190611104565b346105fc5760003660031901126105fc5760206040516102668152f35b346105fc5760003660031901126105fc57602060405160008152f35b346105fc5760003660031901126105fc5760206040516103328152f35b346105fc5760003660031901126105fc5760206040516101cb8152f35b346105fc5760003660031901126105fc57602060405160df8152f35b634e487b7160e01b600052604160045260246000fd5b604081019081106001600160401b038211176109f857604052565b90601f801991011681019081106001600160401b038211176109f857604052565b6001600160401b0381116109f857601f01601f191660200190565b346105fc5760603660031901126105fc576044356001600160401b0381116105fc57366023820112156105fc5780600401356112958161123f565b906112a3604051928361121e565b80825236602482850101116105fc5760208160009260246112d296018386013783010152602435600435611b31565b005b346105fc5760003660031901126105fc576020604051610bd68152f35b346105fc5760003660031901126105fc57602060405161312a8152f35b346105fc5760003660031901126105fc5760206040516101fc8152f35b346105fc576020806003193601126105fc576004356001600160401b0381116105fc5761135c90369060040161063c565b9161136683611e4b565b9260005b81811061137f576040518061057187826106df565b806000806113916113d5948689611ebd565b60409391818551928392833781018381520390305af43d156113da576107af903d6113c76113be8261123f565b9451948561121e565b83523d60008885013e611f03565b61136a565b90506107af606091611f03565b346105fc5760003660031901126105fc5760206040516101f48152f35b346105fc5760003660031901126105fc57602060405161032a8152f35b346105fc5760003660031901126105fc576020604051630121eb368152f35b346105fc5760003660031901126105fc57602060405161027d8152f35b346105fc5760003660031901126105fc5760206040516120198152f35b346105fc5760203660031901126105fc5760043560005260026020526105716107a8610ebe604060002060405192838092611cbb565b346105fc5760003660031901126105fc5760206040516123288152f35b346105fc5760003660031901126105fc57602060405161021b8152f35b346105fc5760003660031901126105fc5760206040516103788152f35b346105fc5760003660031901126105fc57602060405160038152f35b346105fc5760003660031901126105fc57602060405161025f8152f35b346105fc5760003660031901126105fc5760206040516106c18152f35b346105fc5760003660031901126105fc5760206040516101da8152f35b6001600160a01b038116036105fc57565b346105fc576040806003193601126105fc57600435602435916115ad8361157a565b6115b96108ae83611a13565b80519060206bffffffffffffffffffffffff198560601b1681840152601483526115e283611203565b600094848652858252828620603c8752825282862084516001600160401b0381116109f8578693611617826108e3855461191a565b80601f83116001146116c05750610b8495937f65412581168e88a1e60c6459d7f44ae83ad0832e670826c05a4e2476b57af752979593837f52d7d861f09ab3d26239d492e8968629f95e9e318cf0b73bfddc441522a15fd2946116a8948d916116b5575b508160011b916000199060031b1c19161790555b84516001600160a01b0390911681529081906020820190565b0390a251918291826119a8565b90508801513861167b565b90601f1983166116d585600052602060002090565b928b905b828210611761575050936001846116a894610b849a98947f52d7d861f09ab3d26239d492e8968629f95e9e318cf0b73bfddc441522a15fd2977f65412581168e88a1e60c6459d7f44ae83ad0832e670826c05a4e2476b57af7529d9b9910611748575b5050811b01905561168f565b8a015160001960f88460031b161c19169055388061173c565b838b015185558b985060019094019392830192908101906116d9565b346105fc5760003660031901126105fc57602060405161167d8152f35b346105fc5760003660031901126105fc5760206040516123298152f35b346105fc5760003660031901126105fc57602060405161014a8152f35b346105fc5760003660031901126105fc57602060405160948152f35b346105fc5760003660031901126105fc576020604051603c8152f35b346105fc5760003660031901126105fc57602060405160908152f35b346105fc5760003660031901126105fc57602060405161011b8152f35b346105fc5760403660031901126105fc57600435600052600060205260406000206024356000526020526105716107a8610ebe604060002060405192838092611cbb565b346105fc5760003660031901126105fc5760206040516101cd8152f35b346105fc5760003660031901126105fc5760206040516101358152f35b156118ca57565b60405162461bcd60e51b815260206004820152602260248201527f4d756c7469436861696e5265736f6c7665723a204e6f7420617574686f726973604482015261195960f21b6064820152608490fd5b90600182811c9216801561194a575b602083101461193457565b634e487b7160e01b600052602260045260246000fd5b91607f1691611929565b90601f811161196257505050565b600091825260208220906020601f850160051c8301941061199e575b601f0160051c01915b82811061199357505050565b818155600101611987565b909250829061197e565b9060406119c092603c8152816020820152019061069f565b90565b6040906119c093928152816020820152019061069f565b908160209103126105fc57516119c08161157a565b6040513d6000823e3d90fd5b908160209103126105fc575180151581036105fc5790565b6040516302571be360e01b815260048101919091526001600160a01b037f0000000000000000000000000000000000000000000000000000000000000000811691906020908183602481875afa928315611afd57600093611b02575b5082163314918215611a83575b5050905090565b60405163e985e9c560e01b81526001600160a01b0391909116600482015233602482015290929091508290829060449082905afa918215611afd57600092611ad0575b5050803880611a7c565b611aef9250803d10611af6575b611ae7818361121e565b8101906119fb565b3880611ac6565b503d611add565b6119ef565b611b23919350823d8411611b2a575b611b1b818361121e565b8101906119da565b9138611a6f565b503d611b11565b9190611b3f6108ae84611a13565b600090838252602082815260408320828452815260408320908451906001600160401b0382116109f857611b77826108e3855461191a565b80601f8311600114611c475750603c949082611c3c575b508160011b916000199060031b1c19161790555b837f65412581168e88a1e60c6459d7f44ae83ad0832e670826c05a4e2476b57af75260405180611bd38786836119c3565b0390a21480611c31575b611be5575050565b611c2c611c127f52d7d861f09ab3d26239d492e8968629f95e9e318cf0b73bfddc441522a15fd292611f6f565b6040516001600160a01b0390911681529081906020820190565b0390a2565b506014815114611bdd565b905085015138611b8e565b601f959293949519841690611c6186600052602060002090565b93905b828210611ca3575050918391603c96959460019410611c8a575b5050811b019055611ba2565b87015160001960f88460031b161c191690553880611c7e565b80600185968294968c01518155019501930190611c64565b9060009291805491611ccc8361191a565b918282526001938481169081600014611d2e5750600114611cee575b50505050565b90919394506000526020928360002092846000945b838610611d1a575050505001019038808080611ce8565b805485870183015294019385908201611d03565b9294505050602093945060ff191683830152151560051b01019038808080611ce8565b60009081528060205260408120603c82526020526107a8611d7b6040832060405192838092611cbb565b805115611d8c576119c09150611f6f565b5090565b6020919283604051948593843782019081520301902090565b81604051928392833781016000815203902090565b908060209392818452848401376000828201840152601f01601f1916010190565b9290611df8906119c09593604086526040860191611dbe565b926020818503910152611dbe565b9160206119c0938181520191611dbe565b6001600160401b0381116109f85760051b60200190565b60005b828110611e3d57505050565b606082820152602001611e31565b90611e80611e5883611e17565b611e65604051918261121e565b83815260208194611e78601f1991611e17565b019101611e2e565b565b6000198114611e915760010190565b634e487b7160e01b600052601160045260246000fd5b634e487b7160e01b600052603260045260246000fd5b9190811015611efe5760051b81013590601e19813603018212156105fc5701908135916001600160401b0383116105fc5760200182360381136105fc579190565b611ea7565b15611f0a57565b60405162461bcd60e51b8152602060048201526024808201527f4d756c7469436861696e5265736f6c7665723a204d756c746963616c6c2066616044820152631a5b195960e21b6064820152608490fd5b8051821015611efe5760209160051b010190565b6014815103611f7f576014015190565b60405162461bcd60e51b8152602060048201526016602482015275092dcecc2d8d2c840c2c8c8e4cae6e640d8cadccee8d60531b6044820152606490fdfea264697066735822122039c12c1a7fae682b086117de6ec9e1d1481b2574bbee9741453ceb25eec8b1d764736f6c63430008140033","linkReferences":{}},"methodIdentifiers":{"COIN_TYPE_ADA()":"0d5f4ff8","COIN_TYPE_ALGO()":"ee4fa94f","COIN_TYPE_APT()":"ba1eae1e","COIN_TYPE_AR()":"3ac2f5c7","COIN_TYPE_ARB()":"e3c334e0","COIN_TYPE_ASTR()":"b12c2f02","COIN_TYPE_ATOM()":"25767afd","COIN_TYPE_AVAX()":"c24bee3b","COIN_TYPE_BCH()":"3a6b11d3","COIN_TYPE_BNB()":"1bce58da","COIN_TYPE_BTC()":"79a2cb77","COIN_TYPE_CELO()":"72f67c3f","COIN_TYPE_CFX()":"5417a0e3","COIN_TYPE_CKB()":"f928bec4","COIN_TYPE_CRO()":"5a00e891","COIN_TYPE_DASH()":"48a90514","COIN_TYPE_DOGE()":"cec7b3a3","COIN_TYPE_DOT()":"603ec141","COIN_TYPE_EGLD()":"a0c97593","COIN_TYPE_EOS()":"646b9f66","COIN_TYPE_ETC()":"0af75e2a","COIN_TYPE_ETH()":"e96a6504","COIN_TYPE_FIL()":"f5d87aff","COIN_TYPE_FLOW()":"c8a52a86","COIN_TYPE_FTM()":"68209e72","COIN_TYPE_GLMR()":"368c0076","COIN_TYPE_HBAR()":"939e3fe6","COIN_TYPE_HNS()":"30242e72","COIN_TYPE_ICP()":"8b935408","COIN_TYPE_INJ()":"6ade83dd","COIN_TYPE_KAVA()":"834f4ad7","COIN_TYPE_KDA()":"49e04387","COIN_TYPE_KLAY()":"bbb70382","COIN_TYPE_KSM()":"5d1d0455","COIN_TYPE_LTC()":"263910af","COIN_TYPE_LUNA()":"e51c565c","COIN_TYPE_MATIC()":"717e79a9","COIN_TYPE_MINA()":"9eb12c3b","COIN_TYPE_MIOTA()":"0565c7db","COIN_TYPE_MOVR()":"2fdbcc1d","COIN_TYPE_NEAR()":"4d681b79","COIN_TYPE_NEO()":"c98af705","COIN_TYPE_ONE()":"0c6b411c","COIN_TYPE_OP()":"77626d05","COIN_TYPE_OSMO()":"58e3819b","COIN_TYPE_QTUM()":"6df41bb2","COIN_TYPE_ROSE()":"d546d167","COIN_TYPE_SEI()":"b70c3547","COIN_TYPE_SEL()":"60184212","COIN_TYPE_SOL()":"67768ed8","COIN_TYPE_STX()":"dea76099","COIN_TYPE_SUI()":"21d35e86","COIN_TYPE_THETA()":"ad204a21","COIN_TYPE_TON()":"d165966b","COIN_TYPE_TRX()":"54653ba5","COIN_TYPE_VET()":"7e284052","COIN_TYPE_WAVES()":"03b1f68a","COIN_TYPE_XLM()":"e5f94435","COIN_TYPE_XMR()":"4ef913ea","COIN_TYPE_XRP()":"ecaa91b5","COIN_TYPE_XTZ()":"d2bfb52e","COIN_TYPE_ZEC()":"66b3e306","COIN_TYPE_ZIL()":"3b9f53b5","addr(bytes32)":"3b3b57de","addr(bytes32,uint256)":"f1cb7e06","contenthash(bytes32)":"bc1c58d1","getAddresses(bytes32,uint256[])":"09dcd367","getTexts(bytes32,string[])":"534645bc","multicall(bytes[])":"ac9650d8","name(bytes32)":"691f3431","setAddr(bytes32,address)":"d5fa2b00","setAddr(bytes32,uint256,bytes)":"8b95dd71","setContenthash(bytes32,bytes)":"304e6ade","setName(bytes32,string)":"77372213","setText(bytes32,string,string)":"10f13a8c","sns()":"40288a98","supportsInterface(bytes4)":"01ffc9a7","text(bytes32,string)":"59d1d43c"},"id":37}