{"abi":[{"type":"constructor","inputs":[{"name":"_registry","type":"address","internalType":"address"},{"name":"_baseNode","type":"bytes32","internalType":"bytes32"}],"stateMutability":"nonpayable"},{"type":"function","name":"GRACE_PERIOD","inputs":[],"outputs":[{"name":"","type":"uint256","internalType":"uint256"}],"stateMutability":"view"},{"type":"function","name":"addController","inputs":[{"name":"controller","type":"address","internalType":"address"}],"outputs":[],"stateMutability":"nonpayable"},{"type":"function","name":"approve","inputs":[{"name":"to","type":"address","internalType":"address"},{"name":"tokenId","type":"uint256","internalType":"uint256"}],"outputs":[],"stateMutability":"nonpayable"},{"type":"function","name":"available","inputs":[{"name":"id","type":"uint256","internalType":"uint256"}],"outputs":[{"name":"","type":"bool","internalType":"bool"}],"stateMutability":"view"},{"type":"function","name":"balanceOf","inputs":[{"name":"owner","type":"address","internalType":"address"}],"outputs":[{"name":"","type":"uint256","internalType":"uint256"}],"stateMutability":"view"},{"type":"function","name":"baseNode","inputs":[],"outputs":[{"name":"","type":"bytes32","internalType":"bytes32"}],"stateMutability":"view"},{"type":"function","name":"controllers","inputs":[{"name":"","type":"address","internalType":"address"}],"outputs":[{"name":"","type":"bool","internalType":"bool"}],"stateMutability":"view"},{"type":"function","name":"expiries","inputs":[{"name":"","type":"uint256","internalType":"uint256"}],"outputs":[{"name":"","type":"uint256","internalType":"uint256"}],"stateMutability":"view"},{"type":"function","name":"getApproved","inputs":[{"name":"tokenId","type":"uint256","internalType":"uint256"}],"outputs":[{"name":"","type":"address","internalType":"address"}],"stateMutability":"view"},{"type":"function","name":"isApprovedForAll","inputs":[{"name":"owner","type":"address","internalType":"address"},{"name":"operator","type":"address","internalType":"address"}],"outputs":[{"name":"","type":"bool","internalType":"bool"}],"stateMutability":"view"},{"type":"function","name":"multicall","inputs":[{"name":"data","type":"bytes[]","internalType":"bytes[]"}],"outputs":[{"name":"results","type":"bytes[]","internalType":"bytes[]"}],"stateMutability":"nonpayable"},{"type":"function","name":"name","inputs":[],"outputs":[{"name":"","type":"string","internalType":"string"}],"stateMutability":"view"},{"type":"function","name":"nameExpires","inputs":[{"name":"id","type":"uint256","internalType":"uint256"}],"outputs":[{"name":"","type":"uint256","internalType":"uint256"}],"stateMutability":"view"},{"type":"function","name":"owner","inputs":[],"outputs":[{"name":"","type":"address","internalType":"address"}],"stateMutability":"view"},{"type":"function","name":"ownerOf","inputs":[{"name":"tokenId","type":"uint256","internalType":"uint256"}],"outputs":[{"name":"","type":"address","internalType":"address"}],"stateMutability":"view"},{"type":"function","name":"reclaim","inputs":[{"name":"id","type":"uint256","internalType":"uint256"},{"name":"owner","type":"address","internalType":"address"}],"outputs":[],"stateMutability":"nonpayable"},{"type":"function","name":"register","inputs":[{"name":"id","type":"uint256","internalType":"uint256"},{"name":"owner","type":"address","internalType":"address"},{"name":"duration","type":"uint256","internalType":"uint256"}],"outputs":[{"name":"","type":"uint256","internalType":"uint256"}],"stateMutability":"nonpayable"},{"type":"function","name":"registerWithConfig","inputs":[{"name":"id","type":"uint256","internalType":"uint256"},{"name":"owner","type":"address","internalType":"address"},{"name":"duration","type":"uint256","internalType":"uint256"},{"name":"resolver","type":"address","internalType":"address"}],"outputs":[{"name":"","type":"uint256","internalType":"uint256"}],"stateMutability":"nonpayable"},{"type":"function","name":"registry","inputs":[],"outputs":[{"name":"","type":"address","internalType":"address"}],"stateMutability":"view"},{"type":"function","name":"removeController","inputs":[{"name":"controller","type":"address","internalType":"address"}],"outputs":[],"stateMutability":"nonpayable"},{"type":"function","name":"renew","inputs":[{"name":"id","type":"uint256","internalType":"uint256"},{"name":"duration","type":"uint256","internalType":"uint256"}],"outputs":[{"name":"","type":"uint256","internalType":"uint256"}],"stateMutability":"nonpayable"},{"type":"function","name":"renounceOwnership","inputs":[],"outputs":[],"stateMutability":"nonpayable"},{"type":"function","name":"safeTransferFrom","inputs":[{"name":"from","type":"address","internalType":"address"},{"name":"to","type":"address","internalType":"address"},{"name":"tokenId","type":"uint256","internalType":"uint256"}],"outputs":[],"stateMutability":"nonpayable"},{"type":"function","name":"safeTransferFrom","inputs":[{"name":"from","type":"address","internalType":"address"},{"name":"to","type":"address","internalType":"address"},{"name":"tokenId","type":"uint256","internalType":"uint256"},{"name":"data","type":"bytes","internalType":"bytes"}],"outputs":[],"stateMutability":"nonpayable"},{"type":"function","name":"setApprovalForAll","inputs":[{"name":"operator","type":"address","internalType":"address"},{"name":"approved","type":"bool","internalType":"bool"}],"outputs":[],"stateMutability":"nonpayable"},{"type":"function","name":"setResolver","inputs":[{"name":"resolver","type":"address","internalType":"address"}],"outputs":[],"stateMutability":"nonpayable"},{"type":"function","name":"supportsInterface","inputs":[{"name":"interfaceId","type":"bytes4","internalType":"bytes4"}],"outputs":[{"name":"","type":"bool","internalType":"bool"}],"stateMutability":"view"},{"type":"function","name":"symbol","inputs":[],"outputs":[{"name":"","type":"string","internalType":"string"}],"stateMutability":"view"},{"type":"function","name":"tokenURI","inputs":[{"name":"tokenId","type":"uint256","internalType":"uint256"}],"outputs":[{"name":"","type":"string","internalType":"string"}],"stateMutability":"view"},{"type":"function","name":"transferFrom","inputs":[{"name":"from","type":"address","internalType":"address"},{"name":"to","type":"address","internalType":"address"},{"name":"tokenId","type":"uint256","internalType":"uint256"}],"outputs":[],"stateMutability":"nonpayable"},{"type":"function","name":"transferOwnership","inputs":[{"name":"newOwner","type":"address","internalType":"address"}],"outputs":[],"stateMutability":"nonpayable"},{"type":"event","name":"Approval","inputs":[{"name":"owner","type":"address","indexed":true,"internalType":"address"},{"name":"approved","type":"address","indexed":true,"internalType":"address"},{"name":"tokenId","type":"uint256","indexed":true,"internalType":"uint256"}],"anonymous":false},{"type":"event","name":"ApprovalForAll","inputs":[{"name":"owner","type":"address","indexed":true,"internalType":"address"},{"name":"operator","type":"address","indexed":true,"internalType":"address"},{"name":"approved","type":"bool","indexed":false,"internalType":"bool"}],"anonymous":false},{"type":"event","name":"ControllerAdded","inputs":[{"name":"controller","type":"address","indexed":true,"internalType":"address"}],"anonymous":false},{"type":"event","name":"ControllerRemoved","inputs":[{"name":"controller","type":"address","indexed":true,"internalType":"address"}],"anonymous":false},{"type":"event","name":"NameReclaimed","inputs":[{"name":"id","type":"uint256","indexed":true,"internalType":"uint256"},{"name":"owner","type":"address","indexed":true,"internalType":"address"}],"anonymous":false},{"type":"event","name":"NameRegistered","inputs":[{"name":"id","type":"uint256","indexed":true,"internalType":"uint256"},{"name":"owner","type":"address","indexed":true,"internalType":"address"},{"name":"expires","type":"uint256","indexed":false,"internalType":"uint256"}],"anonymous":false},{"type":"event","name":"NameRenewed","inputs":[{"name":"id","type":"uint256","indexed":true,"internalType":"uint256"},{"name":"expires","type":"uint256","indexed":false,"internalType":"uint256"}],"anonymous":false},{"type":"event","name":"OwnershipTransferred","inputs":[{"name":"previousOwner","type":"address","indexed":true,"internalType":"address"},{"name":"newOwner","type":"address","indexed":true,"internalType":"address"}],"anonymous":false},{"type":"event","name":"Transfer","inputs":[{"name":"from","type":"address","indexed":true,"internalType":"address"},{"name":"to","type":"address","indexed":true,"internalType":"address"},{"name":"tokenId","type":"uint256","indexed":true,"internalType":"uint256"}],"anonymous":false},{"type":"error","name":"ERC721IncorrectOwner","inputs":[{"name":"sender","type":"address","internalType":"address"},{"name":"tokenId","type":"uint256","internalType":"uint256"},{"name":"owner","type":"address","internalType":"address"}]},{"type":"error","name":"ERC721InsufficientApproval","inputs":[{"name":"operator","type":"address","internalType":"address"},{"name":"tokenId","type":"uint256","internalType":"uint256"}]},{"type":"error","name":"ERC721InvalidApprover","inputs":[{"name":"approver","type":"address","internalType":"address"}]},{"type":"error","name":"ERC721InvalidOperator","inputs":[{"name":"operator","type":"address","internalType":"address"}]},{"type":"error","name":"ERC721InvalidOwner","inputs":[{"name":"owner","type":"address","internalType":"address"}]},{"type":"error","name":"ERC721InvalidReceiver","inputs":[{"name":"receiver","type":"address","internalType":"address"}]},{"type":"error","name":"ERC721InvalidSender","inputs":[{"name":"sender","type":"address","internalType":"address"}]},{"type":"error","name":"ERC721NonexistentToken","inputs":[{"name":"tokenId","type":"uint256","internalType":"uint256"}]},{"type":"error","name":"OwnableInvalidOwner","inputs":[{"name":"owner","type":"address","internalType":"address"}]},{"type":"error","name":"OwnableUnauthorizedAccount","inputs":[{"name":"account","type":"address","internalType":"address"}]},{"type":"error","name":"SNS_DurationOverflow","inputs":[{"name":"duration","type":"uint256","internalType":"uint256"}]},{"type":"error","name":"SNS_NameExpired","inputs":[{"name":"tokenId","type":"uint256","internalType":"uint256"},{"name":"expiry","type":"uint256","internalType":"uint256"}]},{"type":"error","name":"SNS_NameNotAvailableById","inputs":[{"name":"tokenId","type":"uint256","internalType":"uint256"}]},{"type":"error","name":"SNS_NotApprovedOrOwner","inputs":[{"name":"caller","type":"address","internalType":"address"},{"name":"tokenId","type":"uint256","internalType":"uint256"}]},{"type":"error","name":"SNS_NotController","inputs":[{"name":"caller","type":"address","internalType":"address"}]}],"bytecode":{"object":"0x60c03462000455576001600160401b0390601f90601f19620023e038819003848101831684019190868311858410176200043f578085926040948552833981010312620004555781516001600160a01b039490929085841684036200045557602080920151946200006f6200045a565b92601584527f53656c656e647261204e616d652053657276696365000000000000000000000081850152620000a36200045a565b906003825262534e5360e81b818301528451958487116200043f576000968754966001978881811c9116801562000434575b858210146200042057908187849311620003cd575b5084908783116001146200036c578a9262000360575b5050600019600383901b1c191690871b1787555b82519485116200034c5785548681811c9116801562000341575b838210146200032d57908185879695949311620002d4575b50819385116001146200026f575050859262000263575b5050600019600383901b1c191690821b1790555b33156200024b57600654903360018060a01b03198316176006557f8be0079c531659141344cd1fd0a4f28419497f9722a3daafe3b4186f6b6457e0604051953393169180a360805260a052611f6590816200047b823960805181818161026301528181610c1a01528181610dc301528181610f0701528181610ffb015281816111a10152818161178801528181611bc20152611d63015260a051818181610218015281816104d201528181610e0401528181610ebb0152818161103b015281816111550152818161174701528181611b7d0152611d310152f35b60249060405190631e4fbdf760e01b82526004820152fd5b0151905038806200015d565b869593929193168588528388209388905b828210620002ba5750508411620002a0575b505050811b01905562000171565b015160001960f88460031b161c1916905538808062000292565b848401518655889790950194938401939081019062000280565b9091929394508688528288208580880160051c82019285891062000323575b9188978a9297969594930160051c01915b8281106200031457505062000146565b8a815588975089910162000304565b92508192620002f3565b634e487b7160e01b88526022600452602488fd5b90607f16906200012e565b634e487b7160e01b87526041600452602487fd5b01519050388062000100565b90848a9416918b8052868c20928c5b88828210620003b657505084116200039c575b505050811b01875562000114565b015160001960f88460031b161c191690553880806200038e565b8385015186558d979095019493840193016200037b565b909150898052848a208780850160051c82019287861062000416575b918b91869594930160051c01915b82811062000407575050620000ea565b8c81558594508b9101620003f7565b92508192620003e9565b634e487b7160e01b8a52602260045260248afd5b90607f1690620000d5565b634e487b7160e01b600052604160045260246000fd5b600080fd5b60408051919082016001600160401b038111838210176200043f5760405256fe608060408181526004908136101561001657600080fd5b600092833560e01c90816301ffc9a7146114985750806306fdde03146113cd578063081812fc146113ad578063095ea7b3146112d257806323b872dd146112ba57806328ed4f6c146110db57806342842e0e1461108c5780634e543b2614610fcd578063534cfa9a14610d2d5780636352211e14610cfc57806370a0823114610ca7578063715018a614610c495780637b10399914610c055780638da5cb5b14610bdc57806395d89b4114610ac657806396e494e814610a9d578063a22cb465146109ff578063a7fc7a0714610996578063ac9650d8146107c8578063b88d4fde14610740578063b9cce32814610533578063c1a287e214610722578063c475abff14610600578063c87b56dd1461055b578063d6e4fa8614610533578063da8c229e146104f5578063ddf7fcb0146104ba578063e985e9c51461046a578063f2fde38b146103d9578063f6a74ed71461036f5763fca247ac1461017957600080fd5b3461036b57606036600319011261036b57813592610195611562565b93604435933383526020946008865260ff858520541615610355576101b983611a92565b1561033f57426276a700824201011061032957906101d8879242611a6f565b838552600787528585205560028652848420546001600160a01b03918791859190841661031b575b61020a8286611ab2565b87516306ab592360e01b81527f000000000000000000000000000000000000000000000000000000000000000091810191825260208201929092526001600160a01b0390991660408a01529788908190606001038187857f0000000000000000000000000000000000000000000000000000000000000000165af18015610311579086978697926102de575b5083917fb3d987963d01b2f68493b4bdb130988f157ea43070d4ad840fee0466ed9370d99183875260078252878720549488519586521693a381526007845220549051908152f35b909550813d831161030a575b6102f481836115d7565b810103126103055785859438610296565b600080fd5b503d6102ea565b85513d86823e3d90fd5b61032482611c76565b610200565b8451630a2a426d60e01b81529182015260249150fd5b5060249184519163fb7a5c5960e01b8352820152fd5b84516374cdd47360e11b81523381840152602490fd5b8280fd5b8382346103d55760203660031901126103d55761038a61154c565b610392611615565b6001600160a01b03168083526008602052908220805460ff191690557f33d83959be2573f5453b12eb9d43b3499bc57d96bd2f067ba44803c859e811138280a280f35b5080fd5b50903461036b57602036600319011261036b576103f461154c565b906103fd611615565b6001600160a01b03918216928315610454575050600654826bffffffffffffffffffffffff60a01b821617600655167f8be0079c531659141344cd1fd0a4f28419497f9722a3daafe3b4186f6b6457e0600080a380f35b51631e4fbdf760e01b8152908101849052602490fd5b8382346103d557806003193601126103d55760209161048761154c565b82610490611562565b9260018060a01b03809316815260058652209116600052825260ff81600020541690519015158152f35b8382346103d557816003193601126103d557602090517f00000000000000000000000000000000000000000000000000000000000000008152f35b8382346103d55760203660031901126103d55760209160ff9082906001600160a01b0361052061154c565b1681526008855220541690519015158152f35b50903461036b57602036600319011261036b5760209282913581526007845220549051908152f35b5082346105fd5760203660031901126105fd57506105866105f9923561058081611a04565b50611e55565b906105e76046825180947f68747470733a2f2f736e732e73656c656e6472612e6f72672f6170692f6d657460208301526561646174612f60d01b858301526105d78151809260208686019101611504565b81010360268101855201836115d7565b51918291602083526020830190611527565b0390f35b80fd5b508290346103d557806003193601126103d557823591602435933382526020936008855260ff84842054161561070c57808352600791828652848420546276a70081018091116106f9574210156106d45781845282865284842054878101106106bd575083949581845282875261067b858520918254611a6f565b9055808352818652807f9b87a00e30f1ac65d898f070f8a3488fe60517182d0a2098e1b4b93a54aa9bd687868620548751908152a28252845220549051908152f35b8451630a2a426d60e01b8152908101879052602490fd5b9392819260449685938352522054915192630f1e611760e31b84528301526024820152fd5b634e487b7160e01b855260118252602485fd5b83516374cdd47360e11b81523381840152602490fd5b8382346103d557816003193601126103d557602090516276a7008152f35b503461036b57608036600319011261036b5761075a61154c565b610762611562565b846064359467ffffffffffffffff86116103d557366023870112156103d5578501359461079a610791876115f9565b955195866115d7565b85855236602487830101116103d557856107c5966024602093018388013785010152604435916118e1565b80f35b509190346103d5576020928360031936011261036b5767ffffffffffffffff938235858111610992573660238201121561099257808401359386851161098e57600596602436878a1b850182011161098a5761082987949798969598611e13565b96610836865198896115d7565b848852601f1961084586611e13565b01875b81811061097b575050368190036042190190875b8681106108c157505050505050508051938080860192818752855180945283818801981b870101940192955b8287106108955785850386f35b9091929382806108b1600193603f198a82030186528851611527565b9601920196019592919092610888565b83818d9c999a9c1b830101358381121561097757820184810135868111610973576044809201813603811361096f57818e929183928e51928392833781018381520390305af490610910611a3f565b911561093b575090600191610925828d611e2b565b52610930818c611e2b565b50019997969961085c565b876f135d5b1d1a58d85b1b0819985a5b195960821b6064926010898f8f90519562461bcd60e51b8752860152840152820152fd5b8d80fd5b8c80fd5b8b80fd5b60608a82018c01528a01610848565b8780fd5b8580fd5b8480fd5b8382346103d55760203660031901126103d5576109b161154c565b6109b9611615565b6001600160a01b03168083526008602052908220805460ff191660011790557f0a8bb31534c0ed46f380cb867bd5c803a189ced9a764e30b3a4991a9901d74748280a280f35b503461036b578060031936011261036b57610a1861154c565b9060243591821515809303610992576001600160a01b0316928315610a8857503384526005602052808420836000526020528060002060ff1981541660ff8416179055519081527f17307eab39ab6107e8899845ad3d59bd9653f200f220920489ca2b5937696c3160203392a380f35b836024925191630b61174360e31b8352820152fd5b5082346105fd5760203660031901126105fd5750610abd60209235611a92565b90519015158152f35b5082346105fd57806003193601126105fd578151918160019283549384811c91818616958615610bd2575b6020968785108114610bbf578899509688969785829a529182600014610b98575050600114610b3d575b5050506105f99291610b2e9103856115d7565b51928284938452830190611527565b91908693508083527fb10e2d527612073b26eecdfd717e6a320cf44b4afac2b0732d9fcbe2b7fa0cf65b828410610b805750505082010181610b2e6105f9610b1b565b8054848a018601528895508794909301928101610b67565b60ff19168782015293151560051b86019093019350849250610b2e91506105f99050610b1b565b634e487b7160e01b835260228a52602483fd5b92607f1692610af1565b8382346103d557816003193601126103d55760065490516001600160a01b039091168152602090f35b8382346103d557816003193601126103d557517f00000000000000000000000000000000000000000000000000000000000000006001600160a01b03168152602090f35b83346105fd57806003193601126105fd57610c62611615565b600680546001600160a01b031981169091556000906001600160a01b03167f8be0079c531659141344cd1fd0a4f28419497f9722a3daafe3b4186f6b6457e08280a380f35b5082346105fd5760203660031901126105fd576001600160a01b03610cca61154c565b16928315610ce75750806020938392526003845220549051908152f35b91516322718ad960e21b815291820152602490fd5b5082346105fd5760203660031901126105fd5750610d1c60209235611a04565b90516001600160a01b039091168152f35b508290346103d55760803660031901126103d557823591610d4c611562565b6001600160a01b039460643586811695929190869003610305573384526020956008875260ff868620541615610fb757610d8584611a92565b15610fa057610d9660443542611a6f565b848652600788528686205560028752878686205416610f92575b610dba8484611ab2565b8015610eac57877f00000000000000000000000000000000000000000000000000000000000000001691823b1561098e579060a4869283895195869485936305ef2c7f60e41b85527f0000000000000000000000000000000000000000000000000000000000000000908501528960248501528d8916604485015260648401528160848401525af1801561031157610e98575b50817fb3d987963d01b2f68493b4bdb130988f157ea43070d4ad840fee0466ed9370d9868697985b83875260078252878720549488519586521693a381526007845220549051908152f35b610ea284916115ad565b61036b5786610e4d565b5084516306ab592360e01b81527f0000000000000000000000000000000000000000000000000000000000000000918101918252602082018490526001600160a01b03831660408301529690869088908190606001038187857f0000000000000000000000000000000000000000000000000000000000000000165af1801561031157908697869792610f64575b5083917fb3d987963d01b2f68493b4bdb130988f157ea43070d4ad840fee0466ed9370d991610e75565b909550813d8311610f8b575b610f7a81836115d7565b810103126103055785859488610f3a565b503d610f70565b610f9b84611c76565b610db0565b855163fb7a5c5960e01b8152808301859052602490fd5b85516374cdd47360e11b81523381840152602490fd5b503461036b57602036600319011261036b5782610fe861154c565b610ff0611615565b6001600160a01b03937f0000000000000000000000000000000000000000000000000000000000000000851690813b15611088578360449286519788958694630c4b7b8560e11b86527f0000000000000000000000000000000000000000000000000000000000000000908601521660248401525af190811561107f5750611076575080f35b6107c5906115ad565b513d84823e3d90fd5b8380fd5b508290346103d55761109d36611578565b91835193602085019085821067ffffffffffffffff8311176110c8576107c5969750528584526118e1565b634e487b7160e01b875260418852602487fd5b50903461036b578160031936011261036b578035916110f8611562565b9083855260209060078252808620546276a70081018091116112a757421015611280576001600160a01b03938461112e87611a04565b16803314908115611264575b508015611251575b1561122d5781516306ab592360e01b81527f0000000000000000000000000000000000000000000000000000000000000000918101918252602082018790526001600160a01b0385166040830152919083908390819060600103818a897f0000000000000000000000000000000000000000000000000000000000000000165af190811561122457506111fb575b505016907fa196594557a62e03093431402eafa126cb2407c4c22b7dcb38ab425ded4900288380a380f35b813d831161121d575b61120e81836115d7565b810103126110885738806111d0565b503d611204565b513d88823e3d90fd5b90516344dcf5fb60e11b815233918101918252602082018690529081906040010390fd5b50338561125d88611641565b1614611142565b8852506005835281872033885283528187205460ff163861113a565b80925085600786936044978352522054915192630f1e611760e31b84528301526024820152fd5b634e487b7160e01b875260118552602487fd5b83346105fd576107c56112cc36611578565b91611666565b503461036b578060031936011261036b576112eb61154c565b916024356112f881611a04565b3315158061139a575b80611371575b61135b576001600160a01b039485169482918691167f8c5be1e5ebec7d5bd14f71427d1e84f3dd0314c0f7b2291e5b200ac8c7c3b9258880a48452602052822080546001600160a01b031916909117905580f35b835163a9fbf51f60e01b81523381850152602490fd5b506001600160a01b03811686526005602090815284872033885290528386205460ff1615611307565b506001600160a01b038116331415611301565b5082346105fd5760203660031901126105fd5750610d1c60209235611641565b5082346105fd57806003193601126105fd5781519181825492600184811c9181861695861561148e575b6020968785108114610bbf578899509688969785829a529182600014610b98575050600114611433575050506105f99291610b2e9103856115d7565b91908693508280527f290decd9548b62a8d60345a988386fc84ba6bc95484008f6362f93160ef3e5635b8284106114765750505082010181610b2e6105f9610b1b565b8054848a01860152889550879490930192810161145d565b92607f16926113f7565b8490843461036b57602036600319011261036b573563ffffffff60e01b811680910361036b57602092506380ac58cd60e01b81149081156114f3575b81156114e2575b5015158152f35b6301ffc9a760e01b149050836114db565b635b5e139f60e01b811491506114d4565b60005b8381106115175750506000910152565b8181015183820152602001611507565b9060209161154081518092818552858086019101611504565b601f01601f1916010190565b600435906001600160a01b038216820361030557565b602435906001600160a01b038216820361030557565b6060906003190112610305576001600160a01b0390600435828116810361030557916024359081168103610305579060443590565b67ffffffffffffffff81116115c157604052565b634e487b7160e01b600052604160045260246000fd5b90601f8019910116810190811067ffffffffffffffff8211176115c157604052565b67ffffffffffffffff81116115c157601f01601f191660200190565b6006546001600160a01b0316330361162957565b60405163118cdaa760e01b8152336004820152602490fd5b61164a81611a04565b506000908152600460205260409020546001600160a01b031690565b6001600160a01b03828116939184156118c8576000838152602060028152604096848884205416963315158061183a575b5087151580611807575b82855260038452898520805460010190558785526002845289852080546001600160a01b0319168417905589519288908a7fddf252ad1be2c89b69c2b068fc378daa952ba7f163c4a11628f55a4df523b3ef8880a4806117ff575b806117ef575b61173b575b50505050169283830361171a5750505050565b6064945051926364283d7b60e01b8452600484015260248301526044820152fd5b6306ab592360e01b82527f00000000000000000000000000000000000000000000000000000000000000006004830152602482018790526001600160a01b031660448201528181606481867f00000000000000000000000000000000000000000000000000000000000000008a165af180156117e5576117bc575b80611707565b813d83116117de575b6117cf81836115d7565b810103126105fd5780806117b6565b503d6117c5565b88513d85823e3d90fd5b5060078352888420544210611702565b5060016116fc565b600088815260046020526040902080546001600160a01b03191690558885526003845289852080546000190190556116a1565b80611887575b1561184b5738611697565b888789611868576024915190637e27328960e01b82526004820152fd5b905163177e802f60e01b81523360048201526024810191909152604490fd5b5033881480156118ac575b8061184057508684526004835233868a8620541614611840565b5087845260058352888420338552835260ff8985205416611892565b604051633250574960e11b815260006004820152602490fd5b91906118ee828285611666565b803b6118fb575b50505050565b61193d60018060a01b0380921694604051938493630a85bd0160e11b968786523360048701521660248501526044840152608060648401526084830190611527565b03906020816000938185885af1908290826119bc575b505061198b5782611962611a3f565b805191908261198457604051633250574960e11b815260048101839052602490fd5b9050602001fd5b6001600160e01b031916036119a45750388080806118f5565b60249060405190633250574960e11b82526004820152fd5b909192506020813d82116119fc575b816119d8602093836115d7565b810103126103d55751906001600160e01b0319821682036105fd5750903880611953565b3d91506119cb565b6000818152600260205260409020546001600160a01b0316908115611a27575090565b60249060405190637e27328960e01b82526004820152fd5b3d15611a6a573d90611a50826115f9565b91611a5e60405193846115d7565b82523d6000602084013e565b606090565b91908201809211611a7c57565b634e487b7160e01b600052601160045260246000fd5b60005260076020526040600020546276a7008101809111611a7c57421190565b6001600160a01b03908082169081156118c857600093808552846020926002845260409580878420541693808515159788611c43575b80865260038852898620805460010190558186526002885289862080546001600160a01b031916821790558951967fddf252ad1be2c89b69c2b068fc378daa952ba7f163c4a11628f55a4df523b3ef8780a48680611c3b575b80611c2b575b611b71575b505050505050611b5a575050565b6024925051906339e3563760e11b82526004820152fd5b6306ab592360e01b85527f0000000000000000000000000000000000000000000000000000000000000000600486015260248501526001600160a01b039190911660448401528391839160649183917f0000000000000000000000000000000000000000000000000000000000000000165af18015611c2157611bf8575b84818080611b4c565b813d8311611c1a575b611c0b81836115d7565b8101031261036b573880611bef565b503d611c01565b84513d87823e3d90fd5b5060078652878420544210611b47565b506001611b41565b600082815260046020526040902080546001600160a01b0319169055868652600388528986208054600019019055611ae8565b60008181526002602090815260408083205490926001600160a01b039182168015939192841580611de0575b878552600284528685206bffffffffffffffffffffffff60a01b815416905587858851947fddf252ad1be2c89b69c2b068fc378daa952ba7f163c4a11628f55a4df523b3ef8280a480611dd9575b80611dc9575b611d1e575b50505050611d07575050565b602492505190637e27328960e01b82526004820152fd5b816064818686946306ab592360e01b83527f000000000000000000000000000000000000000000000000000000000000000060048401528b60248401528160448401527f0000000000000000000000000000000000000000000000000000000000000000165af18015611dbf57611d96575b80611cfb565b813d8311611db8575b611da981836115d7565b810103126105fd578080611d90565b503d611d9f565b85513d85823e3d90fd5b5060078352858420544210611cf6565b5083611cf0565b600088815260046020526040902080546001600160a01b0319169055828552600384528685208054600019019055611ca2565b67ffffffffffffffff81116115c15760051b60200190565b8051821015611e3f5760209160051b010190565b634e487b7160e01b600052603260045260246000fd5b8015611f0057600081805b611ee85750611e6e816115f9565b90611e7c60405192836115d7565b808252601f19611e8b826115f9565b013660208401375b80928015611ee1576000198201918211611a7c578193600a926030908484068201809211611a7c5785511115611e3f5760f81b6001600160f81b03191660001a908401601f01530491611e93565b5050905090565b906000198114611a7c576001600a9101910480611e60565b506040516040810181811067ffffffffffffffff8211176115c15760405260018152600360fc1b60208201529056fea2646970667358221220b8c5274cbc88e09fcebe0fa52e99fa1b1d06170d78cfb50ff5000a83fa9824af64736f6c63430008140033","linkReferences":{}},"methodIdentifiers":{"GRACE_PERIOD()":"c1a287e2","addController(address)":"a7fc7a07","approve(address,uint256)":"095ea7b3","available(uint256)":"96e494e8","balanceOf(address)":"70a08231","baseNode()":"ddf7fcb0","controllers(address)":"da8c229e","expiries(uint256)":"b9cce328","getApproved(uint256)":"081812fc","isApprovedForAll(address,address)":"e985e9c5","multicall(bytes[])":"ac9650d8","name()":"06fdde03","nameExpires(uint256)":"d6e4fa86","owner()":"8da5cb5b","ownerOf(uint256)":"6352211e","reclaim(uint256,address)":"28ed4f6c","register(uint256,address,uint256)":"fca247ac","registerWithConfig(uint256,address,uint256,address)":"534cfa9a","registry()":"7b103999","removeController(address)":"f6a74ed7","renew(uint256,uint256)":"c475abff","renounceOwnership()":"715018a6","safeTransferFrom(address,address,uint256)":"42842e0e","safeTransferFrom(address,address,uint256,bytes)":"b88d4fde","setApprovalForAll(address,bool)":"a22cb465","setResolver(address)":"4e543b26","supportsInterface(bytes4)":"01ffc9a7","symbol()":"95d89b41","tokenURI(uint256)":"c87b56dd","transferFrom(address,address,uint256)":"23b872dd","transferOwnership(address)":"f2fde38b"},"id":35}