{"abi":[{"type":"constructor","inputs":[{"name":"_registry","type":"address","internalType":"address"},{"name":"_baseNode","type":"bytes32","internalType":"bytes32"}],"stateMutability":"nonpayable"},{"type":"function","name":"GRACE_PERIOD","inputs":[],"outputs":[{"name":"","type":"uint256","internalType":"uint256"}],"stateMutability":"view"},{"type":"function","name":"addController","inputs":[{"name":"controller","type":"address","internalType":"address"}],"outputs":[],"stateMutability":"nonpayable"},{"type":"function","name":"approve","inputs":[{"name":"to","type":"address","internalType":"address"},{"name":"tokenId","type":"uint256","internalType":"uint256"}],"outputs":[],"stateMutability":"nonpayable"},{"type":"function","name":"available","inputs":[{"name":"id","type":"uint256","internalType":"uint256"}],"outputs":[{"name":"","type":"bool","internalType":"bool"}],"stateMutability":"view"},{"type":"function","name":"balanceOf","inputs":[{"name":"owner","type":"address","internalType":"address"}],"outputs":[{"name":"","type":"uint256","internalType":"uint256"}],"stateMutability":"view"},{"type":"function","name":"baseNode","inputs":[],"outputs":[{"name":"","type":"bytes32","internalType":"bytes32"}],"stateMutability":"view"},{"type":"function","name":"controllers","inputs":[{"name":"","type":"address","internalType":"address"}],"outputs":[{"name":"","type":"bool","internalType":"bool"}],"stateMutability":"view"},{"type":"function","name":"expiries","inputs":[{"name":"","type":"uint256","internalType":"uint256"}],"outputs":[{"name":"","type":"uint256","internalType":"uint256"}],"stateMutability":"view"},{"type":"function","name":"getApproved","inputs":[{"name":"tokenId","type":"uint256","internalType":"uint256"}],"outputs":[{"name":"","type":"address","internalType":"address"}],"stateMutability":"view"},{"type":"function","name":"isApprovedForAll","inputs":[{"name":"owner","type":"address","internalType":"address"},{"name":"operator","type":"address","internalType":"address"}],"outputs":[{"name":"","type":"bool","internalType":"bool"}],"stateMutability":"view"},{"type":"function","name":"name","inputs":[],"outputs":[{"name":"","type":"string","internalType":"string"}],"stateMutability":"view"},{"type":"function","name":"nameExpires","inputs":[{"name":"id","type":"uint256","internalType":"uint256"}],"outputs":[{"name":"","type":"uint256","internalType":"uint256"}],"stateMutability":"view"},{"type":"function","name":"owner","inputs":[],"outputs":[{"name":"","type":"address","internalType":"address"}],"stateMutability":"view"},{"type":"function","name":"ownerOf","inputs":[{"name":"tokenId","type":"uint256","internalType":"uint256"}],"outputs":[{"name":"","type":"address","internalType":"address"}],"stateMutability":"view"},{"type":"function","name":"reclaim","inputs":[{"name":"id","type":"uint256","internalType":"uint256"},{"name":"owner","type":"address","internalType":"address"}],"outputs":[],"stateMutability":"nonpayable"},{"type":"function","name":"register","inputs":[{"name":"id","type":"uint256","internalType":"uint256"},{"name":"owner","type":"address","internalType":"address"},{"name":"duration","type":"uint256","internalType":"uint256"}],"outputs":[{"name":"","type":"uint256","internalType":"uint256"}],"stateMutability":"nonpayable"},{"type":"function","name":"registerWithConfig","inputs":[{"name":"id","type":"uint256","internalType":"uint256"},{"name":"owner","type":"address","internalType":"address"},{"name":"duration","type":"uint256","internalType":"uint256"},{"name":"resolver","type":"address","internalType":"address"}],"outputs":[{"name":"","type":"uint256","internalType":"uint256"}],"stateMutability":"nonpayable"},{"type":"function","name":"registry","inputs":[],"outputs":[{"name":"","type":"address","internalType":"address"}],"stateMutability":"view"},{"type":"function","name":"removeController","inputs":[{"name":"controller","type":"address","internalType":"address"}],"outputs":[],"stateMutability":"nonpayable"},{"type":"function","name":"renew","inputs":[{"name":"id","type":"uint256","internalType":"uint256"},{"name":"duration","type":"uint256","internalType":"uint256"}],"outputs":[{"name":"","type":"uint256","internalType":"uint256"}],"stateMutability":"nonpayable"},{"type":"function","name":"renounceOwnership","inputs":[],"outputs":[],"stateMutability":"nonpayable"},{"type":"function","name":"safeTransferFrom","inputs":[{"name":"from","type":"address","internalType":"address"},{"name":"to","type":"address","internalType":"address"},{"name":"tokenId","type":"uint256","internalType":"uint256"}],"outputs":[],"stateMutability":"nonpayable"},{"type":"function","name":"safeTransferFrom","inputs":[{"name":"from","type":"address","internalType":"address"},{"name":"to","type":"address","internalType":"address"},{"name":"tokenId","type":"uint256","internalType":"uint256"},{"name":"data","type":"bytes","internalType":"bytes"}],"outputs":[],"stateMutability":"nonpayable"},{"type":"function","name":"setApprovalForAll","inputs":[{"name":"operator","type":"address","internalType":"address"},{"name":"approved","type":"bool","internalType":"bool"}],"outputs":[],"stateMutability":"nonpayable"},{"type":"function","name":"setResolver","inputs":[{"name":"resolver","type":"address","internalType":"address"}],"outputs":[],"stateMutability":"nonpayable"},{"type":"function","name":"supportsInterface","inputs":[{"name":"interfaceId","type":"bytes4","internalType":"bytes4"}],"outputs":[{"name":"","type":"bool","internalType":"bool"}],"stateMutability":"view"},{"type":"function","name":"symbol","inputs":[],"outputs":[{"name":"","type":"string","internalType":"string"}],"stateMutability":"view"},{"type":"function","name":"tokenURI","inputs":[{"name":"tokenId","type":"uint256","internalType":"uint256"}],"outputs":[{"name":"","type":"string","internalType":"string"}],"stateMutability":"view"},{"type":"function","name":"transferFrom","inputs":[{"name":"from","type":"address","internalType":"address"},{"name":"to","type":"address","internalType":"address"},{"name":"tokenId","type":"uint256","internalType":"uint256"}],"outputs":[],"stateMutability":"nonpayable"},{"type":"function","name":"transferOwnership","inputs":[{"name":"newOwner","type":"address","internalType":"address"}],"outputs":[],"stateMutability":"nonpayable"},{"type":"event","name":"Approval","inputs":[{"name":"owner","type":"address","indexed":true,"internalType":"address"},{"name":"approved","type":"address","indexed":true,"internalType":"address"},{"name":"tokenId","type":"uint256","indexed":true,"internalType":"uint256"}],"anonymous":false},{"type":"event","name":"ApprovalForAll","inputs":[{"name":"owner","type":"address","indexed":true,"internalType":"address"},{"name":"operator","type":"address","indexed":true,"internalType":"address"},{"name":"approved","type":"bool","indexed":false,"internalType":"bool"}],"anonymous":false},{"type":"event","name":"ControllerAdded","inputs":[{"name":"controller","type":"address","indexed":true,"internalType":"address"}],"anonymous":false},{"type":"event","name":"ControllerRemoved","inputs":[{"name":"controller","type":"address","indexed":true,"internalType":"address"}],"anonymous":false},{"type":"event","name":"NameRegistered","inputs":[{"name":"id","type":"uint256","indexed":true,"internalType":"uint256"},{"name":"owner","type":"address","indexed":true,"internalType":"address"},{"name":"expires","type":"uint256","indexed":false,"internalType":"uint256"}],"anonymous":false},{"type":"event","name":"NameRenewed","inputs":[{"name":"id","type":"uint256","indexed":true,"internalType":"uint256"},{"name":"expires","type":"uint256","indexed":false,"internalType":"uint256"}],"anonymous":false},{"type":"event","name":"OwnershipTransferred","inputs":[{"name":"previousOwner","type":"address","indexed":true,"internalType":"address"},{"name":"newOwner","type":"address","indexed":true,"internalType":"address"}],"anonymous":false},{"type":"event","name":"Transfer","inputs":[{"name":"from","type":"address","indexed":true,"internalType":"address"},{"name":"to","type":"address","indexed":true,"internalType":"address"},{"name":"tokenId","type":"uint256","indexed":true,"internalType":"uint256"}],"anonymous":false},{"type":"error","name":"ERC721IncorrectOwner","inputs":[{"name":"sender","type":"address","internalType":"address"},{"name":"tokenId","type":"uint256","internalType":"uint256"},{"name":"owner","type":"address","internalType":"address"}]},{"type":"error","name":"ERC721InsufficientApproval","inputs":[{"name":"operator","type":"address","internalType":"address"},{"name":"tokenId","type":"uint256","internalType":"uint256"}]},{"type":"error","name":"ERC721InvalidApprover","inputs":[{"name":"approver","type":"address","internalType":"address"}]},{"type":"error","name":"ERC721InvalidOperator","inputs":[{"name":"operator","type":"address","internalType":"address"}]},{"type":"error","name":"ERC721InvalidOwner","inputs":[{"name":"owner","type":"address","internalType":"address"}]},{"type":"error","name":"ERC721InvalidReceiver","inputs":[{"name":"receiver","type":"address","internalType":"address"}]},{"type":"error","name":"ERC721InvalidSender","inputs":[{"name":"sender","type":"address","internalType":"address"}]},{"type":"error","name":"ERC721NonexistentToken","inputs":[{"name":"tokenId","type":"uint256","internalType":"uint256"}]},{"type":"error","name":"OwnableInvalidOwner","inputs":[{"name":"owner","type":"address","internalType":"address"}]},{"type":"error","name":"OwnableUnauthorizedAccount","inputs":[{"name":"account","type":"address","internalType":"address"}]}],"bytecode":{"object":"0x60c03462000455576001600160401b0390601f90601f19620021f538819003848101831684019190868311858410176200043f578085926040948552833981010312620004555781516001600160a01b039490929085841684036200045557602080920151946200006f6200045a565b92601584527f53656c656e647261204e616d652053657276696365000000000000000000000081850152620000a36200045a565b906003825262534e5360e81b818301528451958487116200043f576000968754966001978881811c9116801562000434575b858210146200042057908187849311620003cd575b5084908783116001146200036c578a9262000360575b5050600019600383901b1c191690871b1787555b82519485116200034c5785548681811c9116801562000341575b838210146200032d57908185879695949311620002d4575b50819385116001146200026f575050859262000263575b5050600019600383901b1c191690821b1790555b33156200024b57600654903360018060a01b03198316176006557f8be0079c531659141344cd1fd0a4f28419497f9722a3daafe3b4186f6b6457e0604051953393169180a360805260a052611d7a90816200047b823960805181818161026e01528181610a0501528181610baf01528181610cf701528181610dbe01528181610f6e01528181611513015281816119c60152611b67015260a051818181610223015281816104e501528181610bf001528181610cab01528181610dfe01528181610f1d015281816114d2015281816119810152611b350152f35b60249060405190631e4fbdf760e01b82526004820152fd5b0151905038806200015d565b869593929193168588528388209388905b828210620002ba5750508411620002a0575b505050811b01905562000171565b015160001960f88460031b161c1916905538808062000292565b848401518655889790950194938401939081019062000280565b9091929394508688528288208580880160051c82019285891062000323575b9188978a9297969594930160051c01915b8281106200031457505062000146565b8a815588975089910162000304565b92508192620002f3565b634e487b7160e01b88526022600452602488fd5b90607f16906200012e565b634e487b7160e01b87526041600452602487fd5b01519050388062000100565b90848a9416918b8052868c20928c5b88828210620003b657505084116200039c575b505050811b01875562000114565b015160001960f88460031b161c191690553880806200038e565b8385015186558d979095019493840193016200037b565b909150898052848a208780850160051c82019287861062000416575b918b91869594930160051c01915b82811062000407575050620000ea565b8c81558594508b9101620003f7565b92508192620003e9565b634e487b7160e01b8a52602260045260248afd5b90607f1690620000d5565b634e487b7160e01b600052604160045260246000fd5b600080fd5b60408051919082016001600160401b038111838210176200043f5760405256fe608060408181526004908136101561001657600080fd5b600092833560e01c90816301ffc9a7146112235750806306fdde0314611158578063081812fc14611138578063095ea7b31461105d57806323b872dd1461104557806328ed4f6c14610e9e57806342842e0e14610e4f5780634e543b2614610d90578063534cfa9a14610b185780636352211e14610ae757806370a0823114610a92578063715018a614610a345780637b103999146109f05780638da5cb5b146109c757806395d89b41146108b157806396e494e814610888578063a22cb465146107e6578063a7fc7a071461077d578063b88d4fde146106f5578063b9cce32814610546578063c1a287e2146106d7578063c475abff14610613578063c87b56dd1461056e578063d6e4fa8614610546578063da8c229e14610508578063ddf7fcb0146104cd578063e985e9c51461047d578063f2fde38b146103ec578063f6a74ed7146103825763fca247ac1461016e57600080fd5b3461037e57606036600319011261037e5781359261018a6112ed565b9360443593338352602094600886526101a860ff8686205416611836565b6101b96101b484611816565b611875565b6101c381426117f3565b6276a700810180911161036b5742101561033457906101e38792426117f3565b838552600787528585205560028652848420546001600160a01b039187918591908416610326575b61021582866118b6565b87516306ab592360e01b81527f000000000000000000000000000000000000000000000000000000000000000091810191825260208201929092526001600160a01b0390991660408a01529788908190606001038187857f0000000000000000000000000000000000000000000000000000000000000000165af1801561031c579086978697926102e9575b5083917fb3d987963d01b2f68493b4bdb130988f157ea43070d4ad840fee0466ed9370d99183875260078252878720549488519586521693a381526007845220549051908152f35b909550813d8311610315575b6102ff8183611362565b8101031261031057858594386102a1565b600080fd5b503d6102f5565b85513d86823e3d90fd5b61032f82611a7a565b61020b565b845162461bcd60e51b815280830187905260116024820152704475726174696f6e20746f6f206c6f6e6760781b6044820152606490fd5b634e487b7160e01b855260118352602485fd5b8280fd5b8382346103e85760203660031901126103e85761039d6112d7565b6103a56113a0565b6001600160a01b03168083526008602052908220805460ff191690557f33d83959be2573f5453b12eb9d43b3499bc57d96bd2f067ba44803c859e811138280a280f35b5080fd5b50903461037e57602036600319011261037e576104076112d7565b906104106113a0565b6001600160a01b03918216928315610467575050600654826bffffffffffffffffffffffff60a01b821617600655167f8be0079c531659141344cd1fd0a4f28419497f9722a3daafe3b4186f6b6457e0600080a380f35b51631e4fbdf760e01b8152908101849052602490fd5b8382346103e857806003193601126103e85760209161049a6112d7565b826104a36112ed565b9260018060a01b03809316815260058652209116600052825260ff81600020541690519015158152f35b8382346103e857816003193601126103e857602090517f00000000000000000000000000000000000000000000000000000000000000008152f35b8382346103e85760203660031901126103e85760209160ff9082906001600160a01b036105336112d7565b1681526008855220541690519015158152f35b50903461037e57602036600319011261037e5760209282913581526007845220549051908152f35b508234610610576020366003190112610610575061059961060c9235610593816117b8565b50611c52565b906105fa6046825180947f68747470733a2f2f736e732e73656c656e6472612e6f72672f6170692f6d657460208301526561646174612f60d01b858301526105ea815180926020868601910161128f565b8101036026810185520183611362565b519182916020835260208301906112b2565b0390f35b80fd5b508290346103e857806003193601126103e8578235913381526020926008845261064260ff8484205416611836565b80825260078452828220546276a70081018091116106c457906106688493924210611c17565b8082526007855282822061067f60243582546117f3565b905580825260078552807f9b87a00e30f1ac65d898f070f8a3488fe60517182d0a2098e1b4b93a54aa9bd686858520548651908152a281526007845220549051908152f35b634e487b7160e01b835260118652602483fd5b8382346103e857816003193601126103e857602090516276a7008152f35b503461037e57608036600319011261037e5761070f6112d7565b6107176112ed565b846064359467ffffffffffffffff86116103e857366023870112156103e8578501359461074f61074687611384565b95519586611362565b85855236602487830101116103e8578561077a96602460209301838801378501015260443591611669565b80f35b8382346103e85760203660031901126103e8576107986112d7565b6107a06113a0565b6001600160a01b03168083526008602052908220805460ff191660011790557f0a8bb31534c0ed46f380cb867bd5c803a189ced9a764e30b3a4991a9901d74748280a280f35b503461037e578060031936011261037e576107ff6112d7565b9060243591821515809303610884576001600160a01b031692831561086f57503384526005602052808420836000526020528060002060ff1981541660ff8416179055519081527f17307eab39ab6107e8899845ad3d59bd9653f200f220920489ca2b5937696c3160203392a380f35b836024925191630b61174360e31b8352820152fd5b8480fd5b50823461061057602036600319011261061057506108a860209235611816565b90519015158152f35b5082346106105780600319360112610610578151918160019283549384811c918186169586156109bd575b60209687851081146109aa578899509688969785829a529182600014610983575050600114610928575b50505061060c9291610919910385611362565b519282849384528301906112b2565b91908693508083527fb10e2d527612073b26eecdfd717e6a320cf44b4afac2b0732d9fcbe2b7fa0cf65b82841061096b575050508201018161091961060c610906565b8054848a018601528895508794909301928101610952565b60ff19168782015293151560051b86019093019350849250610919915061060c9050610906565b634e487b7160e01b835260228a52602483fd5b92607f16926108dc565b8382346103e857816003193601126103e85760065490516001600160a01b039091168152602090f35b8382346103e857816003193601126103e857517f00000000000000000000000000000000000000000000000000000000000000006001600160a01b03168152602090f35b8334610610578060031936011261061057610a4d6113a0565b600680546001600160a01b031981169091556000906001600160a01b03167f8be0079c531659141344cd1fd0a4f28419497f9722a3daafe3b4186f6b6457e08280a380f35b508234610610576020366003190112610610576001600160a01b03610ab56112d7565b16928315610ad25750806020938392526003845220549051908152f35b91516322718ad960e21b815291820152602490fd5b5082346106105760203660031901126106105750610b07602092356117b8565b90516001600160a01b039091168152f35b508290346103e85760803660031901126103e857823591610b376112ed565b6001600160a01b0394606435868116959291908690036103105733845260209560088752610b6a60ff8787205416611836565b610b766101b485611816565b610b82604435426117f3565b848652600788528686205560028752878686205416610d82575b610ba684846118b6565b8015610c9c57877f00000000000000000000000000000000000000000000000000000000000000001691823b15610c98579060a4869283895195869485936305ef2c7f60e41b85527f0000000000000000000000000000000000000000000000000000000000000000908501528960248501528d8916604485015260648401528160848401525af1801561031c57610c84575b50817fb3d987963d01b2f68493b4bdb130988f157ea43070d4ad840fee0466ed9370d9868697985b83875260078252878720549488519586521693a381526007845220549051908152f35b610c8e8491611338565b61037e5786610c39565b8580fd5b5084516306ab592360e01b81527f0000000000000000000000000000000000000000000000000000000000000000918101918252602082018490526001600160a01b03831660408301529690869088908190606001038187857f0000000000000000000000000000000000000000000000000000000000000000165af1801561031c57908697869792610d54575b5083917fb3d987963d01b2f68493b4bdb130988f157ea43070d4ad840fee0466ed9370d991610c61565b909550813d8311610d7b575b610d6a8183611362565b810103126103105785859488610d2a565b503d610d60565b610d8b84611a7a565b610b9c565b503461037e57602036600319011261037e5782610dab6112d7565b610db36113a0565b6001600160a01b03937f0000000000000000000000000000000000000000000000000000000000000000851690813b15610e4b578360449286519788958694630c4b7b8560e11b86527f0000000000000000000000000000000000000000000000000000000000000000908601521660248401525af1908115610e425750610e39575080f35b61077a90611338565b513d84823e3d90fd5b8380fd5b508290346103e857610e6036611303565b91835193602085019085821067ffffffffffffffff831117610e8b5761077a96975052858452611669565b634e487b7160e01b875260418852602487fd5b508290346103e857806003193601126103e857823590610ebc6112ed565b9382845260209260078452828520546276a700810180911161103257610ee3904210611c17565b6001600160a01b039182610ef6836117b8565b16803314908115611016575b508015611003575b15610fd15783516306ab592360e01b81527f000000000000000000000000000000000000000000000000000000000000000091810191825260208201929092526001600160a01b0387166040820152909291849184919082908890829060600103927f0000000000000000000000000000000000000000000000000000000000000000165af1908115610fc85750610fa0578280f35b813d8311610fc1575b610fb38183611362565b810103126106105781808280f35b503d610fa9565b513d85823e3d90fd5b835162461bcd60e51b8152908101859052600c60248201526b139bdd08185c1c1c9bdd995960a21b6044820152606490fd5b50338361100f846113cc565b1614610f0a565b8752506005855283862033875285528386205460ff1688610f02565b634e487b7160e01b865260118352602486fd5b83346106105761077a61105736611303565b916113f1565b503461037e578060031936011261037e576110766112d7565b91602435611083816117b8565b33151580611125575b806110fc575b6110e6576001600160a01b039485169482918691167f8c5be1e5ebec7d5bd14f71427d1e84f3dd0314c0f7b2291e5b200ac8c7c3b9258880a48452602052822080546001600160a01b031916909117905580f35b835163a9fbf51f60e01b81523381850152602490fd5b506001600160a01b03811686526005602090815284872033885290528386205460ff1615611092565b506001600160a01b03811633141561108c565b5082346106105760203660031901126106105750610b07602092356113cc565b50823461061057806003193601126106105781519181825492600184811c91818616958615611219575b60209687851081146109aa578899509688969785829a5291826000146109835750506001146111be5750505061060c9291610919910385611362565b91908693508280527f290decd9548b62a8d60345a988386fc84ba6bc95484008f6362f93160ef3e5635b828410611201575050508201018161091961060c610906565b8054848a0186015288955087949093019281016111e8565b92607f1692611182565b8490843461037e57602036600319011261037e573563ffffffff60e01b811680910361037e57602092506380ac58cd60e01b811490811561127e575b811561126d575b5015158152f35b6301ffc9a760e01b14905083611266565b635b5e139f60e01b8114915061125f565b60005b8381106112a25750506000910152565b8181015183820152602001611292565b906020916112cb8151809281855285808601910161128f565b601f01601f1916010190565b600435906001600160a01b038216820361031057565b602435906001600160a01b038216820361031057565b6060906003190112610310576001600160a01b0390600435828116810361031057916024359081168103610310579060443590565b67ffffffffffffffff811161134c57604052565b634e487b7160e01b600052604160045260246000fd5b90601f8019910116810190811067ffffffffffffffff82111761134c57604052565b67ffffffffffffffff811161134c57601f01601f191660200190565b6006546001600160a01b031633036113b457565b60405163118cdaa760e01b8152336004820152602490fd5b6113d5816117b8565b506000908152600460205260409020546001600160a01b031690565b6001600160a01b038281169391841561165057600083815260206002815260409684888420541696331515806115c5575b5087151580611592575b82855260038452898520805460010190558785526002845289852080546001600160a01b0319168417905589519288908a7fddf252ad1be2c89b69c2b068fc378daa952ba7f163c4a11628f55a4df523b3ef8880a48061158a575b8061157a575b6114c6575b5050505016928383036114a55750505050565b6064945051926364283d7b60e01b8452600484015260248301526044820152fd5b6306ab592360e01b82527f00000000000000000000000000000000000000000000000000000000000000006004830152602482018790526001600160a01b031660448201528181606481867f00000000000000000000000000000000000000000000000000000000000000008a165af1801561157057611547575b80611492565b813d8311611569575b61155a8183611362565b81010312610610578080611541565b503d611550565b88513d85823e3d90fd5b506007835288842054421061148d565b506001611487565b600088815260046020526040902080546001600160a01b031916905588855260038452898520805460001901905561142c565b8061160f575b156115d65738611422565b8887896115f3576024915190637e27328960e01b82526004820152fd5b604491519063177e802f60e01b82523360048301526024820152fd5b503388148015611634575b806115cb57508684526004835233868a86205416146115cb565b5087845260058352888420338552835260ff898520541661161a565b604051633250574960e11b815260006004820152602490fd5b6116748383836113f1565b813b611681575b50505050565b604051630a85bd0160e11b8082523360048301526001600160a01b039283166024830152604482019490945260806064820152602095929091169390929083906116cf9060848301906112b2565b039285816000958187895af1849181611778575b50611743575050503d60001461173b573d6116fd81611384565b9061170b6040519283611362565b81528091843d92013e5b8051928361173657604051633250574960e11b815260048101849052602490fd5b019050fd5b506060611715565b919450915063ffffffff60e01b160361176057503880808061167b565b60249060405190633250574960e11b82526004820152fd5b9091508681813d83116117b1575b6117908183611362565b8101031261088457516001600160e01b0319811681036108845790386116e3565b503d611786565b6000818152600260205260409020546001600160a01b03169081156117db575090565b60249060405190637e27328960e01b82526004820152fd5b9190820180921161180057565b634e487b7160e01b600052601160045260246000fd5b60005260076020526040600020546276a700810180911161180057421190565b1561183d57565b60405162461bcd60e51b815260206004820152601060248201526f2737ba10309031b7b73a3937b63632b960811b6044820152606490fd5b1561187c57565b60405162461bcd60e51b81526020600482015260126024820152714e616d65206e6f7420617661696c61626c6560701b6044820152606490fd5b6001600160a01b039080821690811561165057600093808552846020926002845260409580878420541693808515159788611a47575b80865260038852898620805460010190558186526002885289862080546001600160a01b031916821790558951967fddf252ad1be2c89b69c2b068fc378daa952ba7f163c4a11628f55a4df523b3ef8780a48680611a3f575b80611a2f575b611975575b50505050505061195e575050565b6024925051906339e3563760e11b82526004820152fd5b6306ab592360e01b85527f0000000000000000000000000000000000000000000000000000000000000000600486015260248501526001600160a01b039190911660448401528391839160649183917f0000000000000000000000000000000000000000000000000000000000000000165af18015611a25576119fc575b84818080611950565b813d8311611a1e575b611a0f8183611362565b8101031261037e5738806119f3565b503d611a05565b84513d87823e3d90fd5b506007865287842054421061194b565b506001611945565b600082815260046020526040902080546001600160a01b03191690558686526003885289862080546000190190556118ec565b60008181526002602090815260408083205490926001600160a01b039182168015939192841580611be4575b878552600284528685206bffffffffffffffffffffffff60a01b815416905587858851947fddf252ad1be2c89b69c2b068fc378daa952ba7f163c4a11628f55a4df523b3ef8280a480611bdd575b80611bcd575b611b22575b50505050611b0b575050565b602492505190637e27328960e01b82526004820152fd5b816064818686946306ab592360e01b83527f000000000000000000000000000000000000000000000000000000000000000060048401528b60248401528160448401527f0000000000000000000000000000000000000000000000000000000000000000165af18015611bc357611b9a575b80611aff565b813d8311611bbc575b611bad8183611362565b81010312610610578080611b94565b503d611ba3565b85513d85823e3d90fd5b5060078352858420544210611afa565b5083611af4565b600088815260046020526040902080546001600160a01b0319169055828552600384528685208054600019019055611aa6565b15611c1e57565b60405162461bcd60e51b815260206004820152600c60248201526b13985b5948195e1c1a5c995960a21b6044820152606490fd5b8015611d155780816000925b611cfb5750611c6c82611384565b91611c7a6040519384611362565b808352601f19611c8982611384565b01908260209236848701375b611c9f5750505090565b6000198101908111611800578092600a9160308383068101809111611800578651821015611ce55760f81b6001600160f81b03191660001a908601840153049182611c95565b634e487b7160e01b600052603260045260246000fd5b90916000198114611800576001019190600a900480611c5e565b506040516040810181811067ffffffffffffffff82111761134c5760405260018152600360fc1b60208201529056fea2646970667358221220ace892c1569cc64a611af708941940a7a24b3001b09366cf0fe5c02033be593b64736f6c63430008140033","linkReferences":{}},"methodIdentifiers":{"GRACE_PERIOD()":"c1a287e2","addController(address)":"a7fc7a07","approve(address,uint256)":"095ea7b3","available(uint256)":"96e494e8","balanceOf(address)":"70a08231","baseNode()":"ddf7fcb0","controllers(address)":"da8c229e","expiries(uint256)":"b9cce328","getApproved(uint256)":"081812fc","isApprovedForAll(address,address)":"e985e9c5","name()":"06fdde03","nameExpires(uint256)":"d6e4fa86","owner()":"8da5cb5b","ownerOf(uint256)":"6352211e","reclaim(uint256,address)":"28ed4f6c","register(uint256,address,uint256)":"fca247ac","registerWithConfig(uint256,address,uint256,address)":"534cfa9a","registry()":"7b103999","removeController(address)":"f6a74ed7","renew(uint256,uint256)":"c475abff","renounceOwnership()":"715018a6","safeTransferFrom(address,address,uint256)":"42842e0e","safeTransferFrom(address,address,uint256,bytes)":"b88d4fde","setApprovalForAll(address,bool)":"a22cb465","setResolver(address)":"4e543b26","supportsInterface(bytes4)":"01ffc9a7","symbol()":"95d89b41","tokenURI(uint256)":"c87b56dd","transferFrom(address,address,uint256)":"23b872dd","transferOwnership(address)":"f2fde38b"},"id":28}