{"abi":[{"type":"constructor","inputs":[{"name":"_sns","type":"address","internalType":"contract ISNSRegistry"},{"name":"_baseRegistrar","type":"address","internalType":"contract BaseRegistrar"},{"name":"_priceOracle","type":"address","internalType":"contract IPriceOracle"}],"stateMutability":"nonpayable"},{"type":"function","name":"MAX_COMMITMENT_AGE","inputs":[],"outputs":[{"name":"","type":"uint256","internalType":"uint256"}],"stateMutability":"view"},{"type":"function","name":"MIN_COMMITMENT_AGE","inputs":[],"outputs":[{"name":"","type":"uint256","internalType":"uint256"}],"stateMutability":"view"},{"type":"function","name":"MIN_REGISTRATION_DURATION","inputs":[],"outputs":[{"name":"","type":"uint256","internalType":"uint256"}],"stateMutability":"view"},{"type":"function","name":"SEL_NODE","inputs":[],"outputs":[{"name":"","type":"bytes32","internalType":"bytes32"}],"stateMutability":"view"},{"type":"function","name":"available","inputs":[{"name":"name","type":"string","internalType":"string"}],"outputs":[{"name":"","type":"bool","internalType":"bool"}],"stateMutability":"view"},{"type":"function","name":"baseRegistrar","inputs":[],"outputs":[{"name":"","type":"address","internalType":"contract BaseRegistrar"}],"stateMutability":"view"},{"type":"function","name":"commit","inputs":[{"name":"commitment","type":"bytes32","internalType":"bytes32"}],"outputs":[],"stateMutability":"nonpayable"},{"type":"function","name":"commitments","inputs":[{"name":"","type":"bytes32","internalType":"bytes32"}],"outputs":[{"name":"","type":"uint256","internalType":"uint256"}],"stateMutability":"view"},{"type":"function","name":"makeCommitment","inputs":[{"name":"name","type":"string","internalType":"string"},{"name":"owner","type":"address","internalType":"address"},{"name":"duration","type":"uint256","internalType":"uint256"},{"name":"secret","type":"bytes32","internalType":"bytes32"},{"name":"resolver","type":"address","internalType":"address"},{"name":"data","type":"bytes[]","internalType":"bytes[]"},{"name":"reverseRecord","type":"bool","internalType":"bool"}],"outputs":[{"name":"","type":"bytes32","internalType":"bytes32"}],"stateMutability":"pure"},{"type":"function","name":"priceOracle","inputs":[],"outputs":[{"name":"","type":"address","internalType":"contract IPriceOracle"}],"stateMutability":"view"},{"type":"function","name":"register","inputs":[{"name":"name","type":"string","internalType":"string"},{"name":"owner","type":"address","internalType":"address"},{"name":"duration","type":"uint256","internalType":"uint256"},{"name":"secret","type":"bytes32","internalType":"bytes32"},{"name":"resolver","type":"address","internalType":"address"},{"name":"data","type":"bytes[]","internalType":"bytes[]"},{"name":"reverseRecord","type":"bool","internalType":"bool"}],"outputs":[],"stateMutability":"payable"},{"type":"function","name":"renew","inputs":[{"name":"name","type":"string","internalType":"string"},{"name":"duration","type":"uint256","internalType":"uint256"}],"outputs":[],"stateMutability":"payable"},{"type":"function","name":"rentPrice","inputs":[{"name":"name","type":"string","internalType":"string"},{"name":"duration","type":"uint256","internalType":"uint256"}],"outputs":[{"name":"base","type":"uint256","internalType":"uint256"},{"name":"premium","type":"uint256","internalType":"uint256"}],"stateMutability":"view"},{"type":"function","name":"sns","inputs":[],"outputs":[{"name":"","type":"address","internalType":"contract ISNSRegistry"}],"stateMutability":"view"},{"type":"function","name":"valid","inputs":[{"name":"name","type":"string","internalType":"string"}],"outputs":[{"name":"","type":"bool","internalType":"bool"}],"stateMutability":"pure"},{"type":"function","name":"withdraw","inputs":[{"name":"to","type":"address","internalType":"address payable"}],"outputs":[],"stateMutability":"nonpayable"},{"type":"event","name":"Commit","inputs":[{"name":"commitment","type":"bytes32","indexed":true,"internalType":"bytes32"}],"anonymous":false},{"type":"event","name":"NameRegistered","inputs":[{"name":"name","type":"string","indexed":false,"internalType":"string"},{"name":"label","type":"bytes32","indexed":true,"internalType":"bytes32"},{"name":"owner","type":"address","indexed":true,"internalType":"address"},{"name":"cost","type":"uint256","indexed":false,"internalType":"uint256"},{"name":"expires","type":"uint256","indexed":false,"internalType":"uint256"}],"anonymous":false},{"type":"event","name":"NameRenewed","inputs":[{"name":"name","type":"string","indexed":false,"internalType":"string"},{"name":"label","type":"bytes32","indexed":true,"internalType":"bytes32"},{"name":"cost","type":"uint256","indexed":false,"internalType":"uint256"},{"name":"expires","type":"uint256","indexed":false,"internalType":"uint256"}],"anonymous":false}],"bytecode":{"object":"0x60c0346100ce57601f61130438819003918201601f19168301916001600160401b038311848410176100d3578084926060946040528339810103126100ce5780516001600160a01b03919082811681036100ce5760208201519183831683036100ce57604001519283168093036100ce5760805260a052600080546001600160a01b03191691909117905560405161121a90816100ea8239608051816105a5015260a0518181816102410152818161051901528181610819015281816108f801528181610afd0152610f270152f35b600080fd5b634e487b7160e01b600052604160045260246000fdfe6080604052600436101561001257600080fd5b60003560e01c8063237592e81461069b5780632630c12f146106725780632e4f692a146106565780633d4aa89e146105d457806340288a981461058f57806351cff8d91461054857806374f0456514610503578063839df945146104d757806383e7f6ff1461048d5780638a95b09f1461046e5780638ccb9ea6146104505780639791c09714610416578063acf1a841146101f3578063aeb8ce9b146101af578063bffc42f6146101745763f14fcbc8146100cc57600080fd5b3461016f57602036600319011261016f5760043580600052600160205260406000205461012a57806000526001602052426040600020557f9e8a51bb6b34b9d5d18c14fd753ee3bf44e2256512665a4577281ffcc91943ff600080a2005b60405162461bcd60e51b815260206004820152601960248201527f436f6d6d69746d656e7420616c726561647920657869737473000000000000006044820152606490fd5b600080fd5b3461016f57600036600319011261016f5760206040517f6e5e8a6db7e0f8f8c9c4e5d6b7a8e9f0a1b2c3d4e5f6a7b8c9d0e1f2a3b4c5d68152f35b3461016f57602036600319011261016f576004356001600160401b03811161016f576101e96101e46020923690600401610dab565b610eee565b6040519015158152f35b604036600319011261016f576004356001600160401b03811161016f5761021e903690600401610ca0565b906024359161022e368284610d74565b9081516020809301209260018060a01b037f0000000000000000000000000000000000000000000000000000000000000000166040516312dc929d60e31b81528560048201528481602481855afa908115610347576000916103e9575b506103ae578360009160446102aa896102a5368989610d74565b610fbb565b50986102b88a34101561117d565b604051948593849263c475abff60e01b84528b600485015260248401525af19384156103475760009461035c575b505061031a7f3da24c024582931cfaf8267d8ed24d13a82a8068d5bd337d30ec45cea4e506ae9386604051948594856111c0565b0390a280341161032657005b60008080610335819434610dd8565b818115610353575b3390f11561034757005b6040513d6000823e3d90fd5b506108fc61033d565b90809450813d83116103a7575b6103738183610d38565b8101031261016f5761031a7f3da24c024582931cfaf8267d8ed24d13a82a8068d5bd337d30ec45cea4e506ae9351936102e6565b503d610369565b60405162461bcd60e51b815260048101859052601360248201527213985b59481b9bdd081c9959da5cdd195c9959606a1b6044820152606490fd5b6104099150853d871161040f575b6104018183610d38565b810190610ed6565b8761028b565b503d6103f7565b3461016f57602036600319011261016f576004356001600160401b03811161016f576101e961044b6020923690600401610dab565b610de5565b3461016f57600036600319011261016f576020604051620151808152f35b3461016f57600036600319011261016f5760206040516301e133808152f35b3461016f57604036600319011261016f576004356001600160401b03811161016f576104cb6104c26040923690600401610dab565b60243590610fbb565b82519182526020820152f35b3461016f57602036600319011261016f5760043560005260016020526020604060002054604051908152f35b3461016f57600036600319011261016f576040517f00000000000000000000000000000000000000000000000000000000000000006001600160a01b03168152602090f35b3461016f57602036600319011261016f576004356001600160a01b0381169081900361016f576000808080934790828215610586575bf11561034757005b506108fc61057e565b3461016f57600036600319011261016f576040517f00000000000000000000000000000000000000000000000000000000000000006001600160a01b03168152602090f35b3461016f5760e036600319011261016f576001600160401b0360043581811161016f57610605903690600401610dab565b9061060e610ccd565b91610617610ce3565b60a43592831161016f5760209361063561064e943690600401610cf9565b929091610640610d29565b946064359160443591611083565b604051908152f35b3461016f57600036600319011261016f576020604051603c8152f35b3461016f57600036600319011261016f576000546040516001600160a01b039091168152602090f35b60e036600319011261016f576004356001600160401b03811161016f576106c6903690600401610ca0565b6106ce610ccd565b906106d7610ce3565b60a4356001600160401b03811161016f576106f6903690600401610cf9565b949093610701610d29565b94610720868883876064356044358861071b368e8d610d74565b611083565b8060005260016020526040600020548015610c6557603c8101808211610b67574210610c2b57620151808101809111610b67574211610bf1576000526001602052600060408120556107766101e4368786610d74565b15610bb7576301e1338060443510610b7d576107996044356102a5368887610d74565b9690978789018911610b67576107b3888a0134101561117d565b6107be368887610d74565b8051602090910120956001600160a01b03811615610ac2576040516329a67d4d60e11b8152600481018890526001600160a01b03868116602483015260448035908301528281166064830152602090829060849082906000907f0000000000000000000000000000000000000000000000000000000000000000165af190811561034757600091610a90575b50935b6001600160a01b03821680151590610a87575b6108e3575b5050507fca6abbe9d7f11422cb6ca7629fbf6fe9efb1c621f71ce8f02b9f2a230097404f9392916108b2916108d2575b6040516001600160a01b0390931696929384938a8a0191856111c0565b0390a380820134116108c057005b60008061033581949382940134610dd8565b6108dd368886610d74565b50610895565b604051630ddf7fcb60e41b81526020816004817f00000000000000000000000000000000000000000000000000000000000000006001600160a01b03165afa90811561034757600091610a55575b50604051906020820152886040820152604081528060608101106001600160401b03606083011117610a3f5760600160405260005b8381106109735750610865565b8060051b820135601e198336030181121561016f5782018035906001600160401b03821161016f57602001813603811361016f578160009291839260405192839283378101838152039082875af13d15610a3a573d6109d181610d59565b906109df6040519283610d38565b8152600060203d92013e5b156109fd576109f890610dc9565b610966565b60405162461bcd60e51b8152602060048201526015602482015274149958dbdc99081cd95d1d1a5b99c819985a5b1959605a1b6044820152606490fd5b6109ea565b634e487b7160e01b600052604160045260246000fd5b90506020813d602011610a7f575b81610a7060209383610d38565b8101031261016f57518c610931565b3d9150610a63565b50821515610860565b90506020813d602011610aba575b81610aab60209383610d38565b8101031261016f57518b61084a565b3d9150610a9e565b604051633f2891eb60e21b8152600481018890526001600160a01b0386811660248301526044803590830152602090829060649082906000907f0000000000000000000000000000000000000000000000000000000000000000165af190811561034757600091610b35575b509361084d565b90506020813d602011610b5f575b81610b5060209383610d38565b8101031261016f57518b610b2e565b3d9150610b43565b634e487b7160e01b600052601160045260246000fd5b60405162461bcd60e51b8152602060048201526012602482015271111d5c985d1a5bdb881d1bdbc81cda1bdc9d60721b6044820152606490fd5b60405162461bcd60e51b81526020600482015260126024820152714e616d65206e6f7420617661696c61626c6560701b6044820152606490fd5b60405162461bcd60e51b815260206004820152601260248201527110dbdb5b5a5d1b595b9d08195e1c1a5c995960721b6044820152606490fd5b60405162461bcd60e51b8152602060048201526012602482015271436f6d6d69746d656e7420746f6f206e657760701b6044820152606490fd5b60405162461bcd60e51b8152602060048201526013602482015272139bc818dbdb5b5a5d1b595b9d08199bdd5b99606a1b6044820152606490fd5b9181601f8401121561016f578235916001600160401b03831161016f576020838186019501011161016f57565b602435906001600160a01b038216820361016f57565b608435906001600160a01b038216820361016f57565b9181601f8401121561016f578235916001600160401b03831161016f576020808501948460051b01011161016f57565b60c43590811515820361016f57565b90601f801991011681019081106001600160401b03821117610a3f57604052565b6001600160401b038111610a3f57601f01601f191660200190565b929192610d8082610d59565b91610d8e6040519384610d38565b82948184528183011161016f578281602093846000960137010152565b9080601f8301121561016f57816020610dc693359101610d74565b90565b6000198114610b675760010190565b91908203918211610b6757565b805160038110610e6257603f10610ed05760005b815180821015610ec85760ff60f81b602083850101511690606160f81b8210159182610eb9575b600360fc1b8110159081610eaa575b602d60f81b1492159081610ea1575b5080610e99575b610e905781610e69575b50610e6257610e5d90610dc9565b610df9565b5050600090565b821591508115610e7b575b5038610e4f565b600019810191508111610b6757811438610e74565b50505050600090565b508115610e45565b90501538610e3e565b603960f81b8111159150610e2f565b603d60f91b8111159250610e20565b505050600190565b50600090565b9081602091031261016f5751801515810361016f5790565b610efe8151602083012091610de5565b9081610f08575090565b6040516312dc929d60e31b8152600481019190915290506020816024817f00000000000000000000000000000000000000000000000000000000000000006001600160a01b03165afa90811561034757600091610f63575090565b610dc6915060203d811161040f576104018183610d38565b919082519283825260005b848110610fa7575050826000602080949584010152601f8019910116010190565b602081830181015184830182015201610f86565b600080546040805162cdcc4d60e51b8152600481018290529295949093849284926001600160a01b039091169183918291610ffa906044840190610f7b565b90602483015203915afa938415611057578092819561101b575b5050509190565b919450915083813d8111611050575b6110348183610d38565b8101031261104d57506020825192015191388080611014565b80fd5b503d61102a565b8251903d90823e3d90fd5b908060209392818452848401376000828201840152601f01601f1916010190565b969490959392936040519687946020966110a98888019b60e08d52610100890190610f7b565b9560018060a01b038094166040890152606088015260808701521660a0850152601f1994858585030160c086015281845280840193818360051b82010194846000925b858410611117575050505050505061111193151560e083015203908101835282610d38565b51902090565b91939598809a9850828892949698030184528835601e198436030181121561016f5783018681019190356001600160401b03811161016f57803603831361016f5761116788928392600195611062565b9a0194019401918a9799989694919593956110ec565b1561118457565b60405162461bcd60e51b8152602060048201526014602482015273125b9cdd59999a58da595b9d081c185e5b595b9d60621b6044820152606490fd5b906111da9060409396959496606084526060840191611062565b946020820152015256fea2646970667358221220fa9e09e5d49d21b4c23926bb510feedc8fbbf7222c3cf008fe0bc875692d195664736f6c63430008140033","linkReferences":{}},"methodIdentifiers":{"MAX_COMMITMENT_AGE()":"8ccb9ea6","MIN_COMMITMENT_AGE()":"2e4f692a","MIN_REGISTRATION_DURATION()":"8a95b09f","SEL_NODE()":"bffc42f6","available(string)":"aeb8ce9b","baseRegistrar()":"74f04565","commit(bytes32)":"f14fcbc8","commitments(bytes32)":"839df945","makeCommitment(string,address,uint256,bytes32,address,bytes[],bool)":"3d4aa89e","priceOracle()":"2630c12f","register(string,address,uint256,bytes32,address,bytes[],bool)":"237592e8","renew(string,uint256)":"acf1a841","rentPrice(string,uint256)":"83e7f6ff","sns()":"40288a98","valid(string)":"9791c097","withdraw(address)":"51cff8d9"},"id":32}