{"abi":[{"type":"constructor","inputs":[{"name":"_sns","type":"address","internalType":"contract ISNSRegistry"},{"name":"_baseRegistrar","type":"address","internalType":"contract BaseRegistrar"},{"name":"_priceOracle","type":"address","internalType":"contract IPriceOracle"}],"stateMutability":"nonpayable"},{"type":"function","name":"MAX_COMMITMENT_AGE","inputs":[],"outputs":[{"name":"","type":"uint256","internalType":"uint256"}],"stateMutability":"view"},{"type":"function","name":"MIN_COMMITMENT_AGE","inputs":[],"outputs":[{"name":"","type":"uint256","internalType":"uint256"}],"stateMutability":"view"},{"type":"function","name":"MIN_REGISTRATION_DURATION","inputs":[],"outputs":[{"name":"","type":"uint256","internalType":"uint256"}],"stateMutability":"view"},{"type":"function","name":"SEL_NODE","inputs":[],"outputs":[{"name":"","type":"bytes32","internalType":"bytes32"}],"stateMutability":"view"},{"type":"function","name":"available","inputs":[{"name":"name","type":"string","internalType":"string"}],"outputs":[{"name":"","type":"bool","internalType":"bool"}],"stateMutability":"view"},{"type":"function","name":"baseRegistrar","inputs":[],"outputs":[{"name":"","type":"address","internalType":"contract BaseRegistrar"}],"stateMutability":"view"},{"type":"function","name":"commit","inputs":[{"name":"commitment","type":"bytes32","internalType":"bytes32"}],"outputs":[],"stateMutability":"nonpayable"},{"type":"function","name":"commitments","inputs":[{"name":"","type":"bytes32","internalType":"bytes32"}],"outputs":[{"name":"","type":"uint256","internalType":"uint256"}],"stateMutability":"view"},{"type":"function","name":"isReserved","inputs":[{"name":"name","type":"string","internalType":"string"}],"outputs":[{"name":"","type":"bool","internalType":"bool"}],"stateMutability":"view"},{"type":"function","name":"makeCommitment","inputs":[{"name":"name","type":"string","internalType":"string"},{"name":"owner","type":"address","internalType":"address"},{"name":"duration","type":"uint256","internalType":"uint256"},{"name":"secret","type":"bytes32","internalType":"bytes32"},{"name":"resolver","type":"address","internalType":"address"},{"name":"data","type":"bytes[]","internalType":"bytes[]"},{"name":"reverseRecord","type":"bool","internalType":"bool"}],"outputs":[{"name":"","type":"bytes32","internalType":"bytes32"}],"stateMutability":"pure"},{"type":"function","name":"owner","inputs":[],"outputs":[{"name":"","type":"address","internalType":"address"}],"stateMutability":"view"},{"type":"function","name":"priceOracle","inputs":[],"outputs":[{"name":"","type":"address","internalType":"contract IPriceOracle"}],"stateMutability":"view"},{"type":"function","name":"register","inputs":[{"name":"name","type":"string","internalType":"string"},{"name":"owner","type":"address","internalType":"address"},{"name":"duration","type":"uint256","internalType":"uint256"},{"name":"secret","type":"bytes32","internalType":"bytes32"},{"name":"resolver","type":"address","internalType":"address"},{"name":"data","type":"bytes[]","internalType":"bytes[]"},{"name":"reverseRecord","type":"bool","internalType":"bool"}],"outputs":[],"stateMutability":"payable"},{"type":"function","name":"registerReserved","inputs":[{"name":"name","type":"string","internalType":"string"},{"name":"owner","type":"address","internalType":"address"},{"name":"duration","type":"uint256","internalType":"uint256"},{"name":"resolver","type":"address","internalType":"address"}],"outputs":[],"stateMutability":"nonpayable"},{"type":"function","name":"renew","inputs":[{"name":"name","type":"string","internalType":"string"},{"name":"duration","type":"uint256","internalType":"uint256"}],"outputs":[],"stateMutability":"payable"},{"type":"function","name":"renounceOwnership","inputs":[],"outputs":[],"stateMutability":"nonpayable"},{"type":"function","name":"rentPrice","inputs":[{"name":"name","type":"string","internalType":"string"},{"name":"duration","type":"uint256","internalType":"uint256"}],"outputs":[{"name":"base","type":"uint256","internalType":"uint256"},{"name":"premium","type":"uint256","internalType":"uint256"}],"stateMutability":"view"},{"type":"function","name":"reserveName","inputs":[{"name":"name","type":"string","internalType":"string"}],"outputs":[],"stateMutability":"nonpayable"},{"type":"function","name":"reserveNames","inputs":[{"name":"names","type":"string[]","internalType":"string[]"}],"outputs":[],"stateMutability":"nonpayable"},{"type":"function","name":"reservedNames","inputs":[{"name":"","type":"bytes32","internalType":"bytes32"}],"outputs":[{"name":"","type":"bool","internalType":"bool"}],"stateMutability":"view"},{"type":"function","name":"setPriceOracle","inputs":[{"name":"newOracle","type":"address","internalType":"contract IPriceOracle"}],"outputs":[],"stateMutability":"nonpayable"},{"type":"function","name":"sns","inputs":[],"outputs":[{"name":"","type":"address","internalType":"contract ISNSRegistry"}],"stateMutability":"view"},{"type":"function","name":"transferOwnership","inputs":[{"name":"newOwner","type":"address","internalType":"address"}],"outputs":[],"stateMutability":"nonpayable"},{"type":"function","name":"unreserveName","inputs":[{"name":"name","type":"string","internalType":"string"}],"outputs":[],"stateMutability":"nonpayable"},{"type":"function","name":"valid","inputs":[{"name":"name","type":"string","internalType":"string"}],"outputs":[{"name":"","type":"bool","internalType":"bool"}],"stateMutability":"pure"},{"type":"function","name":"withdraw","inputs":[{"name":"to","type":"address","internalType":"address payable"}],"outputs":[],"stateMutability":"nonpayable"},{"type":"event","name":"Commit","inputs":[{"name":"commitment","type":"bytes32","indexed":true,"internalType":"bytes32"}],"anonymous":false},{"type":"event","name":"NameRegistered","inputs":[{"name":"name","type":"string","indexed":false,"internalType":"string"},{"name":"label","type":"bytes32","indexed":true,"internalType":"bytes32"},{"name":"owner","type":"address","indexed":true,"internalType":"address"},{"name":"cost","type":"uint256","indexed":false,"internalType":"uint256"},{"name":"expires","type":"uint256","indexed":false,"internalType":"uint256"}],"anonymous":false},{"type":"event","name":"NameRenewed","inputs":[{"name":"name","type":"string","indexed":false,"internalType":"string"},{"name":"label","type":"bytes32","indexed":true,"internalType":"bytes32"},{"name":"cost","type":"uint256","indexed":false,"internalType":"uint256"},{"name":"expires","type":"uint256","indexed":false,"internalType":"uint256"}],"anonymous":false},{"type":"event","name":"NameReserved","inputs":[{"name":"name","type":"string","indexed":false,"internalType":"string"},{"name":"label","type":"bytes32","indexed":true,"internalType":"bytes32"}],"anonymous":false},{"type":"event","name":"NameUnreserved","inputs":[{"name":"name","type":"string","indexed":false,"internalType":"string"},{"name":"label","type":"bytes32","indexed":true,"internalType":"bytes32"}],"anonymous":false},{"type":"event","name":"OwnershipTransferred","inputs":[{"name":"previousOwner","type":"address","indexed":true,"internalType":"address"},{"name":"newOwner","type":"address","indexed":true,"internalType":"address"}],"anonymous":false},{"type":"event","name":"PriceOracleUpdated","inputs":[{"name":"oldOracle","type":"address","indexed":true,"internalType":"address"},{"name":"newOracle","type":"address","indexed":true,"internalType":"address"}],"anonymous":false},{"type":"error","name":"OwnableInvalidOwner","inputs":[{"name":"owner","type":"address","internalType":"address"}]},{"type":"error","name":"OwnableUnauthorizedAccount","inputs":[{"name":"account","type":"address","internalType":"address"}]}],"bytecode":{"object":"0x60c03461012757601f611be338819003918201601f19168301916001600160401b0383118484101761012c578084926060946040528339810103126101275780516001600160a01b039190828116810361012757602082015191838316830361012757604001519183831680930361012757331561010e576000549160018060a01b0319923384821617600055604051953391167f8be0079c531659141344cd1fd0a4f28419497f9722a3daafe3b4186f6b6457e0600080a360805260a0526001541617600155611aa09081610143823960805181610c4b015260a0518181816101dc015281816107d701528181610ab70152818161100f015281816110e4015281816112bc01526117200152f35b604051631e4fbdf760e01b815260006004820152602490fd5b600080fd5b634e487b7160e01b600052604160045260246000fdfe6080604052600436101561001257600080fd5b60003560e01c8063237592e814610e925780632630c12f14610e695780632e4f692a14610e4d5780632fb80e8214610d815780633361c49e14610d2d578063389c074814610cfc5780633d4aa89e14610c7a57806340288a9814610c3557806351cff8d914610be6578063530e784f14610b3f578063715018a614610ae657806374f0456514610aa1578063839df94514610a7557806383e7f6ff14610a2b5780638a95b09f14610a0c5780638ccb9ea6146109ee5780638da5cb5b146109c55780639791c09714610990578063acf1a84114610789578063aeb8ce9b14610745578063bffc42f61461070a578063ca18b9e21461066c578063e1aab706146105cc578063f14fcbc814610529578063f2fde38b146104995763f6f953151461013a57600080fd5b34610309576080366003190112610309576004356001600160401b0381116103095761016a903690600401611467565b610172611494565b604435926064356001600160a01b0381811694919385850361030957610196611590565b6101a136848661153b565b96875160208099012096876000526003895260ff6040600020541615610460576101d46101cf36878961153b565b6115d8565b1561042c57837f000000000000000000000000000000000000000000000000000000000000000016906040516312dc929d60e31b81528960048201528a81602481865afa908115610315576000916103ff575b50156103ba578992919015610321576040516329a67d4d60e11b8152600481018a90526001600160a01b0385811660248301526044820193909352979091166064880152869060849082906000905af18015610315576000906102d5575b600080516020611a4b83398151915295505b8660005260038852604060002060ff19815416905560006102c5604051968796606088526060880191611871565b98850152604084015216940390a3005b508685813d831161030e575b6102eb81836114ff565b8101031261030957600080516020611a4b8339815191529451610285565b600080fd5b503d6102e1565b6040513d6000823e3d90fd5b604051633f2891eb60e21b8152600481018a90526001600160a01b03851660248201526044810192909252909650869060649082906000905af180156103155760009061037f575b600080516020611a4b8339815191529550610297565b508685813d83116103b3575b61039581836114ff565b8101031261030957600080516020611a4b8339815191529451610369565b503d61038b565b60405162461bcd60e51b8152600481018b9052601760248201527f4e616d6520616c726561647920726567697374657265640000000000000000006044820152606490fd5b61041f91508b3d8d11610425575b61041781836114ff565b8101906116c9565b38610227565b503d61040d565b60405162461bcd60e51b8152600481018a9052600c60248201526b496e76616c6964206e616d6560a01b6044820152606490fd5b60405162461bcd60e51b8152600481018a9052601160248201527013985b59481b9bdd081c995cd95c9d9959607a1b6044820152606490fd5b34610309576020366003190112610309576004356001600160a01b0381811691829003610309576104c8611590565b811561051057600054826bffffffffffffffffffffffff60a01b821617600055167f8be0079c531659141344cd1fd0a4f28419497f9722a3daafe3b4186f6b6457e0600080a3005b604051631e4fbdf760e01b815260006004820152602490fd5b346103095760203660031901126103095760043580600052600260205260406000205461058757806000526002602052426040600020557f9e8a51bb6b34b9d5d18c14fd753ee3bf44e2256512665a4577281ffcc91943ff600080a2005b60405162461bcd60e51b815260206004820152601960248201527f436f6d6d69746d656e7420616c726561647920657869737473000000000000006044820152606490fd5b34610309576020366003190112610309576004356001600160401b0381116103095761061d7f27128eba5ed9df9217ecefc0c9f33954ae127fbaac30c31185d24adb865e70ac913690600401611467565b9190610627611590565b61063236848361153b565b6020815191012092836000526003602052604060002060ff198154169055610667604051928392602084526020840191611871565b0390a2005b34610309576020366003190112610309576004356001600160401b038111610309576106bd7fc93d9f0628609b6384479aacf2a7a902a3e5bae5835e2c9ae103de69314e13bf913690600401611467565b91906106c7611590565b6106d236848361153b565b60208151910120928360005260036020526040600020600160ff19825416179055610667604051928392602084526020840191611871565b346103095760003660031901126103095760206040517f6e5e8a6db7e0f8f8c9c4e5d6b7a8e9f0a1b2c3d4e5f6a7b8c9d0e1f2a3b4c5d68152f35b34610309576020366003190112610309576004356001600160401b0381116103095761077f61077a6020923690600401611572565b6116e1565b6040519015158152f35b6040366003190112610309576004356001600160401b038111610309576107b4903690600401611467565b90602435916107c436828461153b565b9081516020809301209260018060a01b037f0000000000000000000000000000000000000000000000000000000000000000166040516312dc929d60e31b81528560048201528481602481855afa90811561031557600091610973575b50610938578360009160446108408961083b36898961153b565b6117cf565b509861084e8a34101561198c565b604051948593849263c475abff60e01b84528b600485015260248401525af1938415610315576000946108e6575b50506108b07f3da24c024582931cfaf8267d8ed24d13a82a8068d5bd337d30ec45cea4e506ae9386604051948594856119cf565b0390a28034116108bc57005b600080806108cb8194346115cb565b8181156108dd575b3390f11561031557005b506108fc6108d3565b90809450813d8311610931575b6108fd81836114ff565b81010312610309576108b07f3da24c024582931cfaf8267d8ed24d13a82a8068d5bd337d30ec45cea4e506ae93519361087c565b503d6108f3565b60405162461bcd60e51b815260048101859052601360248201527213985b59481b9bdd081c9959da5cdd195c9959606a1b6044820152606490fd5b61098a9150853d87116104255761041781836114ff565b87610821565b34610309576020366003190112610309576004356001600160401b0381116103095761077f6101cf6020923690600401611572565b34610309576000366003190112610309576000546040516001600160a01b039091168152602090f35b34610309576000366003190112610309576020604051620151808152f35b346103095760003660031901126103095760206040516301e133808152f35b34610309576040366003190112610309576004356001600160401b03811161030957610a69610a606040923690600401611572565b602435906117cf565b82519182526020820152f35b346103095760203660031901126103095760043560005260026020526020604060002054604051908152f35b34610309576000366003190112610309576040517f00000000000000000000000000000000000000000000000000000000000000006001600160a01b03168152602090f35b3461030957600036600319011261030957610aff611590565b600080546001600160a01b0319811682556001600160a01b03167f8be0079c531659141344cd1fd0a4f28419497f9722a3daafe3b4186f6b6457e08280a3005b34610309576020366003190112610309576004356001600160a01b038181169182900361030957610b6e611590565b8115610bb057816001549182167f56b5f80d8cac1479698aa7d01605fd6111e90b15fc4d2b377417f46034876cbd600080a36001600160a01b03191617600155005b60405162461bcd60e51b815260206004820152600e60248201526d496e76616c6964206f7261636c6560901b6044820152606490fd5b34610309576020366003190112610309576004356001600160a01b0381169081900361030957600080808093610c1a611590565b4790828215610c2c575bf11561031557005b506108fc610c24565b34610309576000366003190112610309576040517f00000000000000000000000000000000000000000000000000000000000000006001600160a01b03168152602090f35b346103095760e0366003190112610309576001600160401b0360043581811161030957610cab903690600401611572565b90610cb4611494565b91610cbd6114aa565b60a43592831161030957602093610cdb610cf49436906004016114c0565b929091610ce66114f0565b946064359160443591611892565b604051908152f35b34610309576020366003190112610309576004356000526003602052602060ff604060002054166040519015158152f35b34610309576020366003190112610309576004356001600160401b03811161030957610d5d903690600401611572565b602081519101206000526003602052602060ff604060002054166040519015158152f35b3461030957602080600319360112610309576004356001600160401b03811161030957610db29036906004016114c0565b9190610dbc611590565b60005b838110610dc857005b80610de1610dda610e489387866119f3565b369161153b565b84815191012080600052600385526040600020600160ff198254161790557fc93d9f0628609b6384479aacf2a7a902a3e5bae5835e2c9ae103de69314e13bf610e2b8388876119f3565b610e406040519283928a84528a840191611871565b0390a26115bc565b610dbf565b34610309576000366003190112610309576020604051600a8152f35b34610309576000366003190112610309576001546040516001600160a01b039091168152602090f35b60e0366003190112610309576004356001600160401b03811161030957610ebd903690600401611467565b90610ec6611494565b91610ecf6114aa565b60a4356001600160401b03811161030957610eee9036906004016114c0565b939094610ef96114f0565b94610f188682898760643560443588610f13368e8d61153b565b611892565b806000526002602052604060002054801561142c57600a810180821161132e5742106113f25762015180810180911161132e5742116113b857600052600260205260006040812055610f6e61077a36878661153b565b1561137e576301e133806044351061134457610f9160443561083b36888761153b565b969097878901891161132e57610fab888a0134101561198c565b610fb636888761153b565b8051602090910120956001600160a01b03811615611283576040516329a67d4d60e11b8152600481018890526001600160a01b0380871660248301526044803590830152821660648201526020818060848101038160007f00000000000000000000000000000000000000000000000000000000000000006001600160a01b03165af190811561031557600091611251575b50935b6001600160a01b03821680151590611248575b6110cf575b505050600080516020611a4b83398151915293929161109e916110be575b6040516001600160a01b0390931696929384938a8a0191856119cf565b0390a380820134116110ac57005b6000806108cb819493829401346115cb565b6110c936888661153b565b50611081565b604051630ddf7fcb60e41b81526020816004817f00000000000000000000000000000000000000000000000000000000000000006001600160a01b03165afa90811561031557600091611216575b50604051906020820152886040820152604081528060608101106001600160401b036060830111176112005760600160405260005b81811061115f5750611063565b60008061116d8385886119f3565b908160405192839283378101838152039082875af13d156111fb573d61119281611520565b906111a060405192836114ff565b8152600060203d92013e5b156111be576111b9906115bc565b611152565b60405162461bcd60e51b8152602060048201526015602482015274149958dbdc99081cd95d1d1a5b99c819985a5b1959605a1b6044820152606490fd5b6111ab565b634e487b7160e01b600052604160045260246000fd5b90506020813d602011611240575b81611231602093836114ff565b8101031261030957518c61111d565b3d9150611224565b5080151561105e565b90506020813d60201161127b575b8161126c602093836114ff565b8101031261030957518b611048565b3d915061125f565b604051633f2891eb60e21b8152600481018890526001600160a01b038616602482015260448035908201526020818060648101038160007f00000000000000000000000000000000000000000000000000000000000000006001600160a01b03165af1908115610315576000916112fc575b509361104b565b90506020813d602011611326575b81611317602093836114ff565b8101031261030957518b6112f5565b3d915061130a565b634e487b7160e01b600052601160045260246000fd5b60405162461bcd60e51b8152602060048201526012602482015271111d5c985d1a5bdb881d1bdbc81cda1bdc9d60721b6044820152606490fd5b60405162461bcd60e51b81526020600482015260126024820152714e616d65206e6f7420617661696c61626c6560701b6044820152606490fd5b60405162461bcd60e51b815260206004820152601260248201527110dbdb5b5a5d1b595b9d08195e1c1a5c995960721b6044820152606490fd5b60405162461bcd60e51b8152602060048201526012602482015271436f6d6d69746d656e7420746f6f206e657760701b6044820152606490fd5b60405162461bcd60e51b8152602060048201526013602482015272139bc818dbdb5b5a5d1b595b9d08199bdd5b99606a1b6044820152606490fd5b9181601f84011215610309578235916001600160401b038311610309576020838186019501011161030957565b602435906001600160a01b038216820361030957565b608435906001600160a01b038216820361030957565b9181601f84011215610309578235916001600160401b038311610309576020808501948460051b01011161030957565b60c43590811515820361030957565b90601f801991011681019081106001600160401b0382111761120057604052565b6001600160401b03811161120057601f01601f191660200190565b92919261154782611520565b9161155560405193846114ff565b829481845281830111610309578281602093846000960137010152565b9080601f830112156103095781602061158d9335910161153b565b90565b6000546001600160a01b031633036115a457565b60405163118cdaa760e01b8152336004820152602490fd5b600019811461132e5760010190565b9190820391821161132e57565b80516003811061165557603f106116c35760005b8151808210156116bb5760ff60f81b602083850101511690606160f81b82101591826116ac575b600360fc1b811015908161169d575b602d60f81b1492159081611694575b508061168c575b611683578161165c575b5061165557611650906115bc565b6115ec565b5050600090565b82159150811561166e575b5038611642565b60001981019150811161132e57811438611667565b50505050600090565b508115611638565b90501538611631565b603960f81b8111159150611622565b603d60f91b8111159250611613565b505050600190565b50600090565b90816020910312610309575180151581036103095790565b6116f181516020830120916115d8565b9081611774575b81611701575090565b6040516312dc929d60e31b8152600481019190915290506020816024817f00000000000000000000000000000000000000000000000000000000000000006001600160a01b03165afa9081156103155760009161175c575090565b61158d915060203d81116104255761041781836114ff565b809150600052600360205260ff6040600020541615906116f8565b919082519283825260005b8481106117bb575050826000602080949584010152601f8019910116010190565b60208183018101518483018201520161179a565b6001546040805162cdcc4d60e51b81526004810182905294939092839286926001600160a01b03909116918391829161180c90604484019061178f565b90602483015203915afa92831561186657600091829461182d575b50509190565b90809450813d831161185f575b61184481836114ff565b8101031261185c575060208251920151913880611827565b80fd5b503d61183a565b50513d6000823e3d90fd5b908060209392818452848401376000828201840152601f01601f1916010190565b969490959392936040519687946020966118b88888019b60e08d5261010089019061178f565b9560018060a01b038094166040890152606088015260808701521660a0850152601f1994858585030160c086015281845280840193818360051b82010194846000925b858410611926575050505050505061192093151560e0830152039081018352826114ff565b51902090565b91939598809a9850828892949698030184528835601e19843603018112156103095783018681019190356001600160401b0381116103095780360383136103095761197688928392600195611871565b9a0194019401918a9799989694919593956118fb565b1561199357565b60405162461bcd60e51b8152602060048201526014602482015273125b9cdd59999a58da595b9d081c185e5b595b9d60621b6044820152606490fd5b906119e99060409396959496606084526060840191611871565b9460208201520152565b9190811015611a345760051b81013590601e19813603018212156103095701908135916001600160401b038311610309576020018236038113610309579190565b634e487b7160e01b600052603260045260246000fdfeca6abbe9d7f11422cb6ca7629fbf6fe9efb1c621f71ce8f02b9f2a230097404fa26469706673582212201de786e58eb0bff2a5f51416bd33bea48b1e08999f39fd7dbf8ffa6be3f99bfb64736f6c63430008140033","linkReferences":{}},"methodIdentifiers":{"MAX_COMMITMENT_AGE()":"8ccb9ea6","MIN_COMMITMENT_AGE()":"2e4f692a","MIN_REGISTRATION_DURATION()":"8a95b09f","SEL_NODE()":"bffc42f6","available(string)":"aeb8ce9b","baseRegistrar()":"74f04565","commit(bytes32)":"f14fcbc8","commitments(bytes32)":"839df945","isReserved(string)":"3361c49e","makeCommitment(string,address,uint256,bytes32,address,bytes[],bool)":"3d4aa89e","owner()":"8da5cb5b","priceOracle()":"2630c12f","register(string,address,uint256,bytes32,address,bytes[],bool)":"237592e8","registerReserved(string,address,uint256,address)":"f6f95315","renew(string,uint256)":"acf1a841","renounceOwnership()":"715018a6","rentPrice(string,uint256)":"83e7f6ff","reserveName(string)":"ca18b9e2","reserveNames(string[])":"2fb80e82","reservedNames(bytes32)":"389c0748","setPriceOracle(address)":"530e784f","sns()":"40288a98","transferOwnership(address)":"f2fde38b","unreserveName(string)":"e1aab706","valid(string)":"9791c097","withdraw(address)":"51cff8d9"},"id":39}