{"abi":[{"type":"constructor","inputs":[{"name":"_sns","type":"address","internalType":"contract ISNSRegistry"},{"name":"_baseRegistrar","type":"address","internalType":"contract BaseRegistrar"},{"name":"_priceOracle","type":"address","internalType":"contract IPriceOracle"}],"stateMutability":"nonpayable"},{"type":"function","name":"MAX_COMMITMENT_AGE","inputs":[],"outputs":[{"name":"","type":"uint256","internalType":"uint256"}],"stateMutability":"view"},{"type":"function","name":"MIN_COMMITMENT_AGE","inputs":[],"outputs":[{"name":"","type":"uint256","internalType":"uint256"}],"stateMutability":"view"},{"type":"function","name":"MIN_REGISTRATION_DURATION","inputs":[],"outputs":[{"name":"","type":"uint256","internalType":"uint256"}],"stateMutability":"view"},{"type":"function","name":"SEL_NODE","inputs":[],"outputs":[{"name":"","type":"bytes32","internalType":"bytes32"}],"stateMutability":"view"},{"type":"function","name":"available","inputs":[{"name":"name","type":"string","internalType":"string"}],"outputs":[{"name":"","type":"bool","internalType":"bool"}],"stateMutability":"view"},{"type":"function","name":"baseRegistrar","inputs":[],"outputs":[{"name":"","type":"address","internalType":"contract BaseRegistrar"}],"stateMutability":"view"},{"type":"function","name":"batchAvailable","inputs":[{"name":"names","type":"string[]","internalType":"string[]"}],"outputs":[{"name":"results","type":"bool[]","internalType":"bool[]"}],"stateMutability":"view"},{"type":"function","name":"batchCommit","inputs":[{"name":"commitmentList","type":"bytes32[]","internalType":"bytes32[]"}],"outputs":[],"stateMutability":"nonpayable"},{"type":"function","name":"batchRenew","inputs":[{"name":"names","type":"string[]","internalType":"string[]"},{"name":"duration","type":"uint256","internalType":"uint256"}],"outputs":[],"stateMutability":"payable"},{"type":"function","name":"batchRentPrice","inputs":[{"name":"names","type":"string[]","internalType":"string[]"},{"name":"duration","type":"uint256","internalType":"uint256"}],"outputs":[{"name":"basePrices","type":"uint256[]","internalType":"uint256[]"},{"name":"premiums","type":"uint256[]","internalType":"uint256[]"}],"stateMutability":"view"},{"type":"function","name":"commit","inputs":[{"name":"commitment","type":"bytes32","internalType":"bytes32"}],"outputs":[],"stateMutability":"nonpayable"},{"type":"function","name":"commitments","inputs":[{"name":"","type":"bytes32","internalType":"bytes32"}],"outputs":[{"name":"","type":"uint256","internalType":"uint256"}],"stateMutability":"view"},{"type":"function","name":"isReserved","inputs":[{"name":"name","type":"string","internalType":"string"}],"outputs":[{"name":"","type":"bool","internalType":"bool"}],"stateMutability":"view"},{"type":"function","name":"makeCommitment","inputs":[{"name":"name","type":"string","internalType":"string"},{"name":"owner","type":"address","internalType":"address"},{"name":"duration","type":"uint256","internalType":"uint256"},{"name":"secret","type":"bytes32","internalType":"bytes32"},{"name":"resolver","type":"address","internalType":"address"},{"name":"data","type":"bytes[]","internalType":"bytes[]"},{"name":"reverseRecord","type":"bool","internalType":"bool"}],"outputs":[{"name":"","type":"bytes32","internalType":"bytes32"}],"stateMutability":"pure"},{"type":"function","name":"multicall","inputs":[{"name":"data","type":"bytes[]","internalType":"bytes[]"}],"outputs":[{"name":"results","type":"bytes[]","internalType":"bytes[]"}],"stateMutability":"nonpayable"},{"type":"function","name":"owner","inputs":[],"outputs":[{"name":"","type":"address","internalType":"address"}],"stateMutability":"view"},{"type":"function","name":"priceOracle","inputs":[],"outputs":[{"name":"","type":"address","internalType":"contract IPriceOracle"}],"stateMutability":"view"},{"type":"function","name":"register","inputs":[{"name":"name","type":"string","internalType":"string"},{"name":"owner","type":"address","internalType":"address"},{"name":"duration","type":"uint256","internalType":"uint256"},{"name":"secret","type":"bytes32","internalType":"bytes32"},{"name":"resolver","type":"address","internalType":"address"},{"name":"data","type":"bytes[]","internalType":"bytes[]"},{"name":"reverseRecord","type":"bool","internalType":"bool"}],"outputs":[],"stateMutability":"payable"},{"type":"function","name":"registerReserved","inputs":[{"name":"name","type":"string","internalType":"string"},{"name":"owner","type":"address","internalType":"address"},{"name":"duration","type":"uint256","internalType":"uint256"},{"name":"resolver","type":"address","internalType":"address"}],"outputs":[],"stateMutability":"nonpayable"},{"type":"function","name":"renew","inputs":[{"name":"name","type":"string","internalType":"string"},{"name":"duration","type":"uint256","internalType":"uint256"}],"outputs":[],"stateMutability":"payable"},{"type":"function","name":"renounceOwnership","inputs":[],"outputs":[],"stateMutability":"nonpayable"},{"type":"function","name":"rentPrice","inputs":[{"name":"name","type":"string","internalType":"string"},{"name":"duration","type":"uint256","internalType":"uint256"}],"outputs":[{"name":"base","type":"uint256","internalType":"uint256"},{"name":"premium","type":"uint256","internalType":"uint256"}],"stateMutability":"view"},{"type":"function","name":"reserveName","inputs":[{"name":"name","type":"string","internalType":"string"}],"outputs":[],"stateMutability":"nonpayable"},{"type":"function","name":"reserveNames","inputs":[{"name":"names","type":"string[]","internalType":"string[]"}],"outputs":[],"stateMutability":"nonpayable"},{"type":"function","name":"reservedNames","inputs":[{"name":"","type":"bytes32","internalType":"bytes32"}],"outputs":[{"name":"","type":"bool","internalType":"bool"}],"stateMutability":"view"},{"type":"function","name":"setPriceOracle","inputs":[{"name":"newOracle","type":"address","internalType":"contract IPriceOracle"}],"outputs":[],"stateMutability":"nonpayable"},{"type":"function","name":"sns","inputs":[],"outputs":[{"name":"","type":"address","internalType":"contract ISNSRegistry"}],"stateMutability":"view"},{"type":"function","name":"transferOwnership","inputs":[{"name":"newOwner","type":"address","internalType":"address"}],"outputs":[],"stateMutability":"nonpayable"},{"type":"function","name":"unreserveName","inputs":[{"name":"name","type":"string","internalType":"string"}],"outputs":[],"stateMutability":"nonpayable"},{"type":"function","name":"valid","inputs":[{"name":"name","type":"string","internalType":"string"}],"outputs":[{"name":"","type":"bool","internalType":"bool"}],"stateMutability":"pure"},{"type":"function","name":"withdraw","inputs":[{"name":"to","type":"address","internalType":"address payable"}],"outputs":[],"stateMutability":"nonpayable"},{"type":"event","name":"Commit","inputs":[{"name":"commitment","type":"bytes32","indexed":true,"internalType":"bytes32"}],"anonymous":false},{"type":"event","name":"CommitmentConsumed","inputs":[{"name":"commitment","type":"bytes32","indexed":true,"internalType":"bytes32"},{"name":"registrant","type":"address","indexed":true,"internalType":"address"}],"anonymous":false},{"type":"event","name":"NameRegistered","inputs":[{"name":"name","type":"string","indexed":false,"internalType":"string"},{"name":"label","type":"bytes32","indexed":true,"internalType":"bytes32"},{"name":"owner","type":"address","indexed":true,"internalType":"address"},{"name":"cost","type":"uint256","indexed":false,"internalType":"uint256"},{"name":"expires","type":"uint256","indexed":false,"internalType":"uint256"}],"anonymous":false},{"type":"event","name":"NameRenewed","inputs":[{"name":"name","type":"string","indexed":false,"internalType":"string"},{"name":"label","type":"bytes32","indexed":true,"internalType":"bytes32"},{"name":"cost","type":"uint256","indexed":false,"internalType":"uint256"},{"name":"expires","type":"uint256","indexed":false,"internalType":"uint256"}],"anonymous":false},{"type":"event","name":"NameReserved","inputs":[{"name":"name","type":"string","indexed":false,"internalType":"string"},{"name":"label","type":"bytes32","indexed":true,"internalType":"bytes32"}],"anonymous":false},{"type":"event","name":"NameUnreserved","inputs":[{"name":"name","type":"string","indexed":false,"internalType":"string"},{"name":"label","type":"bytes32","indexed":true,"internalType":"bytes32"}],"anonymous":false},{"type":"event","name":"OwnershipTransferred","inputs":[{"name":"previousOwner","type":"address","indexed":true,"internalType":"address"},{"name":"newOwner","type":"address","indexed":true,"internalType":"address"}],"anonymous":false},{"type":"event","name":"PriceOracleUpdated","inputs":[{"name":"oldOracle","type":"address","indexed":true,"internalType":"address"},{"name":"newOracle","type":"address","indexed":true,"internalType":"address"}],"anonymous":false},{"type":"event","name":"WithdrawalCompleted","inputs":[{"name":"to","type":"address","indexed":true,"internalType":"address"},{"name":"amount","type":"uint256","indexed":false,"internalType":"uint256"}],"anonymous":false},{"type":"error","name":"OwnableInvalidOwner","inputs":[{"name":"owner","type":"address","internalType":"address"}]},{"type":"error","name":"OwnableUnauthorizedAccount","inputs":[{"name":"account","type":"address","internalType":"address"}]},{"type":"error","name":"SNS_CommitmentExists","inputs":[{"name":"commitment","type":"bytes32","internalType":"bytes32"}]},{"type":"error","name":"SNS_CommitmentExpired","inputs":[{"name":"commitment","type":"bytes32","internalType":"bytes32"},{"name":"madeAt","type":"uint256","internalType":"uint256"},{"name":"maxAge","type":"uint256","internalType":"uint256"}]},{"type":"error","name":"SNS_CommitmentNotFound","inputs":[{"name":"commitment","type":"bytes32","internalType":"bytes32"}]},{"type":"error","name":"SNS_CommitmentTooNew","inputs":[{"name":"commitment","type":"bytes32","internalType":"bytes32"},{"name":"madeAt","type":"uint256","internalType":"uint256"},{"name":"minAge","type":"uint256","internalType":"uint256"}]},{"type":"error","name":"SNS_DurationTooShort","inputs":[{"name":"duration","type":"uint256","internalType":"uint256"},{"name":"minDuration","type":"uint256","internalType":"uint256"}]},{"type":"error","name":"SNS_InsufficientPayment","inputs":[{"name":"sent","type":"uint256","internalType":"uint256"},{"name":"required","type":"uint256","internalType":"uint256"}]},{"type":"error","name":"SNS_InvalidName","inputs":[{"name":"name","type":"string","internalType":"string"},{"name":"reason","type":"string","internalType":"string"}]},{"type":"error","name":"SNS_InvalidOracle","inputs":[]},{"type":"error","name":"SNS_MulticallFailed","inputs":[{"name":"index","type":"uint256","internalType":"uint256"},{"name":"data","type":"bytes","internalType":"bytes"}]},{"type":"error","name":"SNS_NameNotAvailable","inputs":[{"name":"name","type":"string","internalType":"string"}]},{"type":"error","name":"SNS_NameNotReserved","inputs":[{"name":"name","type":"string","internalType":"string"}]},{"type":"error","name":"SNS_RefundFailed","inputs":[{"name":"recipient","type":"address","internalType":"address"},{"name":"amount","type":"uint256","internalType":"uint256"}]}],"bytecode":{"object":"0x60c0346200013757601f620021ce38819003918201601f19168301916001600160401b038311848410176200013c57808492606094604052833981010312620001375780516001600160a01b03919082811681036200013757602082015191838316830362000137576040015191838316809303620001375733156200011e576000549160018060a01b0319923384821617600055604051953391167f8be0079c531659141344cd1fd0a4f28419497f9722a3daafe3b4186f6b6457e0600080a360805260a052600154161760015561207b908162000153823960805181610f39015260a051818181610217015281816107d801528181610d0d01528181611319015281816113d30152818161154c0152818161178d0152611cb40152f35b604051631e4fbdf760e01b815260006004820152602490fd5b600080fd5b634e487b7160e01b600052604160045260246000fdfe6080604052600436101561001257600080fd5b60003560e01c8063059f7aae1461176a5780630c652a2a14611697578063237592e8146111765780632630c12f1461114d5780632e4f692a146111315780632fb80e821461106f5780633361c49e1461101b578063389c074814610fea5780633d4aa89e14610f6857806340288a9814610f2357806351cff8d914610ea3578063530e784f14610e2157806356191c0214610d95578063715018a614610d3c57806374f0456514610cf7578063839df94514610ccb57806383e7f6ff14610c815780638a95b09f14610c625780638ccb9ea614610c445780638d6f2cc814610b635780638da5cb5b14610b3a5780639791c09714610b05578063ac9650d81461099d578063acf1a8411461078a578063aeb8ce9b14610746578063bffc42f61461070b578063ca18b9e21461066d578063e1aab706146105cd578063f14fcbc814610557578063f2fde38b146104c75763f6f953151461017157600080fd5b3461034457600319608036820112610344576004356001600160401b038111610344576101a29036906004016119c2565b91906101ac6119ef565b6064356001600160a01b0381811695919392604435878603610344576101d0611b2f565b6101db368587611a66565b9788516020809a0120978860005260038a5260ff60406000205416156104a45761020e61020936888a611a66565b611b68565b156104495750837f000000000000000000000000000000000000000000000000000000000000000016906040516312dc929d60e31b81528960048201528a81602481865afa9081156103505760009161041c575b50156103f557899291901561035c576040516329a67d4d60e11b8152600481018a90526001600160a01b0385811660248301526044820193909352979091166064880152869060849082906000905af1801561035057600090610310575b60008051602061202683398151915295505b8660005260038852604060002060ff1981541690556000610300604051968796606088526060880191611dc5565b98850152604084015216940390a3005b508685813d8311610349575b6103268183611a2a565b810103126103445760008051602061202683398151915294516102c0565b600080fd5b503d61031c565b6040513d6000823e3d90fd5b604051633f2891eb60e21b8152600481018a90526001600160a01b03851660248201526044810192909252909650869060649082906000905af18015610350576000906103ba575b60008051602061202683398151915295506102d2565b508685813d83116103ee575b6103d08183611a2a565b810103126103445760008051602061202683398151915294516103a4565b503d6103c6565b60405163b4dcd39560e01b8152600481018b90528061041860248201898b611dc5565b0390fd5b61043c91508b3d8d11610442575b6104348183611a2a565b810190611c5d565b38610262565b503d61042a565b604080516302fa372d60e01b815260048101829052917f496e76616c69642063686172616374657273206f72206c656e677468000000008c61048f604486018b8d611dc5565b8581039384016024870152601c815201520190fd5b6040516325ef3e9d60e21b8152600481018b90528061041860248201898b611dc5565b34610344576020366003190112610344576004356001600160a01b0381811691829003610344576104f6611b2f565b811561053e57600054826bffffffffffffffffffffffff60a01b821617600055167f8be0079c531659141344cd1fd0a4f28419497f9722a3daafe3b4186f6b6457e0600080a3005b604051631e4fbdf760e01b815260006004820152602490fd5b34610344576020366003190112610344576004358060005260026020526040600020546105b557806000526002602052426040600020557f9e8a51bb6b34b9d5d18c14fd753ee3bf44e2256512665a4577281ffcc91943ff600080a2005b602490604051906361a80fe760e01b82526004820152fd5b34610344576020366003190112610344576004356001600160401b0381116103445761061e7f27128eba5ed9df9217ecefc0c9f33954ae127fbaac30c31185d24adb865e70ac9136906004016119c2565b9190610628611b2f565b610633368483611a66565b6020815191012092836000526003602052604060002060ff198154169055610668604051928392602084526020840191611dc5565b0390a2005b34610344576020366003190112610344576004356001600160401b038111610344576106be7fc93d9f0628609b6384479aacf2a7a902a3e5bae5835e2c9ae103de69314e13bf9136906004016119c2565b91906106c8611b2f565b6106d3368483611a66565b60208151910120928360005260036020526040600020600160ff19825416179055610668604051928392602084526020840191611dc5565b346103445760003660031901126103445760206040517f6e5e8a6db7e0f8f8c9c4e5d6b7a8e9f0a1b2c3d4e5f6a7b8c9d0e1f2a3b4c5d68152f35b34610344576020366003190112610344576004356001600160401b0381116103445761078061077b6020923690600401611a9d565b611c75565b6040519015158152f35b6040366003190112610344576004356001600160401b038111610344576107b59036906004016119c2565b90602435916107c5368284611a66565b9081516020809301209260018060a01b037f0000000000000000000000000000000000000000000000000000000000000000166040516312dc929d60e31b81528560048201528481602481855afa90811561035057600091610980575b5061095a5761083b86610836368686611a66565b611d23565b509586341061093b5760009160448692604051948593849263c475abff60e01b84528b600485015260248401525af1938415610350576000946108fb575b505061089b600080516020612006833981519152938660405194859485611eed565b0390a28034116108a757005b60008080806108b68534611b5b565b335af16108c1611f11565b50156108c957005b6108d66104189134611b5b565b6040516318a054bb60e11b815233600482015260248101919091529081906044820190565b90809450813d8311610934575b6109128183611a2a565b810103126103445761089b600080516020612006833981519152935193610879565b503d610908565b6040516304fe20ab60e51b815234600482015260248101889052604490fd5b5060405163b4dcd39560e01b815260048101849052918291610418916024840191611dc5565b6109979150853d8711610442576104348183611a2a565b87610822565b3461034457602080600319360112610344576004356001600160401b038111610344576109ce903690600401611960565b6109d781611f41565b916109e56040519384611a2a565b818352601f196109f483611f41565b018460005b828110610af65750505060005b828110610a6f575050506040519082820192808352815180945260408301938160408260051b8601019301916000955b828710610a435785850386f35b909192938280610a5f600193603f198a82030186528851611aef565b9601920196019592919092610a36565b600080610a7d838686611f58565b9081604051928392833781018381520390305af4610a99611f11565b9015610abf5790600191610aad8287611faf565b52610ab88186611faf565b5001610a06565b50610ace818461041894611f58565b9290604051938493632900c64b60e01b85526004850152604060248501526044840191611dc5565b606086820183015281016109f9565b34610344576020366003190112610344576004356001600160401b038111610344576107806102096020923690600401611a9d565b34610344576000366003190112610344576000546040516001600160a01b039091168152602090f35b3461034457602080600319360112610344576004356001600160401b03811161034457610b94903690600401611960565b90610b9e82611f41565b90610bac6040519283611a2a565b828252610bb883611f41565b8285019390601f190136853760005b818110610c145750505090604051928392818401908285525180915260408401929160005b828110610bfb57505050500390f35b8351151585528695509381019392810192600101610bec565b80610c2f61077b610c286001948688611f58565b3691611a66565b610c398287611faf565b901515905201610bc7565b34610344576000366003190112610344576020604051620151808152f35b346103445760003660031901126103445760206040516301e133808152f35b34610344576040366003190112610344576004356001600160401b03811161034457610cbf610cb66040923690600401611a9d565b60243590611d23565b82519182526020820152f35b346103445760203660031901126103445760043560005260026020526020604060002054604051908152f35b34610344576000366003190112610344576040517f00000000000000000000000000000000000000000000000000000000000000006001600160a01b03168152602090f35b3461034457600036600319011261034457610d55611b2f565b600080546001600160a01b0319811682556001600160a01b03167f8be0079c531659141344cd1fd0a4f28419497f9722a3daafe3b4186f6b6457e08280a3005b3461034457610da336611990565b91610dad82611fc3565b92610db783611fc3565b9260005b818110610df057610dde86610dec87604051938493604085526040850190611abb565b908382036020850152611abb565b0390f35b80610e0584610836610c28600195878a611f58565b610e0f8389611faf565b52610e1a8289611faf565b5201610dbb565b34610344576020366003190112610344576004356001600160a01b038181169182900361034457610e50611b2f565b8115610e9257816001549182167f56b5f80d8cac1479698aa7d01605fd6111e90b15fc4d2b377417f46034876cbd600080a36001600160a01b03191617600155005b60405162151d3f60e71b8152600490fd5b34610344576020366003190112610344576004356001600160a01b0381169081900361034457610ed1611b2f565b47600081838115610f19575b600092839283928392f1156103505760207f1a39b9c5044b9f0ff56c5951e30c1ebe24911353aafcceb9250e83a24fe158c491604051908152a2005b6108fc9250610edd565b34610344576000366003190112610344576040517f00000000000000000000000000000000000000000000000000000000000000006001600160a01b03168152602090f35b346103445760e0366003190112610344576001600160401b0360043581811161034457610f99903690600401611a9d565b90610fa26119ef565b91610fab611a05565b60a43592831161034457602093610fc9610fe2943690600401611960565b929091610fd4611a1b565b946064359160443591611de6565b604051908152f35b34610344576020366003190112610344576004356000526003602052602060ff604060002054166040519015158152f35b34610344576020366003190112610344576004356001600160401b0381116103445761104b903690600401611a9d565b602081519101206000526003602052602060ff604060002054166040519015158152f35b3461034457602080600319360112610344576004356001600160401b038111610344576110a0903690600401611960565b6110ab929192611b2f565b60005b8181106110b757005b6110c5610c28828487611f58565b8381519101209081600052600384526040600020916001928360ff198254161790557fc93d9f0628609b6384479aacf2a7a902a3e5bae5835e2c9ae103de69314e13bf611113838689611f58565b6111286040519283928a84528a840191611dc5565b0390a2016110ae565b34610344576000366003190112610344576020604051600a8152f35b34610344576000366003190112610344576001546040516001600160a01b039091168152602090f35b60e0366003190112610344576004356001600160401b038111610344576111a19036906004016119c2565b906111aa6119ef565b916111b3611a05565b9060a4356001600160401b038111610344576111d3903690600401611960565b94906111dd611a1b565b6111fd818884886064358b896111f8604435928d3691611a66565b611de6565b806000526002602052604060002054801561167e57600a81018082116116435742106116595762015180908181018082116116435742116116205750508060005260026020526000604081205533907f3cf317b509b5cc98d3ad8b322ba5ba3fa952b36af8bd257386ad5e678bc1bd9d600080a361127f61077b368689611a66565b156115fd576301e1338080604435106115dd57506112ad6112a760443561083636888b611a66565b90611ee0565b968734106115be576112c0368689611a66565b8051602090910120956001600160a01b03811615611513576040516329a67d4d60e11b8152600481018890526001600160a01b0380871660248301526044803590830152821660648201526020818060848101038160007f00000000000000000000000000000000000000000000000000000000000000006001600160a01b03165af1908115610350576000916114e1575b50935b6001600160a01b038216801515906114d8575b6113be575b5050506000805160206120268339815191529392916113a1916113ad575b8760405194859460018060a01b03169885611eed565b0390a38034116108a757005b6113b8368589611a66565b5061138b565b604051630ddf7fcb60e41b81526020816004817f00000000000000000000000000000000000000000000000000000000000000006001600160a01b03165afa908115610350576000916114a6575b5060405190602082015288604082015260408152606081019081106001600160401b038211176114905760405260005b838110611449575061136d565b600080611457838786611f58565b908160405192839283378101838152039082875af1611474611f11565b50156114825760010161143c565b610ace818561041894611f58565b634e487b7160e01b600052604160045260246000fd5b90506020813d6020116114d0575b816114c160209383611a2a565b8101031261034457518b61140c565b3d91506114b4565b50821515611368565b90506020813d60201161150b575b816114fc60209383611a2a565b8101031261034457518a611352565b3d91506114ef565b604051633f2891eb60e21b8152600481018890526001600160a01b038616602482015260448035908201526020818060648101038160007f00000000000000000000000000000000000000000000000000000000000000006001600160a01b03165af19081156103505760009161158c575b5093611355565b90506020813d6020116115b6575b816115a760209383611a2a565b8101031261034457518a611585565b3d915061159a565b6040516304fe20ab60e51b815234600482015260248101899052604490fd5b604051630f4fbcef60e01b81526044803560048301526024820192909252fd5b60405163b4dcd39560e01b8152602060048201528061041860248201878a611dc5565b6064935060405192631f87e51360e31b8452600484015260248301526044820152fd5b634e487b7160e01b600052601160045260246000fd5b6064925060405191632361516160e21b835260048301526024820152600a6044820152fd5b604051638153ba6760e01b815260048101839052602490fd5b3461034457602080600319360112610344576004356001600160401b038111610344576116c8903690600401611960565b919060005b8381106116d657005b6116e1818584611ff5565b3560005260028084526040600020546117475790600191611703828786611ff5565b3560005284524260406000205561171b818685611ff5565b357f9e8a51bb6b34b9d5d18c14fd753ee3bf44e2256512665a4577281ffcc91943ff600080a2016116cd565b6024611754838786611ff5565b6040516361a80fe760e01b815290356004820152fd5b61177336611990565b909160009260005b818110611939575083341061191a57907f00000000000000000000000000000000000000000000000000000000000000006001600160a01b03169060005b8381106117ca57858034116108a757005b6117d8610c28828685611f58565b80516020918201206040516312dc929d60e31b8152600481018290526024939290818186818a5afa908115610350576000916118fd575b506118d05761182688610836610c28868b8a611f58565b5093886040519163c475abff60e01b8352846004840152820152818160448160008b5af191821561035057600092611894575b50506000805160206120068339815191529060019461188b61187c868b8a611f58565b93909260405194859485611eed565b0390a2016117b9565b90809250813d83116118c9575b6118ab8183611a2a565b81010312610344575183600080516020612006833981519152611859565b503d6118a1565b83906104186118e0858a89611f58565b60405194859463b4dcd39560e01b86526004860152840191611dc5565b6119149150823d8411610442576104348183611a2a565b8a61180f565b6040516304fe20ab60e51b815234600482015260248101859052604490fd5b9361195960019161195286610836610c288a888a611f58565b5090611ee0565b940161177b565b9181601f84011215610344578235916001600160401b038311610344576020808501948460051b01011161034457565b604060031982011261034457600435906001600160401b038211610344576119ba91600401611960565b909160243590565b9181601f84011215610344578235916001600160401b038311610344576020838186019501011161034457565b602435906001600160a01b038216820361034457565b608435906001600160a01b038216820361034457565b60c43590811515820361034457565b90601f801991011681019081106001600160401b0382111761149057604052565b6001600160401b03811161149057601f01601f191660200190565b929192611a7282611a4b565b91611a806040519384611a2a565b829481845281830111610344578281602093846000960137010152565b9080601f8301121561034457816020611ab893359101611a66565b90565b90815180825260208080930193019160005b828110611adb575050505090565b835185529381019392810192600101611acd565b919082519283825260005b848110611b1b575050826000602080949584010152601f8019910116010190565b602081830181015184830182015201611afa565b6000546001600160a01b03163303611b4357565b60405163118cdaa760e01b8152336004820152602490fd5b9190820391821161164357565b90815160038110611be957603f10611c575760005b825180821015611c4f5760ff60f81b602083860101511690606160f81b8210159182611c40575b600360fc1b8110159081611c31575b602d60f81b1492159081611c28575b5080611c20575b611c175781611bf0575b50611be957600019811461164357600101611b7d565b5060009150565b821591508115611c02575b5038611bd3565b60001981019150811161164357811438611bfb565b50600093505050565b508115611bc9565b90501538611bc2565b603960f81b8111159150611bb3565b603d60f91b8111159250611ba4565b506001925050565b60009150565b90816020910312610344575180151581036103445790565b611c858151602083012091611b68565b9081611d08575b81611c95575090565b6040516312dc929d60e31b8152600481019190915290506020816024817f00000000000000000000000000000000000000000000000000000000000000006001600160a01b03165afa90811561035057600091611cf0575090565b611ab8915060203d8111610442576104348183611a2a565b809150600052600360205260ff604060002054161590611c8c565b6001546040805162cdcc4d60e51b81526004810182905294939092839286926001600160a01b039091169183918291611d60906044840190611aef565b90602483015203915afa928315611dba576000918294611d81575b50509190565b90809450813d8311611db3575b611d988183611a2a565b81010312611db0575060208251920151913880611d7b565b80fd5b503d611d8e565b50513d6000823e3d90fd5b908060209392818452848401376000828201840152601f01601f1916010190565b96949095939293604051968794602096611e0c8888019b60e08d52610100890190611aef565b9560018060a01b038094166040890152606088015260808701521660a0850152601f1994858585030160c086015281845280840193818360051b82010194846000925b858410611e7a5750505050505050611e7493151560e083015203908101835282611a2a565b51902090565b91939598809a9850828892949698030184528835601e19843603018112156103445783018681019190356001600160401b03811161034457803603831361034457611eca88928392600195611dc5565b9a0194019401918a979998969491959395611e4f565b9190820180921161164357565b90611f079060409396959496606084526060840191611dc5565b9460208201520152565b3d15611f3c573d90611f2282611a4b565b91611f306040519384611a2a565b82523d6000602084013e565b606090565b6001600160401b0381116114905760051b60200190565b9190811015611f995760051b81013590601e19813603018212156103445701908135916001600160401b038311610344576020018236038113610344579190565b634e487b7160e01b600052603260045260246000fd5b8051821015611f995760209160051b010190565b90611fcd82611f41565b611fda6040519182611a2a565b8281528092611feb601f1991611f41565b0190602036910137565b9190811015611f995760051b019056fe3da24c024582931cfaf8267d8ed24d13a82a8068d5bd337d30ec45cea4e506aeca6abbe9d7f11422cb6ca7629fbf6fe9efb1c621f71ce8f02b9f2a230097404fa2646970667358221220b42df61c058d6b7e128c7280f9fd965941d41a4525e9586c3b45422edb6f761064736f6c63430008140033","linkReferences":{}},"methodIdentifiers":{"MAX_COMMITMENT_AGE()":"8ccb9ea6","MIN_COMMITMENT_AGE()":"2e4f692a","MIN_REGISTRATION_DURATION()":"8a95b09f","SEL_NODE()":"bffc42f6","available(string)":"aeb8ce9b","baseRegistrar()":"74f04565","batchAvailable(string[])":"8d6f2cc8","batchCommit(bytes32[])":"0c652a2a","batchRenew(string[],uint256)":"059f7aae","batchRentPrice(string[],uint256)":"56191c02","commit(bytes32)":"f14fcbc8","commitments(bytes32)":"839df945","isReserved(string)":"3361c49e","makeCommitment(string,address,uint256,bytes32,address,bytes[],bool)":"3d4aa89e","multicall(bytes[])":"ac9650d8","owner()":"8da5cb5b","priceOracle()":"2630c12f","register(string,address,uint256,bytes32,address,bytes[],bool)":"237592e8","registerReserved(string,address,uint256,address)":"f6f95315","renew(string,uint256)":"acf1a841","renounceOwnership()":"715018a6","rentPrice(string,uint256)":"83e7f6ff","reserveName(string)":"ca18b9e2","reserveNames(string[])":"2fb80e82","reservedNames(bytes32)":"389c0748","setPriceOracle(address)":"530e784f","sns()":"40288a98","transferOwnership(address)":"f2fde38b","unreserveName(string)":"e1aab706","valid(string)":"9791c097","withdraw(address)":"51cff8d9"},"id":39}