{"abi":[{"type":"constructor","inputs":[],"stateMutability":"nonpayable"},{"type":"function","name":"getPrices","inputs":[],"outputs":[{"name":"threeChar","type":"uint256","internalType":"uint256"},{"name":"fourChar","type":"uint256","internalType":"uint256"},{"name":"fivePlusChar","type":"uint256","internalType":"uint256"}],"stateMutability":"view"},{"type":"function","name":"multiYearDiscount","inputs":[],"outputs":[{"name":"","type":"uint256","internalType":"uint256"}],"stateMutability":"view"},{"type":"function","name":"owner","inputs":[],"outputs":[{"name":"","type":"address","internalType":"address"}],"stateMutability":"view"},{"type":"function","name":"premiumPrices","inputs":[{"name":"","type":"string","internalType":"string"}],"outputs":[{"name":"","type":"uint256","internalType":"uint256"}],"stateMutability":"view"},{"type":"function","name":"price","inputs":[{"name":"name","type":"string","internalType":"string"},{"name":"duration","type":"uint256","internalType":"uint256"}],"outputs":[{"name":"base","type":"uint256","internalType":"uint256"},{"name":"premium","type":"uint256","internalType":"uint256"}],"stateMutability":"view"},{"type":"function","name":"price3Char","inputs":[],"outputs":[{"name":"","type":"uint256","internalType":"uint256"}],"stateMutability":"view"},{"type":"function","name":"price4Char","inputs":[],"outputs":[{"name":"","type":"uint256","internalType":"uint256"}],"stateMutability":"view"},{"type":"function","name":"price5PlusChar","inputs":[],"outputs":[{"name":"","type":"uint256","internalType":"uint256"}],"stateMutability":"view"},{"type":"function","name":"renewalPrice","inputs":[{"name":"name","type":"string","internalType":"string"},{"name":"duration","type":"uint256","internalType":"uint256"}],"outputs":[{"name":"","type":"uint256","internalType":"uint256"}],"stateMutability":"view"},{"type":"function","name":"renounceOwnership","inputs":[],"outputs":[],"stateMutability":"nonpayable"},{"type":"function","name":"setMultiYearDiscount","inputs":[{"name":"_discount","type":"uint256","internalType":"uint256"}],"outputs":[],"stateMutability":"nonpayable"},{"type":"function","name":"setPremiumPrice","inputs":[{"name":"name","type":"string","internalType":"string"},{"name":"_price","type":"uint256","internalType":"uint256"}],"outputs":[],"stateMutability":"nonpayable"},{"type":"function","name":"setPremiumPrices","inputs":[{"name":"names","type":"string[]","internalType":"string[]"},{"name":"prices","type":"uint256[]","internalType":"uint256[]"}],"outputs":[],"stateMutability":"nonpayable"},{"type":"function","name":"setPrices","inputs":[{"name":"_price3Char","type":"uint256","internalType":"uint256"},{"name":"_price4Char","type":"uint256","internalType":"uint256"},{"name":"_price5PlusChar","type":"uint256","internalType":"uint256"}],"outputs":[],"stateMutability":"nonpayable"},{"type":"function","name":"transferOwnership","inputs":[{"name":"newOwner","type":"address","internalType":"address"}],"outputs":[],"stateMutability":"nonpayable"},{"type":"event","name":"DiscountUpdated","inputs":[{"name":"discount","type":"uint256","indexed":false,"internalType":"uint256"}],"anonymous":false},{"type":"event","name":"OwnershipTransferred","inputs":[{"name":"previousOwner","type":"address","indexed":true,"internalType":"address"},{"name":"newOwner","type":"address","indexed":true,"internalType":"address"}],"anonymous":false},{"type":"event","name":"PremiumPriceSet","inputs":[{"name":"name","type":"string","indexed":true,"internalType":"string"},{"name":"price","type":"uint256","indexed":false,"internalType":"uint256"}],"anonymous":false},{"type":"event","name":"PricesUpdated","inputs":[{"name":"price3","type":"uint256","indexed":false,"internalType":"uint256"},{"name":"price4","type":"uint256","indexed":false,"internalType":"uint256"},{"name":"price5Plus","type":"uint256","indexed":false,"internalType":"uint256"}],"anonymous":false},{"type":"error","name":"OwnableInvalidOwner","inputs":[{"name":"owner","type":"address","internalType":"address"}]},{"type":"error","name":"OwnableUnauthorizedAccount","inputs":[{"name":"account","type":"address","internalType":"address"}]},{"type":"error","name":"SNS_ArrayLengthMismatch","inputs":[{"name":"length1","type":"uint256","internalType":"uint256"},{"name":"length2","type":"uint256","internalType":"uint256"}]},{"type":"error","name":"SNS_DiscountTooHigh","inputs":[{"name":"discount","type":"uint256","internalType":"uint256"},{"name":"maxDiscount","type":"uint256","internalType":"uint256"}]},{"type":"error","name":"SNS_NameTooShort","inputs":[{"name":"name","type":"string","internalType":"string"},{"name":"length","type":"uint256","internalType":"uint256"},{"name":"minLength","type":"uint256","internalType":"uint256"}]}],"bytecode":{"object":"0x6080806040523461009d5733156100875760008054336001600160a01b03198216811783556040519290916001600160a01b0316907f8be0079c531659141344cd1fd0a4f28419497f9722a3daafe3b4186f6b6457e09080a3600a600555651cd702e31894600155650735c0b8c625600255650171268b5ad4600355610ac690816100a38239f35b631e4fbdf760e01b815260006004820152602490fd5b600080fdfe60406080815260048036101561001457600080fd5b600091823560e01c806316b20a511461070457806319b989a01461061a57806320362a42146105fb5780634a4f6931146105885780634c3d78711461047c57806366c02f9a14610426578063715018a6146103c95780638da5cb5b146103a1578063a635f59e14610382578063a88fe42d14610303578063bd9a548b1461026d578063cfd818751461024e578063d0a476b814610178578063df5b407c146101555763f2fde38b146100c557600080fd5b34610151576020366003190112610151576001600160a01b0382358181169391929084900361014d576100f66108ae565b831561013757505082546001600160a01b0319811683178455167f8be0079c531659141344cd1fd0a4f28419497f9722a3daafe3b4186f6b6457e08380a380f35b51631e4fbdf760e01b8152908101849052602490fd5b8480fd5b8280fd5b8382346101745781600319360112610174576020906001549051908152f35b5080fd5b508290346101745761018936610768565b93916003821061022e57508490600381036102015750506303c267006101b184600154610910565b935b10156101c4575b6020838351908152f35b909160055460640391606483116101ee5750602093506064916101e691610910565b0490836101ba565b634e487b7160e01b815260118552602490fd5b0361021d576303c2670061021784600254610910565b936101b3565b6303c2670061021784600354610910565b8561024a838087519485946327d9600760e11b865285016108da565b0390fd5b8382346101745781600319360112610174576020906003549051908152f35b50829034610174578160031936011261017457600154906301e1338090818302928084048314901517156102f05760025493828502948086048414901517156102dd576003548381029381850414901517156102dd57505191825260208201929092526040810191909152606090f35b634e487b7160e01b815260118652602490fd5b634e487b7160e01b845260118552602484fd5b5034610151576060366003190112610151577fa6b830b74e52d7d1140e76252f225dc7bed28782519845600bbd3182341dc115913561037c602435926044359061034b6108ae565b6301e13380808504600155808604600255820460035551938493846040919493926060820195825260208201520152565b0390a180f35b8382346101745781600319360112610174576020906005549051908152f35b838234610174578160031936011261017457905490516001600160a01b039091168152602090f35b83346104235780600319360112610423576103e26108ae565b80546001600160a01b03198116825581906001600160a01b03167f8be0079c531659141344cd1fd0a4f28419497f9722a3daafe3b4186f6b6457e08280a380f35b80fd5b5082346104235760203660031901126104235782359067ffffffffffffffff82116104235736602383011215610423575061046f60209382602461047494369301359101610844565b610875565b549051908152f35b503461015157806003193601126101515767ffffffffffffffff91803583811161014d576104ad90369083016107bb565b919093602435908111610584576104c790369083016107bb565b9290916104d26108ae565b8382036105695750855b8181106104e7578680f35b806104f56001928686610939565b3561050d61046f61050784878c61095f565b906109b2565b5560207f5ff72fb4879229233b91e9053138484e9bc3c350a4998c6813b58b4f1be4222f61053c83868b61095f565b61054a858a8a969496610939565b3593818b51928392833781018d8152039020928951908152a2016104dc565b83604492865192633b59d6dd60e11b84528301526024820152fd5b8580fd5b5034610151576020366003190112610151578135916105a56108ae565b603283116105df5750816020917f4380d185219209b34ffa7f42fb87214e1e8b63a4957f532acc0cfa84697f05149360055551908152a180f35b826044925191633e1f216560e01b835282015260326024820152fd5b8382346101745781600319360112610174576020906002549051908152f35b5091346104235761062a36610768565b939092600384106106e857600384036106b9576303c2670061064e86600154610910565b955b1015610673575b50506106669161046f916109b2565b5482519182526020820152f35b6005949192945460640392606484116106a657505091606461069b61046f9361066695610910565b049391819350610657565b634e487b7160e01b825260119052602490fd5b8382036106d7576303c267006106d186600254610910565b95610650565b6303c267006106d186600354610910565b5061024a838087519485946327d9600760e11b865285016108da565b838234610174577f5ff72fb4879229233b91e9053138484e9bc3c350a4998c6813b58b4f1be4222f602061073736610768565b916107406108ae565b8261074e61046f84846109b2565b55818651928392833781018781520390209351908152a280f35b9060406003198301126107b65760043567ffffffffffffffff928382116107b657806023830112156107b65781600401359384116107b657602484830101116107b657602401919060243590565b600080fd5b9181601f840112156107b65782359167ffffffffffffffff83116107b6576020808501948460051b0101116107b657565b6040519190601f01601f1916820167ffffffffffffffff81118382101761081257604052565b634e487b7160e01b600052604160045260246000fd5b67ffffffffffffffff811161081257601f01601f191660200190565b92919261085861085383610828565b6107ec565b93828552828201116107b657816000926020928387013784010152565b604051908181519160005b8381106108995750506020918101600481520301902090565b60208282018101518683015285935001610880565b6000546001600160a01b031633036108c257565b60405163118cdaa760e01b8152336004820152602490fd5b60808360039460409497969760608552816060860152838501376000828285010152601f80199101168201019460208201520152565b8181029291811591840414171561092357565b634e487b7160e01b600052601160045260246000fd5b91908110156109495760051b0190565b634e487b7160e01b600052603260045260246000fd5b91908110156109495760051b81013590601e19813603018212156107b657019081359167ffffffffffffffff83116107b65760200182360381136107b6579190565b908151811015610949570160200190565b6109bd913691610844565b8051906109cc61085383610828565b82815291601f196109dc82610828565b01602090368286013760005b8281106109f6575050505090565b6001600160f81b031990604160f81b82610a1083886109a1565b5116101580610a76575b15610a5457610a2981866109a1565b51918360f893841c0160ff8111610923576001931b1660001a610a4c82886109a1565b535b016109e8565b600191610a6182876109a1565b511660001a610a7082886109a1565b53610a4e565b50602d60f91b82610a8783886109a1565b51161115610a1a56fea264697066735822122038b2fc33dcdb19d67dd2aef78037a330aeec43defba5ecf8350c8d951b75f3b964736f6c63430008140033","linkReferences":{}},"methodIdentifiers":{"getPrices()":"bd9a548b","multiYearDiscount()":"a635f59e","owner()":"8da5cb5b","premiumPrices(string)":"66c02f9a","price(string,uint256)":"19b989a0","price3Char()":"df5b407c","price4Char()":"20362a42","price5PlusChar()":"cfd81875","renewalPrice(string,uint256)":"d0a476b8","renounceOwnership()":"715018a6","setMultiYearDiscount(uint256)":"4a4f6931","setPremiumPrice(string,uint256)":"16b20a51","setPremiumPrices(string[],uint256[])":"4c3d7871","setPrices(uint256,uint256,uint256)":"a88fe42d","transferOwnership(address)":"f2fde38b"},"id":36}