{"abi":[{"type":"constructor","inputs":[],"stateMutability":"nonpayable"},{"type":"function","name":"getPrices","inputs":[],"outputs":[{"name":"threeChar","type":"uint256","internalType":"uint256"},{"name":"fourChar","type":"uint256","internalType":"uint256"},{"name":"fivePlusChar","type":"uint256","internalType":"uint256"}],"stateMutability":"view"},{"type":"function","name":"multiYearDiscount","inputs":[],"outputs":[{"name":"","type":"uint256","internalType":"uint256"}],"stateMutability":"view"},{"type":"function","name":"owner","inputs":[],"outputs":[{"name":"","type":"address","internalType":"address"}],"stateMutability":"view"},{"type":"function","name":"premiumPrices","inputs":[{"name":"","type":"string","internalType":"string"}],"outputs":[{"name":"","type":"uint256","internalType":"uint256"}],"stateMutability":"view"},{"type":"function","name":"price","inputs":[{"name":"name","type":"string","internalType":"string"},{"name":"duration","type":"uint256","internalType":"uint256"}],"outputs":[{"name":"base","type":"uint256","internalType":"uint256"},{"name":"premium","type":"uint256","internalType":"uint256"}],"stateMutability":"view"},{"type":"function","name":"price3Char","inputs":[],"outputs":[{"name":"","type":"uint256","internalType":"uint256"}],"stateMutability":"view"},{"type":"function","name":"price4Char","inputs":[],"outputs":[{"name":"","type":"uint256","internalType":"uint256"}],"stateMutability":"view"},{"type":"function","name":"price5PlusChar","inputs":[],"outputs":[{"name":"","type":"uint256","internalType":"uint256"}],"stateMutability":"view"},{"type":"function","name":"renewalPrice","inputs":[{"name":"name","type":"string","internalType":"string"},{"name":"duration","type":"uint256","internalType":"uint256"}],"outputs":[{"name":"","type":"uint256","internalType":"uint256"}],"stateMutability":"view"},{"type":"function","name":"renounceOwnership","inputs":[],"outputs":[],"stateMutability":"nonpayable"},{"type":"function","name":"setMultiYearDiscount","inputs":[{"name":"_discount","type":"uint256","internalType":"uint256"}],"outputs":[],"stateMutability":"nonpayable"},{"type":"function","name":"setPremiumPrice","inputs":[{"name":"name","type":"string","internalType":"string"},{"name":"_price","type":"uint256","internalType":"uint256"}],"outputs":[],"stateMutability":"nonpayable"},{"type":"function","name":"setPremiumPrices","inputs":[{"name":"names","type":"string[]","internalType":"string[]"},{"name":"prices","type":"uint256[]","internalType":"uint256[]"}],"outputs":[],"stateMutability":"nonpayable"},{"type":"function","name":"setPrices","inputs":[{"name":"_price3Char","type":"uint256","internalType":"uint256"},{"name":"_price4Char","type":"uint256","internalType":"uint256"},{"name":"_price5PlusChar","type":"uint256","internalType":"uint256"}],"outputs":[],"stateMutability":"nonpayable"},{"type":"function","name":"transferOwnership","inputs":[{"name":"newOwner","type":"address","internalType":"address"}],"outputs":[],"stateMutability":"nonpayable"},{"type":"event","name":"DiscountUpdated","inputs":[{"name":"discount","type":"uint256","indexed":false,"internalType":"uint256"}],"anonymous":false},{"type":"event","name":"OwnershipTransferred","inputs":[{"name":"previousOwner","type":"address","indexed":true,"internalType":"address"},{"name":"newOwner","type":"address","indexed":true,"internalType":"address"}],"anonymous":false},{"type":"event","name":"PremiumPriceSet","inputs":[{"name":"name","type":"string","indexed":true,"internalType":"string"},{"name":"price","type":"uint256","indexed":false,"internalType":"uint256"}],"anonymous":false},{"type":"event","name":"PricesUpdated","inputs":[{"name":"price3","type":"uint256","indexed":false,"internalType":"uint256"},{"name":"price4","type":"uint256","indexed":false,"internalType":"uint256"},{"name":"price5Plus","type":"uint256","indexed":false,"internalType":"uint256"}],"anonymous":false},{"type":"error","name":"OwnableInvalidOwner","inputs":[{"name":"owner","type":"address","internalType":"address"}]},{"type":"error","name":"OwnableUnauthorizedAccount","inputs":[{"name":"account","type":"address","internalType":"address"}]}],"bytecode":{"object":"0x6080806040523461009d5733156100875760008054336001600160a01b03198216811783556040519290916001600160a01b0316907f8be0079c531659141344cd1fd0a4f28419497f9722a3daafe3b4186f6b6457e09080a3600a600555651cd702e31894600155650735c0b8c625600255650171268b5ad4600355610ae290816100a38239f35b631e4fbdf760e01b815260006004820152602490fd5b600080fdfe60406080815260048036101561001457600080fd5b600091823560e01c806316b20a511461070957806319b989a01461063657806320362a42146106175780634a4f69311461058a5780634c3d78711461045f57806366c02f9a14610409578063715018a6146103ac5780638da5cb5b14610384578063a635f59e14610365578063a88fe42d146102e6578063bd9a548b14610250578063cfd8187514610231578063d0a476b814610178578063df5b407c146101555763f2fde38b146100c557600080fd5b34610151576020366003190112610151576001600160a01b0382358181169391929084900361014d576100f66108b3565b831561013757505082546001600160a01b0319811683178455167f8be0079c531659141344cd1fd0a4f28419497f9722a3daafe3b4186f6b6457e08380a380f35b51631e4fbdf760e01b8152908101849052602490fd5b8480fd5b8280fd5b8382346101745781600319360112610174576020906001549051908152f35b5080fd5b50346101515781926101893661076d565b94915061019960038210156108df565b600381036102045750506303c267006101b48460015461091c565b935b10156101c7575b6020838351908152f35b909160055460640391606483116101f15750602093506064916101e99161091c565b0490386101bd565b634e487b7160e01b815260118552602490fd5b03610220576303c2670061021a8460025461091c565b936101b6565b6303c2670061021a8460035461091c565b8382346101745781600319360112610174576020906003549051908152f35b50829034610174578160031936011261017457600154906301e1338090818302928084048314901517156102d35760025493828502948086048414901517156102c0576003548381029381850414901517156102c057505191825260208201929092526040810191909152606090f35b634e487b7160e01b815260118652602490fd5b634e487b7160e01b845260118552602484fd5b5034610151576060366003190112610151577fa6b830b74e52d7d1140e76252f225dc7bed28782519845600bbd3182341dc115913561035f602435926044359061032e6108b3565b6301e13380808504600155808604600255820460035551938493846040919493926060820195825260208201520152565b0390a180f35b8382346101745781600319360112610174576020906005549051908152f35b838234610174578160031936011261017457905490516001600160a01b039091168152602090f35b83346104065780600319360112610406576103c56108b3565b80546001600160a01b03198116825581906001600160a01b03167f8be0079c531659141344cd1fd0a4f28419497f9722a3daafe3b4186f6b6457e08280a380f35b80fd5b5082346104065760203660031901126104065782359067ffffffffffffffff82116104065736602383011215610406575061045260209382602461045794369301359101610849565b61087a565b549051908152f35b503461015157806003193601126101515767ffffffffffffffff91803583811161014d5761049090369083016107c0565b919093602435908111610586576104aa90369083016107c0565b9290916104b56108b3565b8382036105515750855b8181106104ca578680f35b806104d961054c928686610954565b356104f16104526104eb84878c61097a565b906109cd565b5560207f5ff72fb4879229233b91e9053138484e9bc3c350a4998c6813b58b4f1be4222f61052083868b61097a565b61052e858a8a969496610954565b3593818b51928392833781018d8152039020928951908152a2610945565b6104bf565b606490602086519162461bcd60e51b8352820152600f60248201526e098cadccee8d040dad2e6dac2e8c6d608b1b6044820152fd5b8580fd5b5034610151576020366003190112610151578135916105a76108b3565b603283116105e15750816020917f4380d185219209b34ffa7f42fb87214e1e8b63a4957f532acc0cfa84697f05149360055551908152a180f35b6020606492519162461bcd60e51b83528201526011602482015270088d2e6c6deeadce840e8dede40d0d2ced607b1b6044820152fd5b8382346101745781600319360112610174576020906002549051908152f35b509134610406576106463661076d565b93909261065660038510156108df565b600384036106da576303c2670061066f8660015461091c565b955b1015610694575b505061068791610452916109cd565b5482519182526020820152f35b6005949192945460640392606484116106c75750509160646106bc610452936106879561091c565b049391819350610678565b634e487b7160e01b825260119052602490fd5b8382036106f8576303c267006106f28660025461091c565b95610671565b6303c267006106f28660035461091c565b838234610174577f5ff72fb4879229233b91e9053138484e9bc3c350a4998c6813b58b4f1be4222f602061073c3661076d565b916107456108b3565b8261075361045284846109cd565b55818651928392833781018781520390209351908152a280f35b9060406003198301126107bb5760043567ffffffffffffffff928382116107bb57806023830112156107bb5781600401359384116107bb57602484830101116107bb57602401919060243590565b600080fd5b9181601f840112156107bb5782359167ffffffffffffffff83116107bb576020808501948460051b0101116107bb57565b6040519190601f01601f1916820167ffffffffffffffff81118382101761081757604052565b634e487b7160e01b600052604160045260246000fd5b67ffffffffffffffff811161081757601f01601f191660200190565b92919261085d6108588361082d565b6107f1565b93828552828201116107bb57816000926020928387013784010152565b604051908181519160005b83811061089e5750506020918101600481520301902090565b60208282018101518683015285935001610885565b6000546001600160a01b031633036108c757565b60405163118cdaa760e01b8152336004820152602490fd5b156108e657565b60405162461bcd60e51b815260206004820152600e60248201526d13985b59481d1bdbc81cda1bdc9d60921b6044820152606490fd5b8181029291811591840414171561092f57565b634e487b7160e01b600052601160045260246000fd5b600019811461092f5760010190565b91908110156109645760051b0190565b634e487b7160e01b600052603260045260246000fd5b91908110156109645760051b81013590601e19813603018212156107bb57019081359167ffffffffffffffff83116107bb5760200182360381136107bb579190565b908151811015610964570160200190565b6109d8913691610849565b9081516109e76108588261082d565b908082526109f7601f199161082d565b01602090368284013760005b8451811015610aa5576001600160f81b031990604160f81b82610a2683896109bc565b5116101580610a8b575b15610a6e57610a3f81876109bc565b51918360f893841c0160ff811161092f57610a69931b1660001a610a6382866109bc565b53610945565b610a03565b610a6991610a7c82886109bc565b511660001a610a6382866109bc565b50602d60f91b82610a9c83896109bc565b51161115610a30565b509092505056fea2646970667358221220e484e09008eac22e77f018849cff20420aefae36275316043f59770fb0f674f864736f6c63430008140033","linkReferences":{}},"methodIdentifiers":{"getPrices()":"bd9a548b","multiYearDiscount()":"a635f59e","owner()":"8da5cb5b","premiumPrices(string)":"66c02f9a","price(string,uint256)":"19b989a0","price3Char()":"df5b407c","price4Char()":"20362a42","price5PlusChar()":"cfd81875","renewalPrice(string,uint256)":"d0a476b8","renounceOwnership()":"715018a6","setMultiYearDiscount(uint256)":"4a4f6931","setPremiumPrice(string,uint256)":"16b20a51","setPremiumPrices(string[],uint256[])":"4c3d7871","setPrices(uint256,uint256,uint256)":"a88fe42d","transferOwnership(address)":"f2fde38b"},"id":29}