{"abi":[{"type":"constructor","inputs":[{"name":"_sns","type":"address","internalType":"contract ISNSRegistry"}],"stateMutability":"nonpayable"},{"type":"function","name":"addr","inputs":[{"name":"node","type":"bytes32","internalType":"bytes32"}],"outputs":[{"name":"","type":"address","internalType":"address"}],"stateMutability":"view"},{"type":"function","name":"addr","inputs":[{"name":"node","type":"bytes32","internalType":"bytes32"},{"name":"coinType","type":"uint256","internalType":"uint256"}],"outputs":[{"name":"","type":"bytes","internalType":"bytes"}],"stateMutability":"view"},{"type":"function","name":"contenthash","inputs":[{"name":"node","type":"bytes32","internalType":"bytes32"}],"outputs":[{"name":"","type":"bytes","internalType":"bytes"}],"stateMutability":"view"},{"type":"function","name":"decodeDnsName","inputs":[{"name":"dnsEncodedName","type":"bytes","internalType":"bytes"}],"outputs":[{"name":"labels","type":"string[]","internalType":"string[]"}],"stateMutability":"pure"},{"type":"function","name":"multicall","inputs":[{"name":"data","type":"bytes[]","internalType":"bytes[]"}],"outputs":[{"name":"results","type":"bytes[]","internalType":"bytes[]"}],"stateMutability":"nonpayable"},{"type":"function","name":"name","inputs":[{"name":"node","type":"bytes32","internalType":"bytes32"}],"outputs":[{"name":"","type":"string","internalType":"string"}],"stateMutability":"view"},{"type":"function","name":"resolve","inputs":[{"name":"dnsEncodedName","type":"bytes","internalType":"bytes"},{"name":"data","type":"bytes","internalType":"bytes"}],"outputs":[{"name":"","type":"bytes","internalType":"bytes"}],"stateMutability":"view"},{"type":"function","name":"setAddr","inputs":[{"name":"node","type":"bytes32","internalType":"bytes32"},{"name":"coinType","type":"uint256","internalType":"uint256"},{"name":"a","type":"bytes","internalType":"bytes"}],"outputs":[],"stateMutability":"nonpayable"},{"type":"function","name":"setAddr","inputs":[{"name":"node","type":"bytes32","internalType":"bytes32"},{"name":"a","type":"address","internalType":"address"}],"outputs":[],"stateMutability":"nonpayable"},{"type":"function","name":"setContenthash","inputs":[{"name":"node","type":"bytes32","internalType":"bytes32"},{"name":"hash","type":"bytes","internalType":"bytes"}],"outputs":[],"stateMutability":"nonpayable"},{"type":"function","name":"setName","inputs":[{"name":"node","type":"bytes32","internalType":"bytes32"},{"name":"newName","type":"string","internalType":"string"}],"outputs":[],"stateMutability":"nonpayable"},{"type":"function","name":"setText","inputs":[{"name":"node","type":"bytes32","internalType":"bytes32"},{"name":"key","type":"string","internalType":"string"},{"name":"value","type":"string","internalType":"string"}],"outputs":[],"stateMutability":"nonpayable"},{"type":"function","name":"sns","inputs":[],"outputs":[{"name":"","type":"address","internalType":"contract ISNSRegistry"}],"stateMutability":"view"},{"type":"function","name":"supportsInterface","inputs":[{"name":"interfaceId","type":"bytes4","internalType":"bytes4"}],"outputs":[{"name":"","type":"bool","internalType":"bool"}],"stateMutability":"pure"},{"type":"function","name":"text","inputs":[{"name":"node","type":"bytes32","internalType":"bytes32"},{"name":"key","type":"string","internalType":"string"}],"outputs":[{"name":"","type":"string","internalType":"string"}],"stateMutability":"view"},{"type":"event","name":"AddrChanged","inputs":[{"name":"node","type":"bytes32","indexed":true,"internalType":"bytes32"},{"name":"addr","type":"address","indexed":false,"internalType":"address"}],"anonymous":false},{"type":"event","name":"AddressChanged","inputs":[{"name":"node","type":"bytes32","indexed":true,"internalType":"bytes32"},{"name":"coinType","type":"uint256","indexed":false,"internalType":"uint256"},{"name":"newAddress","type":"bytes","indexed":false,"internalType":"bytes"}],"anonymous":false},{"type":"event","name":"ContenthashChanged","inputs":[{"name":"node","type":"bytes32","indexed":true,"internalType":"bytes32"},{"name":"hash","type":"bytes","indexed":false,"internalType":"bytes"}],"anonymous":false},{"type":"event","name":"NameChanged","inputs":[{"name":"node","type":"bytes32","indexed":true,"internalType":"bytes32"},{"name":"name","type":"string","indexed":false,"internalType":"string"}],"anonymous":false},{"type":"event","name":"TextChanged","inputs":[{"name":"node","type":"bytes32","indexed":true,"internalType":"bytes32"},{"name":"indexedKey","type":"string","indexed":true,"internalType":"string"},{"name":"key","type":"string","indexed":false,"internalType":"string"},{"name":"value","type":"string","indexed":false,"internalType":"string"}],"anonymous":false},{"type":"error","name":"SNS_InvalidAddressLength","inputs":[{"name":"coinType","type":"uint256","internalType":"uint256"},{"name":"length","type":"uint256","internalType":"uint256"},{"name":"expectedLength","type":"uint256","internalType":"uint256"}]},{"type":"error","name":"SNS_MulticallFailed","inputs":[{"name":"index","type":"uint256","internalType":"uint256"},{"name":"data","type":"bytes","internalType":"bytes"}]},{"type":"error","name":"SNS_NotAuthorized","inputs":[{"name":"node","type":"bytes32","internalType":"bytes32"},{"name":"caller","type":"address","internalType":"address"}]}],"bytecode":{"object":"0x60a03461007157601f6118f238819003918201601f19168301916001600160401b038311848410176100765780849260209460405283398101031261007157516001600160a01b038116810361007157608052604051611865908161008d82396080518181816105cf0152610ef60152f35b600080fd5b634e487b7160e01b600052604160045260246000fdfe6080604052600436101561001257600080fd5b60003560e01c806301ffc9a71461010757806310f13a8c14610102578063304e6ade146100fd5780633b3b57de146100f857806340288a98146100f357806359d1d43c146100ee578063691f3431146100e957806377372213146100e45780638b95dd71146100df5780639061b923146100da578063ac9650d8146100d5578063bc1c58d1146100d0578063bfaab4c3146100cb578063d5fa2b00146100c65763f1cb7e06146100c157600080fd5b610d9a565b610bc2565b610a0d565b6109d7565b610972565b6108b9565b61083f565b6106d4565b61069e565b61063e565b6105b9565b610589565b61041c565b610214565b346101e25760203660031901126101e25760043563ffffffff60e01b81168091036101e25761017890631d9dabef60e11b81149081156101d1575b81156101c0575b81156101af575b811561019e575b811561018d575b811561017c575b5060405190151581529081906020820190565b0390f35b6301ffc9a760e01b14905038610165565b639061b92360e01b8114915061015e565b63691f343160e01b81149150610157565b63bc1c58d160e01b81149150610150565b631674750f60e21b81149150610149565b6378e5bf0360e11b81149150610142565b600080fd5b9181601f840112156101e2578235916001600160401b0383116101e257602083818601950101116101e257565b346101e25760603660031901126101e2576004356001600160401b036024358181116101e2576102489036906004016101e7565b926044358381116101e2576102619036906004016101e7565b94909261026d83610ed7565b156103c657600094838652600160208181526040882081604051809288888337888201908152030190209289116103c1576102b2896102ac8554610dde565b85610e18565b8790601f8a1160011461032d5750918880899a9361031c957f448bc014f1536726cf8d54ff3d6481ed3cbc683c2591ca204274009afa09b1a1999a9b93610322575b501b906000198460031b1c19161790555b61030f8484611270565b96604051948594856112a6565b0390a380f35b8b01359250386102f4565b90601f198a1661034285600052602060002090565b928a905b8282106103aa575050918a93917f448bc014f1536726cf8d54ff3d6481ed3cbc683c2591ca204274009afa09b1a198999a9b61031c969410610390575b505082811b019055610305565b8a0135600019600386901b60f8161c191690553880610383565b808685968294968e01358155019501930190610346565b6107ed565b604051634d3dd7df60e11b815260048101849052336024820152604490fd5b0390fd5b9060406003198301126101e25760043591602435906001600160401b0382116101e257610418916004016101e7565b9091565b346101e25761042a366103e9565b909161043581610ed7565b156105695760009181835260209360028552604084206001600160401b0383116103c15761046d836104678354610dde565b83610e18565b8495601f84116001146104db57508285967fe379c1624ed7e714cc0937528a32359d69d5281337765313dba4e081b72d75789596916104d0575b508360011b906000198560031b1c19161790555b6104ca604051928392836112cd565b0390a280f35b9050820135386104a7565b601f198416966104f083600052602060002090565b9187905b898210610551575050847fe379c1624ed7e714cc0937528a32359d69d5281337765313dba4e081b72d757896979810610537575b5050600183811b0190556104bb565b830135600019600386901b60f8161c191690553880610528565b806001849582949589013581550194019201906104f4565b604051634d3dd7df60e11b81526004810191909152336024820152604490fd5b346101e25760203660031901126101e25760206105a7600435611223565b6040516001600160a01b039091168152f35b346101e25760003660031901126101e2576040517f00000000000000000000000000000000000000000000000000000000000000006001600160a01b03168152602090f35b919082519283825260005b84811061062a575050826000602080949584010152601f8019910116010190565b602081830181015184830182015201610609565b346101e25761017861068361068a6020610657366103e9565b929160005260018252604060002083604051948593843782019081520301902060405192838092611170565b0382610803565b6040519182916020835260208301906105fe565b346101e25760203660031901126101e257600435600052600360205261017861068361068a604060002060405192838092611170565b346101e2576106e2366103e9565b90916106ed81610ed7565b156105695760009181835260209360038552604084206001600160401b0383116103c15761071f836104678354610dde565b8495601f841160011461077a57508285967fb7d29e911041e8d9b843369e890bcb72c9388692ba48b65ac54e7214c4c348f79596916104d057508360011b906000198560031b1c19161790556104ca604051928392836112cd565b601f1984169661078f83600052602060002090565b9187905b8982106107d5575050847fb7d29e911041e8d9b843369e890bcb72c9388692ba48b65ac54e7214c4c348f796979810610537575050600183811b0190556104bb565b80600184958294958901358155019401920190610793565b634e487b7160e01b600052604160045260246000fd5b90601f801991011681019081106001600160401b038211176103c157604052565b6001600160401b0381116103c157601f01601f191660200190565b346101e25760603660031901126101e2576044356001600160401b0381116101e257366023820112156101e257806004013561087a81610824565b906108886040519283610803565b80825236602482850101116101e25760208160009260246108b796018386013783010152602435600435610ff5565b005b346101e25760403660031901126101e2576001600160401b036004358181116101e2576108ea9036906004016101e7565b50506024359081116101e25761068a61090a6101789236906004016101e7565b906114d5565b602080820190808352835180925260408301928160408460051b8301019501936000915b8483106109445750505050505090565b9091929394958480610962600193603f198682030187528a516105fe565b9801930193019194939290610934565b346101e25760203660031901126101e2576001600160401b036004358181116101e257366023820112156101e25780600401359182116101e2573660248360051b830101116101e2576101789160246109cb92016113c9565b60405191829182610910565b346101e25760203660031901126101e257600435600052600260205261017861068361068a604060002060405192838092611170565b346101e25760203660031901126101e2576004356001600160401b0381116101e257610a3d9036906004016101e7565b6000805b82811080610b91575b15610a9e5780610a93610a8d610a87610a81610a7b610a6d610a99978a8c6116e0565b356001600160f81b03191690565b60f81c90565b95611702565b94611716565b60ff1690565b90611736565b610a41565b50610aa890611743565b91600090815b83811080610b71575b15610b6357610acd610a7b610a6d8387866116e0565b60ff8116610ada81611778565b9060005b818110610b1857505091610a93610a8d610b1093600195610aff898c6113b5565b52610b0a888b6113b5565b50611716565b920191610aae565b96600188610b44610a6d610b3d899b9c610b38869f9b9c98999a9c611728565b611736565b85876116e0565b60001a610b5182886117aa565b53019291959392909796949850610ade565b604051806101788782610910565b506001600160f81b0319610b89610a6d8387866116e0565b161515610ab7565b506001600160f81b0319610ba9610a6d8386886116e0565b161515610a4a565b6001600160a01b038116036101e257565b346101e2576040806003193601126101e25760043560243591610be483610bb1565b610bed82610ed7565b15610d7b57610bfb836117bb565b92600093838552602090858252838620603c87528252838620918151916001600160401b0383116103c157610c3a83610c348654610dde565b86610e18565b81601f8411600114610ce257509282610ccc936104ca96937f65412581168e88a1e60c6459d7f44ae83ad0832e670826c05a4e2476b57af75298968b92610cd7575b50508160011b916000199060031b1c19161790555b82516001600160a01b038216815286907f52d7d861f09ab3d26239d492e8968629f95e9e318cf0b73bfddc441522a15fd290602090a26117bb565b905191829182610e6c565b015190503880610c7c565b9190601f198416610cf886600052602060002090565b938a905b828210610d63575050936104ca96937f65412581168e88a1e60c6459d7f44ae83ad0832e670826c05a4e2476b57af75298969360019383610ccc9810610d4a575b505050811b019055610c91565b015160001960f88460031b161c19169055388080610d3d565b80600186978294978701518155019601940190610cfc565b51634d3dd7df60e11b8152600481019190915233602482015260449150fd5b346101e25760403660031901126101e2576004356000526000602052604060002060243560005260205261017861068361068a604060002060405192838092611170565b90600182811c92168015610e0e575b6020831014610df857565b634e487b7160e01b600052602260045260246000fd5b91607f1691610ded565b90601f8111610e2657505050565b600091825260208220906020601f850160051c83019410610e62575b601f0160051c01915b828110610e5757505050565b818155600101610e4b565b9092508290610e42565b906040610e8492603c815281602082015201906105fe565b90565b604090610e849392815281602082015201906105fe565b908160209103126101e25751610e8481610bb1565b6040513d6000823e3d90fd5b908160209103126101e2575180151581036101e25790565b6040516302571be360e01b815260048101919091526001600160a01b037f0000000000000000000000000000000000000000000000000000000000000000811691906020908183602481875afa928315610fc157600093610fc6575b5082163314918215610f47575b5050905090565b60405163e985e9c560e01b81526001600160a01b0391909116600482015233602482015290929091508290829060449082905afa918215610fc157600092610f94575b5050803880610f40565b610fb39250803d10610fba575b610fab8183610803565b810190610ebf565b3880610f8a565b503d610fa1565b610eb3565b610fe7919350823d8411610fee575b610fdf8183610803565b810190610e9e565b9138610f33565b503d610fd5565b919061100083610ed7565b156103c657600090838252602082815260408320828452815260408320908451906001600160401b0382116103c15761103d826102ac8554610dde565b80601f83116001146110fc5750603c9490826110f1575b508160011b916000199060031b1c19161790555b837f65412581168e88a1e60c6459d7f44ae83ad0832e670826c05a4e2476b57af75260405180611099878683610e87565b0390a2146110a5575050565b6110ec6110d27f52d7d861f09ab3d26239d492e8968629f95e9e318cf0b73bfddc441522a15fd2926117f7565b6040516001600160a01b0390911681529081906020820190565b0390a2565b905085015138611054565b601f95929394951984169061111686600052602060002090565b93905b828210611158575050918391603c9695946001941061113f575b5050811b019055611068565b87015160001960f88460031b161c191690553880611133565b80600185968294968c01518155019501930190611119565b906000929180549161118183610dde565b9182825260019384811690816000146111e357506001146111a3575b50505050565b90919394506000526020928360002092846000945b8386106111cf57505050500101903880808061119d565b8054858701830152940193859082016111b8565b9294505050602093945060ff191683830152151560051b0101903880808061119d565b9061122161121a9260405193848092611170565b0383610803565b565b60009081528060205260408120603c825260205261068361124d6040832060405192838092611170565b80511561125e57610e8491506117f7565b5090565b908092918237016000815290565b81604051928392833781016000815203902090565b908060209392818452848401376000828201840152601f01601f1916010190565b92906112bf90610e849593604086526040860191611285565b926020818503910152611285565b916020610e84938181520191611285565b6001600160401b0381116103c15760051b60200190565b60005b82811061130457505050565b6060828201526020016112f8565b634e487b7160e01b600052603260045260246000fd5b91908110156113695760051b81013590601e19813603018212156101e25701908135916001600160401b0383116101e25760200182360381136101e2579190565b611312565b3d15611399573d9061137f82610824565b9161138d6040519384610803565b82523d6000602084013e565b606090565b604090610e84949281528160208201520191611285565b80518210156113695760209160051b010190565b906113d3816112de565b9160406113e281519485610803565b8284526113fe601f196113f4856112de565b01602086016112f5565b600092835b81811061141257505050505090565b848061141f838588611328565b9061142e875180938193611262565b0390305af461143b61136e565b9015611461579060019161144f82896113b5565b5261145a81886113b5565b5001611403565b5090611471826103e59286611328565b909351938493632900c64b60e01b85526004850161139e565b906004116101e25790600490565b6001600160e01b031990358181169392600481106114b557505050565b60040360031b82901b16169150565b906020610e84928181520190611170565b602482106116a8576114ff6114ef6004830135938361148a565b6001600160e01b03199291611498565b16631d9dabef60e11b810361159a57505061153a61152a61153f926000526000602052604060002090565b603c600052602052604060002090565b611206565b80511561158057610e84611555611572926117f7565b604080516001600160a01b03909216602083015290928391820190565b03601f198101835282610803565b50604051610e848161157260208201906000602083019252565b6378e5bf0360e11b81036115ea57506115db611572926115cc6024610e84940135916000526000602052604060002090565b90600052602052604060002090565b604051928391602083016114c4565b9050631674750f60e21b810361161c575050604051610e84816115726020820160409060208152600060208201520190565b63bc1c58d160e01b81036116455750610e846115db611572926000526002602052604060002090565b63691f343160e01b1461168e5760405162461bcd60e51b81526020600482015260146024820152732ab739bab83837b93a32b210333ab731ba34b7b760611b6044820152606490fd5b610e846115db611572926000526003602052604060002090565b60405162461bcd60e51b815260206004820152601060248201526f496e76616c69642063616c6c6461746160801b6044820152606490fd5b90821015611369570190565b634e487b7160e01b600052601160045260246000fd5b60001981146117115760010190565b6116ec565b60ff60019116019060ff821161171157565b906001820180921161171157565b9190820180921161171157565b90611221611750836112de565b61175d6040519182610803565b83815260208194611770601f19916112de565b0191016112f5565b9061178282610824565b61178f6040519182610803565b82815280926117a0601f1991610824565b0190602036910137565b908151811015611369570160200190565b604051906bffffffffffffffffffffffff199060601b16602082015260148152604081018181106001600160401b038211176103c15760405290565b80516014810361180957506014015190565b606490604051906308e09f9760e11b8252603c6004830152602482015260146044820152fdfea2646970667358221220dad3d4a317e183f34aac0506478a99d4a29c82b5cf78e87cc3dfc62ef951048764736f6c63430008140033","linkReferences":{}},"methodIdentifiers":{"addr(bytes32)":"3b3b57de","addr(bytes32,uint256)":"f1cb7e06","contenthash(bytes32)":"bc1c58d1","decodeDnsName(bytes)":"bfaab4c3","multicall(bytes[])":"ac9650d8","name(bytes32)":"691f3431","resolve(bytes,bytes)":"9061b923","setAddr(bytes32,address)":"d5fa2b00","setAddr(bytes32,uint256,bytes)":"8b95dd71","setContenthash(bytes32,bytes)":"304e6ade","setName(bytes32,string)":"77372213","setText(bytes32,string,string)":"10f13a8c","sns()":"40288a98","supportsInterface(bytes4)":"01ffc9a7","text(bytes32,string)":"59d1d43c"},"id":37}