{"abi":[{"type":"constructor","inputs":[{"name":"_sns","type":"address","internalType":"contract ISNSRegistry"}],"stateMutability":"nonpayable"},{"type":"function","name":"addr","inputs":[{"name":"node","type":"bytes32","internalType":"bytes32"}],"outputs":[{"name":"","type":"address","internalType":"address"}],"stateMutability":"view"},{"type":"function","name":"addr","inputs":[{"name":"node","type":"bytes32","internalType":"bytes32"},{"name":"coinType","type":"uint256","internalType":"uint256"}],"outputs":[{"name":"","type":"bytes","internalType":"bytes"}],"stateMutability":"view"},{"type":"function","name":"contenthash","inputs":[{"name":"node","type":"bytes32","internalType":"bytes32"}],"outputs":[{"name":"","type":"bytes","internalType":"bytes"}],"stateMutability":"view"},{"type":"function","name":"multicall","inputs":[{"name":"data","type":"bytes[]","internalType":"bytes[]"}],"outputs":[{"name":"results","type":"bytes[]","internalType":"bytes[]"}],"stateMutability":"nonpayable"},{"type":"function","name":"name","inputs":[{"name":"node","type":"bytes32","internalType":"bytes32"}],"outputs":[{"name":"","type":"string","internalType":"string"}],"stateMutability":"view"},{"type":"function","name":"setAddr","inputs":[{"name":"node","type":"bytes32","internalType":"bytes32"},{"name":"coinType","type":"uint256","internalType":"uint256"},{"name":"a","type":"bytes","internalType":"bytes"}],"outputs":[],"stateMutability":"nonpayable"},{"type":"function","name":"setAddr","inputs":[{"name":"node","type":"bytes32","internalType":"bytes32"},{"name":"a","type":"address","internalType":"address"}],"outputs":[],"stateMutability":"nonpayable"},{"type":"function","name":"setContenthash","inputs":[{"name":"node","type":"bytes32","internalType":"bytes32"},{"name":"hash","type":"bytes","internalType":"bytes"}],"outputs":[],"stateMutability":"nonpayable"},{"type":"function","name":"setName","inputs":[{"name":"node","type":"bytes32","internalType":"bytes32"},{"name":"newName","type":"string","internalType":"string"}],"outputs":[],"stateMutability":"nonpayable"},{"type":"function","name":"setText","inputs":[{"name":"node","type":"bytes32","internalType":"bytes32"},{"name":"key","type":"string","internalType":"string"},{"name":"value","type":"string","internalType":"string"}],"outputs":[],"stateMutability":"nonpayable"},{"type":"function","name":"sns","inputs":[],"outputs":[{"name":"","type":"address","internalType":"contract ISNSRegistry"}],"stateMutability":"view"},{"type":"function","name":"supportsInterface","inputs":[{"name":"interfaceId","type":"bytes4","internalType":"bytes4"}],"outputs":[{"name":"","type":"bool","internalType":"bool"}],"stateMutability":"pure"},{"type":"function","name":"text","inputs":[{"name":"node","type":"bytes32","internalType":"bytes32"},{"name":"key","type":"string","internalType":"string"}],"outputs":[{"name":"","type":"string","internalType":"string"}],"stateMutability":"view"},{"type":"event","name":"AddrChanged","inputs":[{"name":"node","type":"bytes32","indexed":true,"internalType":"bytes32"},{"name":"addr","type":"address","indexed":false,"internalType":"address"}],"anonymous":false},{"type":"event","name":"AddressChanged","inputs":[{"name":"node","type":"bytes32","indexed":true,"internalType":"bytes32"},{"name":"coinType","type":"uint256","indexed":false,"internalType":"uint256"},{"name":"newAddress","type":"bytes","indexed":false,"internalType":"bytes"}],"anonymous":false},{"type":"event","name":"ContenthashChanged","inputs":[{"name":"node","type":"bytes32","indexed":true,"internalType":"bytes32"},{"name":"hash","type":"bytes","indexed":false,"internalType":"bytes"}],"anonymous":false},{"type":"event","name":"NameChanged","inputs":[{"name":"node","type":"bytes32","indexed":true,"internalType":"bytes32"},{"name":"name","type":"string","indexed":false,"internalType":"string"}],"anonymous":false},{"type":"event","name":"TextChanged","inputs":[{"name":"node","type":"bytes32","indexed":true,"internalType":"bytes32"},{"name":"indexedKey","type":"string","indexed":true,"internalType":"string"},{"name":"key","type":"string","indexed":false,"internalType":"string"},{"name":"value","type":"string","indexed":false,"internalType":"string"}],"anonymous":false}],"bytecode":{"object":"0x60a03461007157601f61139538819003918201601f19168301916001600160401b038311848410176100765780849260209460405283398101031261007157516001600160a01b038116810361007157608052604051611308908161008d82396080518181816105550152610caa0152f35b600080fd5b634e487b7160e01b600052604160045260246000fdfe6080604052600436101561001257600080fd5b60003560e01c806301ffc9a7146100e757806310f13a8c146100e2578063304e6ade146100dd5780633b3b57de146100d857806340288a98146100d357806359d1d43c146100ce578063691f3431146100c957806377372213146100c45780638b95dd71146100bf578063ac9650d8146100ba578063bc1c58d1146100b5578063d5fa2b00146100b05763f1cb7e06146100ab57600080fd5b610b02565b61094b565b610904565b61089f565b6107c3565b61065a565b610624565b6105c4565b61053f565b61050f565b6103c4565b6101dc565b346101aa5760203660031901126101aa5760043563ffffffff60e01b81168091036101aa5761015190631d9dabef60e11b8114908115610199575b8115610188575b8115610177575b8115610166575b8115610155575b5060405190151581529081906020820190565b0390f35b6301ffc9a760e01b1490503861013e565b63691f343160e01b81149150610137565b63bc1c58d160e01b81149150610130565b631674750f60e21b81149150610129565b6378e5bf0360e11b81149150610122565b600080fd5b9181601f840112156101aa578235916001600160401b0383116101aa57602083818601950101116101aa57565b346101aa5760603660031901126101aa576004356001600160401b036024358181116101aa576102109036906004016101af565b926044358381116101aa576102299036906004016101af565b94909261023d61023884610c8b565b610b46565b6000948386526001602081815260408820816040518092888883378882019081520301902092891161038c5761027d896102778554610b92565b85610bcc565b8790601f8a116001146102f85750918880899a936102e7957f448bc014f1536726cf8d54ff3d6481ed3cbc683c2591ca204274009afa09b1a1999a9b936102ed575b501b906000198460031b1c19161790555b6102da8484611005565b966040519485948561103b565b0390a380f35b8b01359250386102bf565b90601f198a1661030d85600052602060002090565b928a905b828210610375575050918a93917f448bc014f1536726cf8d54ff3d6481ed3cbc683c2591ca204274009afa09b1a198999a9b6102e796941061035b575b505082811b0190556102d0565b8a0135600019600386901b60f8161c19169055388061034e565b808685968294968e01358155019501930190610311565b610771565b9060406003198301126101aa5760043591602435906001600160401b0382116101aa576103c0916004016101af565b9091565b346101aa576103d236610391565b90916103e061023882610c8b565b60009181835260209360028552604084206001600160401b03831161038c576104138361040d8354610b92565b83610bcc565b8495601f841160011461048157508285967fe379c1624ed7e714cc0937528a32359d69d5281337765313dba4e081b72d7578959691610476575b508360011b906000198560031b1c19161790555b61047060405192839283611062565b0390a280f35b90508201353861044d565b601f1984169661049683600052602060002090565b9187905b8982106104f7575050847fe379c1624ed7e714cc0937528a32359d69d5281337765313dba4e081b72d7578969798106104dd575b5050600183811b019055610461565b830135600019600386901b60f8161c1916905538806104ce565b8060018495829495890135815501940192019061049a565b346101aa5760203660031901126101aa57602061052d600435610fb8565b6040516001600160a01b039091168152f35b346101aa5760003660031901126101aa576040517f00000000000000000000000000000000000000000000000000000000000000006001600160a01b03168152602090f35b919082519283825260005b8481106105b0575050826000602080949584010152601f8019910116010190565b60208183018101518483018201520161058f565b346101aa5761015161060961061060206105dd36610391565b929160005260018252604060002083604051948593843782019081520301902060405192838092610f22565b0382610787565b604051918291602083526020830190610584565b346101aa5760203660031901126101aa576004356000526003602052610151610609610610604060002060405192838092610f22565b346101aa5761066836610391565b909161067661023882610c8b565b60009181835260209360038552604084206001600160401b03831161038c576106a38361040d8354610b92565b8495601f84116001146106fe57508285967fb7d29e911041e8d9b843369e890bcb72c9388692ba48b65ac54e7214c4c348f795969161047657508360011b906000198560031b1c191617905561047060405192839283611062565b601f1984169661071383600052602060002090565b9187905b898210610759575050847fb7d29e911041e8d9b843369e890bcb72c9388692ba48b65ac54e7214c4c348f7969798106104dd575050600183811b019055610461565b80600184958294958901358155019401920190610717565b634e487b7160e01b600052604160045260246000fd5b90601f801991011681019081106001600160401b0382111761038c57604052565b6001600160401b03811161038c57601f01601f191660200190565b346101aa5760603660031901126101aa576044356001600160401b0381116101aa57366023820112156101aa5780600401356107fe816107a8565b9061080c6040519283610787565b80825236602482850101116101aa57602081600092602461083b96018386013783010152602435600435610da9565b005b602080820190808352835180925260408301928160408460051b8301019501936000915b8483106108715750505050505090565b909192939495848061088f600193603f198682030187528a51610584565b9801930193019194939290610861565b346101aa5760203660031901126101aa576001600160401b036004358181116101aa57366023820112156101aa5780600401359182116101aa573660248360051b830101116101aa576101519160246108f8920161119a565b6040519182918261083d565b346101aa5760203660031901126101aa576004356000526002602052610151610609610610604060002060405192838092610f22565b6001600160a01b038116036101aa57565b346101aa5760403660031901126101aa5760243560043561096b8261093a565b61097761023882610c8b565b61098082611248565b9160009282845260209084825260408520603c8652825260408520918151916001600160401b03831161038c576109c1836109bb8654610b92565b86610bcc565b81601f8411600114610a6a57509282610a53937f65412581168e88a1e60c6459d7f44ae83ad0832e670826c05a4e2476b57af7529693610470968a92610a5f575b50508160011b916000199060031b1c19161790555b6040516001600160a01b038216815285907f52d7d861f09ab3d26239d492e8968629f95e9e318cf0b73bfddc441522a15fd290602090a2611248565b60405191829182610c20565b015190503880610a02565b9190601f198416610a8086600052602060002090565b9389905b828210610aea575050937f65412581168e88a1e60c6459d7f44ae83ad0832e670826c05a4e2476b57af7529693610470969360019383610a539810610ad1575b505050811b019055610a17565b015160001960f88460031b161c19169055388080610ac4565b80600186978294978701518155019601940190610a84565b346101aa5760403660031901126101aa5760043560005260006020526040600020602435600052602052610151610609610610604060002060405192838092610f22565b15610b4d57565b60405162461bcd60e51b815260206004820152601e60248201527f5075626c69635265736f6c7665723a204e6f7420617574686f726973656400006044820152606490fd5b90600182811c92168015610bc2575b6020831014610bac57565b634e487b7160e01b600052602260045260246000fd5b91607f1691610ba1565b90601f8111610bda57505050565b600091825260208220906020601f850160051c83019410610c16575b601f0160051c01915b828110610c0b57505050565b818155600101610bff565b9092508290610bf6565b906040610c3892603c81528160208201520190610584565b90565b604090610c38939281528160208201520190610584565b908160209103126101aa5751610c388161093a565b6040513d6000823e3d90fd5b908160209103126101aa575180151581036101aa5790565b6040516302571be360e01b815260048101919091526001600160a01b037f0000000000000000000000000000000000000000000000000000000000000000811691906020908183602481875afa928315610d7557600093610d7a575b5082163314918215610cfb575b5050905090565b60405163e985e9c560e01b81526001600160a01b0391909116600482015233602482015290929091508290829060449082905afa918215610d7557600092610d48575b5050803880610cf4565b610d679250803d10610d6e575b610d5f8183610787565b810190610c73565b3880610d3e565b503d610d55565b610c67565b610d9b919350823d8411610da2575b610d938183610787565b810190610c52565b9138610ce7565b503d610d89565b9190610db761023884610c8b565b600090838252602082815260408320828452815260408320908451906001600160401b03821161038c57610def826102778554610b92565b80601f8311600114610eae5750603c949082610ea3575b508160011b916000199060031b1c19161790555b837f65412581168e88a1e60c6459d7f44ae83ad0832e670826c05a4e2476b57af75260405180610e4b878683610c3b565b0390a214610e57575050565b610e9e610e847f52d7d861f09ab3d26239d492e8968629f95e9e318cf0b73bfddc441522a15fd292611284565b6040516001600160a01b0390911681529081906020820190565b0390a2565b905085015138610e06565b601f959293949519841690610ec886600052602060002090565b93905b828210610f0a575050918391603c96959460019410610ef1575b5050811b019055610e1a565b87015160001960f88460031b161c191690553880610ee5565b80600185968294968c01518155019501930190610ecb565b9060009291805491610f3383610b92565b918282526001938481169081600014610f955750600114610f55575b50505050565b90919394506000526020928360002092846000945b838610610f81575050505001019038808080610f4f565b805485870183015294019385908201610f6a565b9294505050602093945060ff191683830152151560051b01019038808080610f4f565b60009081528060205260408120603c8252602052610609610fe26040832060405192838092610f22565b805115610ff357610c389150611284565b5090565b908092918237016000815290565b81604051928392833781016000815203902090565b908060209392818452848401376000828201840152601f01601f1916010190565b929061105490610c38959360408652604086019161101a565b92602081850391015261101a565b916020610c3893818152019161101a565b6001600160401b03811161038c5760051b60200190565b60001981146110995760010190565b634e487b7160e01b600052601160045260246000fd5b634e487b7160e01b600052603260045260246000fd5b91908110156111065760051b81013590601e19813603018212156101aa5701908135916001600160401b0383116101aa5760200182360381136101aa579190565b6110af565b3d15611136573d9061111c826107a8565b9161112a6040519384610787565b82523d6000602084013e565b606090565b1561114257565b606460405162461bcd60e51b815260206004820152602060248201527f5075626c69635265736f6c7665723a204d756c746963616c6c206661696c65646044820152fd5b80518210156111065760209160051b010190565b6111a382611073565b916040906111b382519485610787565b808452601f196111c282611073565b0160005b81811061123757505060005b8181106111e0575050505090565b806000806111f26112329486896110c5565b90611201885180938193610ff7565b0390305af461121761121161110b565b9161113b565b6112218288611186565b5261122c8187611186565b5061108a565b6111d2565b8060606020809389010152016111c6565b604051906bffffffffffffffffffffffff199060601b16602082015260148152604081018181106001600160401b0382111761038c5760405290565b6014815103611294576014015190565b60405162461bcd60e51b8152602060048201526016602482015275092dcecc2d8d2c840c2c8c8e4cae6e640d8cadccee8d60531b6044820152606490fdfea2646970667358221220355977d4c6315f45eb8045aaec2e8669f2996342d532f12014e056f11dfeb49764736f6c63430008140033","linkReferences":{}},"methodIdentifiers":{"addr(bytes32)":"3b3b57de","addr(bytes32,uint256)":"f1cb7e06","contenthash(bytes32)":"bc1c58d1","multicall(bytes[])":"ac9650d8","name(bytes32)":"691f3431","setAddr(bytes32,address)":"d5fa2b00","setAddr(bytes32,uint256,bytes)":"8b95dd71","setContenthash(bytes32,bytes)":"304e6ade","setName(bytes32,string)":"77372213","setText(bytes32,string,string)":"10f13a8c","sns()":"40288a98","supportsInterface(bytes4)":"01ffc9a7","text(bytes32,string)":"59d1d43c"},"id":30}